S01B0000656D7074795F4972546865726D6F5F335F315F322E7333376E
S113000000100020390C0000370C0000370C0000F1
S1130010370C0000370C0000370C0000370C0000D0
S1130020370C0000370C0000370C0000370C0000C0
S1130030370C0000370C0000370C0000370C0000B0
S1130040370C0000370C0000370C0000370C0000A0
S1130050370C0000370C0000370C0000370C000090
S1130060370C0000370C0000370C0000370C000080
S1130070370C0000370C0000370C0000FD0B0000AB
S1130080090C0000370C0000370C0000370C00008E
S1130090370C0000370C0000370C0000370C000050
S11300A0370C0000370C0000370C0000370C000040
S11300B0370C0000370C0000370C0000370C000030
S11300C0370C0000370C0000370C0000370C000020
S11300D0370C0000370C0000370C0000370C000010
S11300E0370C0000370C0000370C0000370C000000
S11300F0370C0000370C0000370C0000370C0000F0
S1130100370C0000370C0000370C0000370C0000DF
S1130110370C0000370C0000370C0000370C0000CF
S1130120370C0000370C0000370C0000370C0000BF
S1130130370C0000370C0000370C0000370C0000AF
S113014010B5054C237833B9044B13B1044800E0CF
S113015000BF0123237010BD18120020000000000E
S1130160486B000008B5034B1BB10349034800E08A
S113017000BF08BD000000001C120020486B0000F6
S1130180154B002B08BF134B9D46A3F5803A002165
S11301908B460F461348144A121A04F08DFD0F4B78
S11301A0002B00D098470E4B002B00D0984700201E
S11301B0002104000D000D48002802D00C4800E086
S11301C000BF04F00DFD2000290000F041F804F008
S11301D0F3FC00BF00000800001000200000000035
S11301E00000000018120020C415002000000000C8
S11301F00000000000F064B830B585B002A968467C
S113020000F02AF90D4C60B10D49206803F0B8FCE8
S11302100A240C4D284603F02DFF013CFAD105B009
S113022030BDDDE900230849206803F0A9FCDDE9BD
S113023002230649206803F0A3FCE9E78C1500209B
S113024090620000A0860100A8620000B76200006E
S113025008B503F0F7FEFFF7CDFF03F000FFFFF74B
S1130260CBFFFAE707B543F201000DF1060100F0F8
S11302707FFB0028AABFBDF80600C0B2C0F341004E
S113028003B05DF804FB37B505460DF1060143F2F2
S1130290010000F06DFBBDF80610044621F00601D4
S11302A041EA450189B243F20100ADF8061000F0BD
S11302B0B1FB0028B4BF0120E00F03B030BD000043
S11302C037B542F20B400DF1020100F051FB48F248
S11302D00543BDF8022004469A4240F09F8001A9DC
S11302E043F6FF7000F044FBBDF80410002821F031
S11302F0010143F6FF70B4BF0124E40F00F08AFB50
S11303000028B8BF01244FF47A750DF1060143F6B5
S1130310FF7000F02DFB0028AABFBDF8060080B2D4
S113032000F4007008B1013DEFD10220FFF7ABFFEC
S11303303C4942F20C4000F03FFB002803DA012460
S1130340204603B030BD384942F20E4000F034FB81
S11303500028F4DB354942F2124000F02DFB00285E
S1130360EDDB334942F2104000F026FB0028E6DBC7
S1130370304942F2244000F01FFB0028DFDB2E4905
S113038042F2264000F018FB0028D8DB2B4942F249
S1130390284000F011FB0028D1DB294942F22A4011
S11303A000F00AFB0028CADB264942F22C4000F088
S11303B003FB0028C3DB244942F22E4000F0D8FAA4
S11303C00028BCDB214942F2814000F0D1FA002828
S11303D0B5DB1F4942F2824000F0CAFA0028AEDBC6
S11303E01C4942F22F4000F0C3FA0028A7DBFFF7B4
S11303F039FF0328A4D00DF1060143F2010000F0F7
S1130400B7FA00289CDBBDF8061043F2010041F066
S11304100601ADF8061000F0FDFA91E76FF005044F
S11304208EE700BF58120020501200205412002002
S11304305C12002034120020381200203C120020EC
S11304404012002044120020481200204A120020CA
S11304504C1200204E1200202DE9F04F8FB00746B9
S11304600991FFF7FFFE06280FD00DF1360143F284
S1130470010000F07DFABDF8361043F2010041F0AE
S11304800801ADF8361000F0C5FA0DF1360144F25A
S1130490050000F06DFA00282EDB224BBDF8362053
S11304A00DF1360144F208001A8000F061FA0028C8
S11304B022DB1D4CBDF836300DA943F6FF702380B6
S11304C000F056FA0028A04616DB0DF1360143F67B
S11304D0FF7000F04DFA00280EDBBDF8361043F62D
S11304E0FF7021F0010100F095FA002804DB41F6C9
S11304F04C5414F1FF3401D2012032E20DA943F629
S1130500FF7000F035FA0028F6DBBDF83400C307AD
S1130510EFD5C0F38400012808D00228ECD14FF0B5
S1130520010A05E060120020621200204FF0020A66
S113053044F2010900EB400404EB09000DF136011B
S113054000B200F015FA0028D6DB04F580400DF166
S1130550360100B2BDF8365000F00AFA0028CBDBB1
S1130560BDF936300AEB4A0A03FA85F3022593FBF8
S1130570F5F3CF4E0AEB09000DF1360100B23380DA
S113058000F0F6F90028B7DB0AF5804A0DF13601D0
S11305900FFA8AF0BDF9369000F0EAF90028ABDBD7
S11305A0BDF93640C34B4C4494FBF5F4B8F9000054
S11305B01C8003F0D3FEC04BCDE90201B3F9000067
S11305C003F0CCFE0022BD4B04F05CF8BC4BCDE93B
S11305D00001B3F9000003F0C1FE0022B94B03F09F
S11305E027FFDDE9002303F023FFDDE9022303F005
S11305F069FD02460B46DDE9000104F043F80022E0
S1130600B14B03F015FFB14BCDE90401186803F0B9
S1130610A5FE0022AE4B03F00BFF04F01BF903F020
S11306209DFE02460B46DDE9040103F049FDA94B9A
S1130630824618688B4603F091FE97A3D3E9002302
S113064003F0F6FE04F006F903F088FE02460B46BA
S11306505046594604F016F89F4B80461868894660
S113066003F07CFE00229A4B03F0E2FE04F0F2F861
S113067003F074FE02460B464046494603F022FD51
S1130680964B80461868894603F068FE0022944B16
S113069003F0CEFE04F0DEF803F060FE52465B4643
S11306A003F0C6FE52465B4603F0C2FE02460B460A
S11306B04046494603F006FDC7E90001B6F90000CB
S11306C04FF0050A204490FBF5F003F047FE0022AA
S11306D07A4B03F0D7FF834B0446B3F900000D4671
S11306E003F03CFE0022774B03F0A2FEDDE9002379
S11306F003F09EFEDDE9022303F0E4FC02460B4610
S11307002046294603F0BEFF00226F4B03F090FE03
S113071004F0A0F8744B8046DDE90401D3F800909E
S113072004F098F803F01AFE704B044618680D465E
S113073003F014FE0022664B03F07AFE02460B46D9
S11307402046294603F0BCFC694B044618680D4654
S113075003F004FE0022674B03F06AFE02460B46D8
S11307602046294603F08EFF0022634B03F0AAFCC7
S1130770624B0446B3F900000D4603F0EFFD00227E
S11307805F4B03F055FE5F4BCDE90001186803F0A1
S1130790E5FD002206460F46574B2046294603F046
S11307A08FFC02460B463046394603F041FE0022D8
S11307B0554B03F03DFE554BCDE90201B3F9000062
S11307C003F0CCFD00224E4B03F032FE504B0646A4
S11307D01868504A4FEAE07B430002FB0B330F4694
S11307E0A0FB0201194403F0F5FD02460B46304616
S11307F0394603F01DFE2AA3D3E90023CDE9040101
S11308002046294603F05EFC04460D4602460B468C
S113081003F00EFE22462B4603F00AFE22462B4628
S113082003F006FE0024CDE90601334D404603F0F3
S113083095FDCDE90A01484603F090FD00220646E5
S11308400F462D4B2046294603F03AFC02460B4640
S11308503046394603F0ECFD00222B4B03F0E8FD53
S113086000222D4B03F02EFCDDE9022303F02AFCC9
S1130870DDE9042303F0DCFD0022284B03F0D8FD5E
S113088009A3D3E9002303F0FDFE02460B46DDE98C
S11308900A0103F0F7FE43E0684A9C2935FAAF3EAB
S11308A06666666666127140000000205FA0024220
S11308B0641200206612002060120020000028400C
S11308C0481200200000503F000020415812002030
S11308D00000703F50120020541200205C120020CF
S11308E00000303D4E120020441200203812002037
S11308F0341200200000F03E000039404C12002069
S11309000000103F401200200000B03D4A120020B9
S11309103C12002000E40B540000F03F0000103DA6
S1130920DDE9062303F0CEFB41EC100B05F0D8FA09
S113093005F0D6FA0CA3D3E9002351EC100B03F015
S1130940BFFBDDE9002303F0BBFB0AF1FF3A1AF019
S1130950FF0A04460D467FF469AF5046099BC3E97C
S113096000450FB0BDE8F08F66666666661271409A
S113097010B50F4B88B0039303128DF8083002AB07
S11309800493022301AA0C468DF8090003A909481F
S1130990ADF814300692ADF81C3000F00FFB9DF852
S11309A004209DF8053043EA0223238008B010BDDB
S11309B0740004000080064010B5144B88B0039303
S11309C003128DF8043001AB04930223ADF8143004
S11309D002AB069304230C468DF8050003A90C48CA
S11309E0ADF81C3000F0EAFA9DF80A309DF80820B2
S11309F01B0643EA02239DF8092013439DF80B20AC
S1130A0043EA0243236008B010BD00BF7400040031
S1130A100080064000B50E4B89B0039303128DF895
S1130A20083002AB049302230A0A8DF809008DF8FA
S1130A3004208DF8051001AA03A90648ADF8143066
S1130A400692ADF81C3000F0B9FA09B05DF804FB69
S1130A5074000800008006407047000030B50A4C5E
S1130A600A4B22680A4D1A600A4B85B02B600A4B68
S1130A70019303F041F82B68029001A920680393C5
S1130A8001F070FF05B030BD0C100020BC15002033
S1130A90B815002000100020C562000038B503F02E
S1130AA02BF80546064C2368D3F8AC0203F018F87B
S1130AB0206801F069FF2846BDE8384003F010B80B
S1130AC00C10002008B50321802001F015F808213E
S1130AD04FF4C06001F010F808214FF4F06001F009
S1130AE00BF808213E2001F007F808212D2001F021
S1130AF003F8002008BD0000144B10B51B68C3F3B5
S1130B000743012B10D1124B4FF48022596E41F24E
S1130B10640049034FF0040458BF42F264011A50C0
S1130B200C48046058BF5A5002F0BCFF00F07FF834
S1130B3002F04EFF02F06EFF02F09AFFFFF7C2FFD1
S1130B4002F056FFBDE8104000F068B80080E00FE6
S1130B50008000402020014000F010B808B500F0EB
S1130B604BF8BDE80840FFF779BF704700F04EB876
S1130B707047FFF793BF70477047000008B53A20ED
S1130B80012100F099FBBDE80840014800F054B988
S1130B901010002070B5144C92B00BAD0FCC0FC5E3
S1130BA094E80700032385E8070003AE8DF844307A
S1130BB007AD04F10C031C340FCB86E80F0094E856
S1130BC00F0085E80F00094B0BAA00932946334612
S1130BD0074803F063F9044618B17A21054800F088
S1130BE0FDF9204612B070BDD86200002015002027
S1130BF07415002014630000FFF7CCBF014B186884
S1130C0003F008BA74150020FFF7F8BF08B502F026
S1130C1073FF014B186008BD8C15002008B5012135
S1130C203A2000F049FBBDE80840FFF715BF012159
S1130C303A2000F041BBFEE708B500F013F8064A7D
S1130C40064B07498B4201D3FFF79AFA52F8040F77
S1130C5043F8040BF6E700BF4C6B000000100020C3
S1130C6018120020044B054A9A60D3F8882042F4F5
S1130C707002C3F88820704700ED00E00000000017
S1130C80014B1868704700BF28100020084B1B6FE9
S1130C9003F00703022B04D0032B05D0012B05D04E
S1130CA0FEE7044B18687047034BFBE703487047A3
S1130CB000800040281000202C100020002D31015D
S1130CC008B5FFF7E3FF054B1B6FC3F30333013391
S1130CD0B0FBF3F0024B186008BD00BF0080004079
S1130CE0241000200048704700B4C404014B186865
S1130CF0704700BF2C100020054B1860054B1B6F7C
S1130D0003F00703032B01D1FFF7DABF704700BFDD
S1130D102C100020008000400020704700487047DD
S1130D20002D31014FF4004070474FF47A70704742
S1130D30014B1868704700BF301000200023036087
S1130D407047000038B504460D4601B118B9392181
S1130D50034800F043F923682B60256038BD00BFC9
S1130D604263000030B548B142B139B10346013A9B
S1130D70013912F8014F14B900221A7030BD1D1A3E
S1130D80A942F9D903F8014BF3E740B10023C25C4F
S1130D900AB1994201D1184670470133F7E7034677
S1130DA0F9E74FF0FF31FFF7F0BF70B50C46154679
S1130DB0064660B15AB151B1FFF7F3FF844206D938
S1130DC0211A2A463044BDE87040FFF7CBBF70BDFE
S1130DD0F8B5F8B1F1B1461E4F1E16F8014F03F0F5
S1130DE027FF2044437817F8015F03F00303012B26
S1130DF008BF203403F01CFF2B462844427802F03D
S1130E000302012A08BF2033E01A02D13378002BF1
S1130E10E3D1F8BD0120FCE7054A064913681844EC
S1130E2088428CBF4FF0FF3310601846704700BFF4
S1130E3034100020008000202DE9FF47044618B933
S1130E402C21594800F0CAF82368584A93420AD022
S1130E50574A934200F084804221534800F0BEF880
S1130E6004B0BDE8F0872E20012100F025FA01230B
S1130E700A226179207901F045F901230A22E179F6
S1130E80A07901F03FF909274FF00108DFF8289114
S1130E90484D267994F805A0002E63D0012E64D025
S1130EA0022E64D0032E0CBF0C23002323FA0AF372
S1130EB0DA0704D440F2E131484600F08FF83022DA
S1130EC002FB065642F2100208FA0AF3B3506420F9
S1130ED003F0D0F8267994F805A0002E49D0012E0D
S1130EE04AD0022E4AD0032E0CBF0C23002323FA2F
S1130EF00AF3DB0704D44FF48261484600F06EF82D
S1130F00302202FB065641F2100208FA0AF3B350EB
S1130F10642003F0AFF8013FBBD12068234B984213
S1130F202ED10323C5F890346279237943EA02432E
S1130F30C5F89434E279A37943EA0243C5F89834B6
S1130F4001238DF800308DF80130E368694602937F
S1130F50A3680193237C8DF80C3001F0BFF97FE77F
S1130F602F2081E740F2FF13A0E71F239EE7FF2312
S1130F709CE740F2FF13BAE71F23B8E7FF23B6E765
S1130F800B4B9842DCD10323C5F8A0346279237952
S1130F9043EA0243C5F8A434E279A37943EA02435D
S1130FA0C5F8A834CCE700BFA86300000000014ADC
S1130FB00080064000C003401664000038B50546B2
S1130FC001F0D2FA044C012801D1013C00D138BD12
S1130FD0284601F0B7F9F6E7E1930400FEE70000C4
S1130FE0054A1368DB06FCD44FF04023D3F8840091
S1130FF0C0F38110704700BF8440004038B5124BE5
S11310000546D3F820310C4603F00303022B0BD022
S1131010032B0DD0012B0FD1FFF732FE052305B1B1
S1131020286004B1237038BDFFF760FE0323F6E7A0
S1131030FFF774FE0223F2E7044840F62851FFF755
S1131040CDFF00231846EAE7008000407A640000E0
S1131050F7B50024114B0194D3F88051074605F0ED
S11310600305012D0E4607D0022D11D040F6446130
S11310700B48FFF7B3FF04E0214601A8FFF7BEFFCA
S11310800D240FB1019B3B6006B1347003B0F0BD79
S1131090FFF744FE2C460190F3E700BF00800040B8
S11310A07A64000038B5194B0546D3F824310C4650
S11310B003F00703013B052B20D8DFE803F0030FFF
S11310C0171B0B13FFF7DCFD052305B1286004B1E2
S11310D0237038BDFFF7D4FD0623F6E7FFF706FEBD
S11310E00323F2E7FFF702FE0423EEE7FFF716FE01
S11310F00223EAE7FFF710FE0723E6E704484FF46C
S1131100F571FFF76BFF00231846DEE7008000400F
S11311107A64000038B5124B0546D3F840310C46CA
S113112003F00303022B0BD0032B0DD0012B0FD1A3
S1131130FFF7F8FD092305B1286004B1237038BD19
S1131140FFF7F6FD0823F6E7FFF7EFFD0A23F2E7C2
S1131150044840F65651FFF741FF00231846EAE7DA
S1131160008000407A64000038B5154B0546D3F87A
S113117000320C4603F00703013B032B18D8DFE8C9
S113118003F0020A0E12FFF7CDFD092305B1286012
S113119004B1237038BDFFF7CBFD0823F6E7FFF752
S11311A0C4FD0A23F2E7FFF78BFD0C23800AEDE769
S11311B0044840F6F761FFF711FF00231846E5E7FE
S11311C0008000407A64000038B5124B0546D3F81D
S11311D040320C4603F00303022B0BD0032B0DD03B
S11311E0012B0FD1FFF79EFD092305B1286004B13F
S11311F0237038BDFFF79CFD0823F6E7FFF795FD44
S11312000A23F2E7044840F68B61FFF7E7FE002368
S11312101846EAE7008000407A64000038B5124BB3
S11312200546D3F860310C4603F00303022B0BD0C0
S1131230032B0DD0012B0FD1FFF774FD092305B14A
S1131240286004B1237038BDFFF772FD0823F6E768
S1131250FFF76BFD0A23F2E7044840F68451FFF7D9
S1131260BDFE00231846EAE7008000407A640000CF
S11312700F4B10B4D3F820320A4603F00303012BBA
S11312800ED0022B10D008B1002303600AB1002352
S1131290137040F2132107485DF8044BFFF79EBE1C
S11312A05DF8044BFFF7AABE5DF8044BFFF732BFAD
S11312B0008000407A64000070B5440905460E467B
S11312C00DD1E4210D48FFF789FE05F01F058EB10D
S11312D004F58053012202FA05F51D6070BD012C4E
S11312E006D0074A074B022C14BF14461C46ECE7F1
S11312F0054CEAE704F50053ECE700BF7A6400000C
S1131300608200406880004064800040B0F5007F47
S113131010B52FD005D8D0B1B0F5C07F17D00024B8
S113132026E0B0F5207F2BD0B0F5607FF7D1174BC6
S1131330D3F88040C4F30114012C19D9032C17D01D
S113134040F2EF511248FFF749FE022410E00F4B20
S11313501C6FC4F30334012C0AD9032C08D0072CC6
S113136006D00F2C04D040F2E2510948FFF736FEB4
S1131370601C10BD054BD3F89040C4F30464F7E738
S1131380024B1C6FC4F38024F2E700BF00800040CE
S11313907A640000002337B53E280446019300F028
S11313A0BA8045D82B282BD022D8232816D00FD882
S11313B020284CD007D8002849D040F2AF11584813
S11313C0FFF70CFE87E0212808D022283FD0F4E75D
S11313D0292800F296802828C0F08980FFF770FC45
S11313E004464FF42070FFF791FFB4FBF0F071E076
S11313F0312810D82F28F1D22D2800F0878056D913
S1131400FFF75EFC04464FF42070FFF77FFFB4FB48
S1131410F0F040085EE03C2855D83A28DED238285F
S11314206AD03928C9D1002101A8FFF73BFE52E058
S1131430B0F5007F52D01BD8522858D00AD84D2876
S113144005D002D83F28C9D0B7E74F28B5D3FFF756
S113145037FC3FE080283BD004D8A0F16004012C85
S1131460F5D9AAE7B0F5807F21D0B0F5C07FADE70C
S1131470B0F5A06F40D010D8B0F5607F2ED006D85C
S1131480B0F5207FAAD0B0F5407FB9D095E7B0F58C
S1131490806F2CD0B0F5906FC4E7B0F5D06F35D025
S11314A00AD8B0F5B06F2CD0B0F5C06F85D100214B
S11314B001A8FFF72FFE0EE0B0F5E06F2BD0B0F5DA
S11314C0F06F7FF47AAF002101A8FFF7A7FE02E0D6
S11314D0FFF7DCFB0190019803B030BDFFF7D6FBAA
S11314E005462046FFF712FFB5FBF0F0F2E70021B6
S11314F001A8FFF783FDEEE7002101A8FFF7B8FE7E
S1131500E9E7002101A8FFF7A3FDE4E7002101A812
S1131510FFF72AFEDFE7002101A8FFF755FEDAE70F
S11315207A64000008B58020FFF734FF044B98422A
S11315309FBF42F270034FF48031024AD15008BD7C
S1131540005A62020080004070B541F268030E4602
S11315504FF400310E4A0546D1500020FFF7D6FE65
S113156041F671320B4B6843DC690B49DA639A68C4
S1131570884204F4803422F4401203D9012E18BFA7
S113158042F480129A600CB10022DA6370BD00BF8D
S11315900080004000000340005A620208B5FFF7D3
S11315A0A1FBBDE808400021FFF7CEBF002307B52B
S11315B0B0F5807F8DF807300FD030D82D2800F09B
S11315C0868010D82A2841D005D82438032831D958
S11315D040F2017171E02C28FAD10DF107010020CD
S11315E0FFF798FD37E03E2844D009D838287ED04C
S11315F03D28EDD10DF107010020FFF70FFE2AE091
S1131600522817D08028E3D13C4B1B6F03F007030B
S1131610013B032B4FD8DFE803F04C484666B0F596
S1131620C06FDAD01CD8B0F5906F4AD008D8B0F5A6
S1131630806FCDD10DF107010020FFF7DFFC0AE038
S1131640B0F5A06F53D0B0F5B06FC1D10DF1070163
S11316500020FFF7FDFC9DF8070003B05DF804FBD4
S1131660B0F5F06FC6D00BD8B0F5D06F2FD0B0F571
S1131670E06FADD10DF107010020FFF7A5FDEAE70A
S1131680B0F5006F1DD0B0F5086FA1D11B4BD3F896
S1131690003103F00303022B1FD0032B21D0012BB5
S11316A023D1FFF723FB032300E005238DF8073044
S11316B0D1E70223FAE740F272611148FFF78EFC8A
S11316C0C9E70DF107010020FFF7ECFCC3E70DF1BA
S11316D007010020FFF748FDBDE7FFF729FB0823BA
S11316E0E4E7FFF719FB0723E0E70123DEE70DF149
S11316F007010020FFF7BCFDADE700BF00800040FC
S11317007A640000037870B50F2B044604D940F6C0
S1131710EC217048FFF762FC63780F2B04D940F684
S1131720EF216C48FFF75AFCA3780F2B04D940F63D
S1131730F2216848FFF752FCE3780F2B04D940F6F6
S1131740F5216448FFF74AFC23790F2B04D940F6AE
S1131750F8216048FFF742FC63793F2B04D940F637
S1131760FB215C48FFF73AFCA3793F2B04D940F6F0
S1131770FE215848FFF732FCE379032B04D940F6E5
S113178001315448FFF72AFC237A032B04D940F68D
S113179004315048FFF722FC637B012B04D940F647
S11317A006314C48FFF71AFC8020FFF7FFFE0328A0
S11317B000F0868041F264034FF40021464AD15080
S11317C045F60E0302F58042C2F88030022141F250
S11317D02803D15042F228030121D150916D11F414
S11317E08031FBD1637820781B0543EA0063A0793C
S11317F0657C0343E07843EA0043207943EA0033FD
S1131800607943EA801313619369E07A03F000433B
S11318100343E07943EA8063207A43EA0063607A11
S113182043EA0043A07A43EA00239361637B126A8C
S1131830002B18BF0821207B22F00D0243EA02038B
S113184043EA800341EA0301A27B244B4FEA421698
S11318501962207C35D1996AE27B21F0330141F091
S11318600101314341EA0211996219461C4A9E6DF5
S113187032EA0606FBD1022241F228069A511A6581
S11318808B6D5B00FCD40B69A27823F4700343EAEC
S113189002530B614FF0004241F21803CA5018B9C9
S11318A042F228030222CA5025B942F22803012138
S11318B00A4AD150A37C1BB1084B0A4AC3F88020C2
S11318C070BD9A6A22F033022A43324342EA40024C
S11318D09A62EFE77A6400000080004000C0004094
S11318E003000140F1A7FFFF837810B5072B0446DE
S11318F004D940F6B5312B48FFF770FBE378032B8E
S113190004D940F6B7312748FFF768FB2378032B47
S113191004D940F6B9312348FFF760FB94F901304C
S1131920002B04DA40F6BB311E48FFF757FB41F2A7
S113193064034FF480001C496278C8504FF4D151BD
S11319401A4B0220596241F204014F2A585042F2C4
S113195004014FF0010028BF4F2258501969C903F0
S1131960FCD4217842EA01225A61E278A17812017A
S113197042EA012261790A43217942EA41029A60EA
S1131980E279A179120142EA4112617A0A43217A89
S113199042EA41025A60A27A12B16FF4D1525A62F9
S11319A010BD00BF7A6400000080004000000240C7
S11319B0014B1880704700BF381000200029CCBFAD
S11319C001210021FFF7C0BDB0F5007F10B553D051
S11319D00AD818B3B0F5C07F20D0BDE810404FF44A
S11319E0C9613648FFF7FABAB0F5207F56D0B0F592
S11319F0607FF2D14C1E012C06D9042904D040F298
S1131A0035612E48FFF7EAFA2D4AD2F8803023F0E8
S1131A10300343EA0413C2F8803010BD102901F1E9
S1131A20FF3404D8274B23FA01F1CB0704D440F246
S1131A3019612248FFF7D2FAFFF7B0FD00F044F82D
S1131A404FF4803141F270031D4AD150136F23F4D7
S1131A50704343EA04331367FFF732F90446FFF790
S1131A60BFFAC0F102012046FFF7A8FF00F032F8E8
S1131A70BDE81040FFF756BD4C1E1F2C04D940F2A0
S1131A803C610E48FFF7AAFA0D4BD3F8901021F0F1
S1131A90F85141EA0461C3F89010BEE74C1E012CD2
S1131AA004D940F242610548FFF798FA044B196FD4
S1131AB021F4806141EA84211967AEE77A64000069
S1131AC0008000401601010002214FF42070FFF74E
S1131AD07BBF000008B54FF4C070FFF75BFCBDE8A6
S1131AE00840044988428CBF022101214FF4207030
S1131AF0FFF76ABF80F0FA02B0F5807F70B50C463C
S1131B0013D04DD82D2800F04A8121D82A2865D039
S1131B1009D8243803284FD9BDE8704040F64B114A
S1131B20B948FFF75BBA2C28F6D1092C00F00781DD
S1131B300A2C00F0FB80082C40F0FA800222B34902
S1131B40D1F8403123F003031343C1F84031B9E025
S1131B503E2863D017D8382800F05C813D28DBD1BB
S1131B60092C00F0F7800A2C00F0EB80082C40F0E0
S1131B70EA800222A549D1F8603123F0030313431C
S1131B80C1F860319EE0522816D08028C4D18B1E43
S1131B90052B00F2AB80DFE803F0A696A9B1A96695
S1131BA0B0F5C06FC1D02DD8B0F5906F00F0D480DF
S1131BB00DD8B0F5806FAFD1032C00F0A480052CB4
S1131BC000F0B280022C40F0A88003229CE0B0F523
S1131BD0A06F00F01F81B0F5B06F9DD1022C08D02A
S1131BE00D2C00F08E8040F276718748FFF7F6F9ED
S1131BF00024864AD2F8803123F003031C43C2F840
S1131C0080415FE0B0F5F06FAAD01AD8B0F5D06F7C
S1131C1000F0C580B0F5E06F7FF47EAF092C00F0D2
S1131C2019810A2C00F00D81082C40F00C8102224D
S1131C307649D1F8403223F003031343C1F840320C
S1131C4040E0B0F5006F00F08780B0F5086F7FF4D6
S1131C5063AF4C1E072C00F2CD80DFE804F0D0CB3C
S1131C60D2CBCBCBC9BF002504260121022000F032
S1131C7007F9FFF793FCFFF727FF4FF4803141F298
S1131C807003624AD150136F23F007033343136781
S1131C90FFF716F80646FFF7A3F9C0F10201304634
S1131CA0FFF78CFE0121002000F040F9FFF712FF3E
S1131CB0FFF738FC35B9032C04D142F22803012183
S1131CC0534AD15070BD41F264034FF400214F4A8E
S1131CD00326D15041F2280201214D4B9D6A9950AF
S1131CE0C5F34005C1E700250126BEE7002540F203
S1131CF034714548FFF772F92E46B6E700250226EF
S1131D00B3E7012475E702224049D1F8203123F0DA
S1131D1003031343C1F82031D4E740F2A7713A48D2
S1131D20FFF75CF90022EFE70122EDE7032206E763
S1131D3040F2C3713448FFF751F90022FFE6012253
S1131D40FDE6032216E740F2DB712F48FFF746F960
S1131D5000220FE701220DE7023C052C16D8DFE82C
S1131D6004F00D03131C110F02232849D1F8242178
S1131D7022F007021343C1F82431A3E70323F4E755
S1131D800423F2E70523F0E70623EEE74FF40061AE
S1131D901D48FFF723F90023E7E70123E5E7083CA3
S1131DA0042C12D8DFE804F003180D110F000222EE
S1131DB01649D1F8003223F007031343C1F8003267
S1131DC080E70322F4E70422F2E740F61D010E48FF
S1131DD0FFF704F90022EBE70122E9E702220B49AD
S1131DE0D1F8003123F003031343C1F8003169E74C
S1131DF00322F4E740F656010348FFF7EFF8002208
S1131E00EDE70122EBE700BF7A64000000800040A8
S1131E1000C000400D2C12D00E2C09D102220E4914
S1131E20D1F8203223F003031343C1F8203249E7E9
S1131E304FF408610948FFF7D1F80022EFE70122C7
S1131E40EDE70322F4E640F6CE010448FFF7C6F8B6
S1131E500022EDE60122EBE6008000407A640000F7
S1131E60EFF3108072B6704700B962B67047EFF3B3
S1131E701180302383F31188704780F311887047F1
S1131E802DE9F0410546254A1368D806FCD44FF0E5
S1131E904023D3F88430C3F381139D423CD0FEF732
S1131EA0F5FE012D06460BD11D4B984204D940F294
S1131EB0C2511C48FFF792F801213046FFF77EFD1E
S1131EC0FFF7CEFF4FF00072174B4FF040241A601B
S1131ED04FF4806307466A1E9340DFF84880236707
S1131EE0636E9A0103D4D4F884309B060AD538462D
S1131EF0FFF7BAFF022D0FD13046BDE8F0410021B3
S1131F00FFF75CBDD4F884309906E9D540F2CF518F
S1131F104046FFF763F8E3E7BDE8F0818440004002
S1131F20005A6202DD6400006460004010B50C4693
S1131F3008B9FEF7ABFE074B21461B783BB1064BB5
S1131F40984204D80120BDE81040FFF799BF022051
S1131F50F9E700BF90150020005A62024FF04022BA
S1131F60D36E017923F030030B43D366704700002E
S1131F7041F264034FF00041174A10B5D1500121DA
S1131F8041F204024AF6CD34144B99505A6C1C6445
S1131F900A4088B99868C40705D542F20800195068
S1131FA0D96AC807FCD542F204010120585012B185
S1131FB00A4B0B4A1A6410BDD96A0907FCD442F2D1
S1131FC024012020585041F20801012058500349AF
S1131FD04B6A9B06FCD5EAE70080004000400940BC
S1131FE03254FFFF38B54FF0004141F26403184A00
S1131FF0184CD150012241F20403E2504AF6CD3389
S1132000656C236443781540934013434FF040229A
S1132010D363A368827823F0740343EA0213C2787B
S1132020002A14BF042200221343A3600279837997
S113203043EA022323614279C379007843EA022305
S11320406361FFF795FF0DB1034B2364012038BD95
S113205000800040004009403254FFFF38B50D466F
S11320600446D8B101281CD002281CD003280CBF78
S11320700C230023EB40DB0704D44FF482610B48AC
S1132080FEF7ACFF3020012141F21003604300F160
S11320908040A94000F57030C15038BD40F2FF13B4
S11320A0E8E71F23E6E7FF23E4E700BF1664000028
S11320B038B50D460446D8B101281CD002281CD0DE
S11320C003280CBF0C230023EB40DB0704D440F2AD
S11320D0E1310B48FEF782FF3020012142F2100368
S11320E0604300F18040A94000F57030C15038BD14
S11320F040F2FF13E8E71F23E6E7FF23E4E700BF0E
S113210016640000F8B50C4615461E46074678B31B
S1132110012830D0022830D0032814BF00230C2318
S1132120E340DB0704D440F21D112048FEF756FFBC
S113213025B12146384616B3FFF790FF30237B4381
S1132140072C03F1804303F570331BD80F205A6822
S1132150A100884022EA000205FA01F10A435A600C
S113216015BB21463846DEB1BDE8F840FFF776BF1F
S113217040F2FF13D4E71F23D2E7FF23D0E7FFF792
S113218097FFDBE70F2004F18042083AD9689200F8
S1132190904021EA000105FA02F20A43DA60DFE71F
S11321A0BDE8F840FFF784BFF8BD00BF40650000FC
S11321B02DE9F041064688461546A2BB40F20F11B0
S11321C0BDE8F0413048FEF709BF304B9E4201D1D3
S11321D02F2040E040F229112B48FEF7FFFE3DE09E
S11321E0032F45D02A4B3FE06FEAC5041C44444406
S11321F0B4FBF3F4013C0AD540F275112248FEF712
S1132200EDFE4FF4BB712048FEF7E8FE02E0B4F5A2
S1132210007FF6D2B3689B0702D5002C08BF0124C7
S1132220B461BDE8F08103F00307836823F44073CD
S11322308360FFF715FEB26882EA072303F4407354
S11322405340B360FFF710FEB8F1000F06D1114BF5
S11322509E42BAD12E20FFF79DF88046B3689A07B4
S1132260BED5032F04D00C4B53F82730984504D81F
S11322704FF4AF710448FEF7B1FE084BDB5D6B43CE
S1132280B2D140F26F119BE7BC65000000800640AC
S1132290B06500000000014AA46500001F6600004C
S11322A038B50B4B044698420D4607D0094B98426B
S11322B004D040F28F110848FEF790FE043425B193
S11322C004F580540123236038BD04F50054F9E774
S11322D00000014A00800640BC65000038B5154B7B
S11322E0044698420D4607D0134B984204D04FF44D
S11322F0D2711248FEF772FE0023236442F23C03BB
S11323000F4AE2506A7804F108037AB903F580535E
S113231002221A60D5E9011220462B7BFFF748FF01
S113232029782046BDE83840FFF7BABF03F50053CB
S1132330EEE700BF0000014A00800640BC650000D3
S1132340FFFF1F002DE9F843824B98420BD0824BCC
S113235098421CD081484FF4FD71FEF73FFE6FF0A8
S11323600300BDE8F8837E4B402605254FF00008A6
S11323704FF0030C00F500549A683C34C16B11F41F
S1132380C06F0BD08E0504D5FD225A70DCE0754B6E
S1132390EAE74D0540F1D880FE22F6E71F78082FC2
S11323A000F2D480DFE817F009002B0051005C0034
S11323B079008400A200A900C90051881288CC06C3
S11323C016D5120A02F0060242F0F0020121197039
S11323D04263C1601A78092A40F0BA80002293F956
S11323E001100264012908BF5A7093F90100B8E78B
S11323F002F0FE02890748BF42F00102E6E70F0639
S11324000AD542F23C0280218150FF225A700822F0
S11324101A700222C260DDE7490640F199805188B2
S11324202660CF0604D50221127819704263D1E7E1
S1132430890760D507211970197902EBC102128945
S1132440012A40F085800822E4E70F06D9D4490622
S11324507ED5518826608F074DD583F800C08DE75F
S113246054881188E50643BF090A01F0060141F0CA
S1132470F00101F0FE01640709D51C7941F0010166
S113248002EBC4021289012A04BF0822C26004229A
S11324901A700122C26041639CE70F06B1D44F0653
S11324A056D551882660490725D507221A7091E729
S11324B019795F8802EBC10EBEF80890B9450DD8B2
S11324C00131C9B219715788A3F8028017F0040FBB
S11324D0C3D1FF079BD4012999D84FE7DEF8042024
S11324E0791C5980D25D42630622DFE70F0688D447
S11324F04F062DD526601D7040E7890628D5202675
S113250042F23C041979456A02EBC1021189065171
S11325105C88A14281BF5268661C5E8015555A884A
S113252091427FF674AF04240129C4607FF652AF50
S113253001398A427FF44EAF85E7CA0508D542F2D5
S11325403C024FF4807181500922AFE7FB221CE763
S1132550012006E70000014A00800640BC65000037
S113256094150020A015002038B5284B0446984245
S11325700D4645D0264B98423FD04FF45171254823
S1132580FEF72CFD002D3ED140F245312148FEF7E7
S113259025FD1E4B9C4229D11F4B2269D00744BF05
S11325A02022E2606A88910701D5298959B352072C
S11325B001D52A8A3AB3002201211A7059705A802F
S11325C01A719D60C023E3606369DB0513D442F292
S11325D03C032022E250114A2046E250236C43F48B
S11325E0FC632364BDE83840FFF7ACBE084B9C4253
S11325F009D10B4BD1E7636AE6E70029F9D1C3E7B8
S11326000029C9D1C0E76FF0030038BD0000014ABA
S113261000800640BC65000094150020FFFF1F00E9
S1132620A01500202DE9F041064688461D461746B0
S113263022B94FF4A1712F48FEF7D0FCB8F1000F76
S113264004D14FF42070FEF7A5FE8046202D3AD029
S113265007D8A5B1BDE8F04140F289112548FEF73D
S1132660BDBC402D39D0602DF4D1B7EB980F04D9FF
S113267040F283111F48FEF7B1FC042208E0B7EBD7
S1132680181F04D94FF4BA711A48FEF7A7FC102298
S11326907A43540804EB4814B4FBF2F4164F203C7C
S11326A0E400BC4204D940F29F111248FEF796FCA4
S11326B0B3683C4023F06003B360B3681D43B56066
S11326C0F461BDE8F081B7EBD80F04D940F2791179
S11326D00848FEF783FC0822DAE70624B8FBF4F383
S11326E0BB4204D24FF4BF710248FEF777FC224686
S11326F0CEE700BF23660000F8FF7F0038B50E4B1D
S1132700044698420D4608D003F58043984204D00D
S113271040F2BE210948FEF761FC012241F20403A4
S1132720E250EB43934003F00A036361656115B91A
S113273042F20403E25038BD00C0054023660000A5
S11327401A4B10B59842044608D003F580439842CA
S113275004D040F22B411648FEF740FC41F204033A
S11327600122E25040F6AA6341F2050263610023AC
S1132770A360E365E26042F248020E492361E3612B
S1132780E364A150094AA365944202D00A498C42E9
S113279007D19442236502D0074B9C4201D1002308
S11327A0636542F204030122E25010BD00C00540FB
S11327B023660000FFFF01000000064038B5404BCF
S11327C0044698420D4608D003F58043984204D04D
S11327D040F2EF213B48FEF701FC2046FFF7B0FF33
S11327E041F204030122E250AB7C1BB1A36843F025
S11327F08043A360EB7C5BB1314A2B7D944243D18F
S1132800A2F51032C2F88C31E36D43F08003E36526
S11328102A8A6B7B20461343EA891343E360D5E994
S113282001122B7BFFF7FEFE6B7D1BB1A36843F403
S11328308033A360AB7DEA7D1B07120502F4E0023E
S113284003F0E043297E1343A3658B1E012B1C4A2E
S11328501D4B23D894421FD002F5804294420CBFF2
S113286001224FF0FF3203EB4213022041F21C62BB
S1132870032998500CBF41F25C0342F25C0304222A
S1132880E2502B78636138BD104A944204BFA2F52C
S11328902032C2F89C31B7E70022E4E794420DD01D
S11328A00A4A94420CBF01224FF0FF3203EB421359
S11328B0022042F21C6201299850DBE70022F5E76E
S11328C000C005402366000000C00340000006402D
S11328D083691B06FCD5406AC0B2704783695B06F6
S11328E0FCD5C1637047000010B54FF42D72002170
S11328F0044602F0E1F900238022C4E92323084AB4
S1132900C4F894306260012284F898302272C4F8CA
S1132910A83204F19C00BDE81040FEF70FBA00BFD6
S113292040670000D0F8A03010B50C4673B900F031
S11329309BFC044640B12D2896BF074B074953F82A
S11329402010074800F0AFFF204610BDD0F8A410B7
S1132950204698470024F7E7886600004367000094
S11329605167000038B50D460446FFF7BDFF6B689C
S1132970A968C4F8AC32204600F050FB4FF0FF3396
S11329800020C4F8B03238BD38B5037804468BBB98
S113299001220270027A22B103724168164800F0E3
S11329A082FF4FF0FF35D4F8B002421C1CD0C4F8AB
S11329B0B052C1B2204600F01DFE0028F3D004F14D
S11329C00905284602F08AF948B1204600F0CEFDF8
S11329D029462046FFF7A6FF204600F0EFFC616879
S11329E0054800F060FF03E000F042FF431CE0D123
S11329F00023237038BD00BF6F680000F8B50B7862
S1132A000446302B0D46174658D14B7803F0DF03AC
S1132A10582B53D14E1C16F8013FC3B9624202F041
S1132A20030204F0030358BF5342032B284621D169
S1132A3002F054F90423013494FBF3F40238A04265
S1132A400FD1A87837288CBF0020012008E002F0BD
S1132A50EFF833781844437813F0440FDBD10020A7
S1132A60F8BD284602F03AF902388442D4BF002067
S1132A700120F5E702F032F9042394FBF3F4023861
S1132A80A042CCBF00200120EAE702F0D1F833785D
S1132A90184443785B07E2D516F8011F0029F4D1E6
S1132AA00A22284602F07AFA202C09D10246002391
S1132AB08B4206BF824201200020D1E76E1EEBE765
S1132AC037B150EA010303D010F1FF3041F1FF3177
S1132AD0012303FA04F4013C00EA0402E7E70A785C
S1132AE001382D2A0ABF012200228918FFF786BF68
S1132AF070B5037805467B2B01D0002070BD0024FF
S1132B00461C731B16F8012B7D2A07D11D446B78D4
S1132B10002BF2D1E04300F00100EFE702F088F867
S1132B2016F8013C1844427812F0440F01D00134E5
S1132B30E7E7202BE1D1E4E7072805D8DFE800F038
S1132B40060A0D1013151A170020704700220820DA
S1132B50FFF754BF00221020FAE700222020F7E7F5
S1132B600820FFF7BCBF1020FBE72020F9E7084648
S1132B70FFF7BEBF012070472DE9F74304280C4638
S1132B80DDE90A7590461E4646D009D8012826D0AC
S1132B9011D302282DD0032834D003B0BDE8F0832C
S1132BA0062804D042D3072846D02128F5D13B6813
S1132BB048F823400FE000222046114602F07EFA36
S1132BC02B68C0B206EB83013A6846F82300013350
S1132BD048F822102B603B6801333B60DDE700229C
S1132BE02046114602F06AFA2B6880B206EB830194
S1132BF0EAE700222046114602F060FA2B6806EB51
S1132C008301E1E700222046114602F0FDF82B681B
S1132C1040B206EB8301D7E700222046114602F0BA
S1132C20F3F82B6800B206EB8301CDE700222046BF
S1132C30114602F0E9F8E1E70026894635468DF8A9
S1132C40066019F8013F7D2B03D125702D0A6570AC
S1132C50ADE7202BF5D006F00102013612B98DF84C
S1132C600430EEE71022002101A88DF8053002F0AF
S1132C70CBF8631901359870ADB2E2E72DE9F04F56
S1132C809246002285B08B42804689469B46CDE918
S1132C9002226CDC01461646A1EB080311F8014B35
S1132CA0FF2C08D15B448EB1013B4B455BDD2B20EF
S1132CB005B0BDE8F08FA4F12003012B04D9103C2A
S1132CC0072C98BF0122E7E70126E5E742B1013B63
S1132CD04B45ECDC354637464D4504DB0020E7E741
S1132CE09945F7D0E3E75D453BDB18F80730202B27
S1132CF018D108EB07035B78FF2BD8D1CEB95AF86B
S1132D0025102046FFF718FF98B303AB019302ABDD
S1132D1000935AF82510DDE90E232046FFF72CFF17
S1132D200135D9E7212B0ED108EB07035B78FF2B84
S1132D30BDD1029B5AF825200E99012641F8232083
S1132D4001330293ECE7A3F11004072C02D90137F5
S1132D501C46D3E708EB07035B78FF2BA7D1E4B24B
S1132D60CCE70624CAE700252F462E46B4E72120E7
S1132D709EE726209CE72DE9F04F814688461746BA
S1132D809A46044685B0119EDDE90F5B2068E8B1E0
S1132D902A68DAF800108A4218DA0E9B53F82210D7
S1132DA0FEF716F828BB2A6801322A606268117B94
S1132DB0FE2919D10E9B106801210093CDE902B6BA
S1132DC0019553463A46FFF7D6FF04463B783BB994
S1132DD033782BB9B8F1000F0DD001234C46337072
S1132DE0204605B0BDE8F08F01238BF800303B701E
S1132DF0ECE70C34CAE74446F2E7000070B5064637
S1132E000D4601F06BFF0446304600F04CFD044EC5
S1132E10AC4200D370BD304600F045FD0134F7E705
S1132E20106B00002DE9F84F044602215A48FFF7C1
S1132E30E5FF1E212068FFF7E1FF6368586800F092
S1132E4032FD564800F02FFD6668337B0233DBB257
S1132E50012B12D9D6F808804FF0FF35404601F017
S1132E603DFF0746DFF83091DFF890A1DFF878B135
S1132E700C3616F8013BFF2B01D1BDE8F88F112B5E
S1132E8068D042D8042B5DD036D8012B00F0818065
S1132E907BD3022B7BD0032B50D0002F404C00DD82
S1132EA00135202BE5D002214846FFF7A7FF1E215C
S1132EB04846FFF7A3FF504600F0F5FC594620466C
S1132EC001F002FF3749002818BF2146364800F0B8
S1132ED0EAFC3378202B02D12B2000F0D8FC3348B5
S1132EE000F0E1FC002F03DD18F805301F2B40D162
S1132EF02A4800F0D8FCBCE7062B27D024D3072BA4
S1132F0026D0102BC9D12A4C19E0162B2AD008D868
S1132F10132B23D020D3142B22D0152BBDD1254C19
S1132F200DE0202B2CD003D8172BB6D1224C06E071
S1132F30212B19D0FE2BB0D1204C00E0204C002FC7
S1132F40AEDCB0E71F4CFAE71F4CF8E71F4CF6E77E
S1132F501F4CF4E71F4CF2E71F4CF0E71F4CEEE761
S1132F601F4CECE71F4CEAE71F4CE8E700F08FFC2E
S1132F70013518F805001F28BAD0BD42F6DBB7E7C3
S1132F80002F7FF776AF194C8AE7194CD7E7194C15
S1132F90D5E7194CD3E700BF76680000A6620000AD
S1132FA0E9670000036800006F6800005C680000C7
S1132FB039680000266800001468000005680000F5
S1132FC055680000FD6700004E6800004668000078
S1132FD0426800002F680000256800003A6800007D
S1132FE0306800001B6800000B680000F1670000F7
S1132FF0546800004D680000FC6700005A68000037
S113300010B50446236803B910BD237A13B92046CA
S1133010FFF708FF0C34F5E77047704710B541B16E
S11330200A7932B901249C300C71FDF78BFE2046DD
S113303010BD0020FCE700002DE9F04F00F1090568
S113304091B0804628468B46009203931A9E002432
S113305001F044FE039B04901C602846346008AAD7
S113306007A900F041FC054658B9089801F036FE5E
S11330702C462F46039B1860D8F89C300193019B83
S11330801BB9204611B0BDE8F08F019B9B680293E9
S1133090002B6BD00835454415F8013F202B11D087
S11330A000250C236B43029AD15802EB0309002933
S11330B056D0079BBB4253DB99F8083033B105F176
S11330C0010A33E0336801333360E5E73368D8F845
S11330D09420D21A039B1A6010AB03EB870353F8B6
S11330E0200C059301F002FE82460028E7D1D9F8AE
S11330F0000001F0F3FDD9F804308446197BFE2961
S113310018D1079A013ABA4214D01B680293059B5E
S113311053F8200C01F0E2FD3368013303443360BB
S1133120336808EB0302527A12B101375546B8E707
S11331300133F4E7D8F894203068121A624526DC8B
S1133140584601F0CBFD8246D9F8000001F0C6FDD7
S113315050447B280ED9244A00995846FDF725FE91
S1133160002308F1090204998B4233DB019B1B689D
S1133170019384E7D9F8002000995846FDF715FE1D
S11331801A4A009958460134FDF70FFE97E7FE29C5
S113319095D1079A02F1FF39B94590D16FF00B0729
S11331A04FF00C0A1B6807FB04370AFB04F3FA58B8
S11331B02AB9049B4F463360039B1A60D0E70099F9
S11331C05846FDF7F2FD094A00995846FDF7EDFD12
S11331D00134EAE712F8011B19B94FF0200102F893
S11331E0011C0133BFE700BF64680000106B0000DE
S11331F02DE9F047002486B0DDE90E861C60824686
S1133200894688F8004011683470164817461D46F0
S11332108DF81740FDF7DCFD18B901242B68013344
S11332202B600020DAF89CA0BAF1000F05D10CB194
S11332300123337006B0BDE8F087DAF8080068B1FE
S11332404B46CDE90286CDE900750DF11702002148
S1133250FFF791FD9DF81730002BE8D1DAF800A0B4
S1133260E2E700BF5F6800002DE9F041A2B0054627
S11332700AAA084603A900F037FB0446B0B90DF1C9
S11332800A0301930DF10B038DF80A0000930AAAB7
S113329004AB03A92846FFF7ABFF9DF80A20B2B19F
S11332A058B19DF80B302BB1FFF7BCFD204622B07E
S11332B0BDE8F081FFF7A4FEF8E7D5F89C50002D97
S11332C0F4D0A86808B1FFF79BFE2D68F7E700B3B8
S11332D0466812AB06F10C081AAF01930097049BE1
S11332E00AAA03994046FFF7C9FC04460028DDD129
S11332F0039B05A8CDE90637049B0595CDE908385D
S1133300FFF78AFE05A83368984705A8FFF785FEEE
S1133310CCE72D24CAE72DE9F04100F1A8046FF0B1
S1133320A7050026A0462D1A404601F0D7FC2F1908
S1133330B84202D83046BDE8F08114F8013B002BB6
S1133340F8D00A2B08BF0136EEE7F8B500250D606A
S11333501560D0F8A83204460F4616460BB9002073
S1133360F8BDA83001F0BAFC0028F8D001202B46A3
S1133370D4F8A822904210D3B3F5007F12D30120D1
S1133380EEE73D68E21801353D60356801330135EB
S1133390356092F8A8200A2A02D0B3F5007FF0D352
S11333A00130E5E7E21892F8A8200A2AE7D0002ABB
S11333B0E5D03168013301313160DDE710B5D0F873
S11333C08C2004460021093001F076FC0023C4E976
S11333D0243310BD2DE9F0470446ADF5447D04AE19
S11333E08022002130460DF1080801F065FCCDF87B
S11333F0008003AB802231462046FFF71DFE0128E2
S11334003CD1304601F06AFC0746039AD8F80030F4
S1133410BA421CDB002223443B445A72D4F89090F5
S1133420039DD8F80030D4F890202B444B4514DC8D
S1133430D4F894107B1B19441344C4F89410C4F8B2
S11334409030BD4215DB0DF5447DBDE8F087991839
S1133450B05C214448720132DAE7A318587A00F0CC
S113346016FAD4F8903009F101090133C4F8903008
S1133470D6E7705D00F00BFA0135E2E7E3DD24AF37
S11334808022002138460DF5887A01F015FC4FF4AE
S113349000720021504601F00FFC4FF00109002397
S11334A0F55C8DBB30464AF8293001F017FC2B46F9
S11334B0F15C43AD55F8042F82422ED1F954013307
S11334C09945F5DAD4F89050039BAB422CDC254A9D
S11334D0314604F10903244800F0E5F9384601F0C7
S11334E0FDFB039D06462A46D8F80000B242D4F8F4
S11334F0943026DB1C4400236372B542A3DA785D62
S113350000F0C5F90135F8E7202D03F1010304BFEC
S11335104AF8293009F10109C2E73244D25C8A42EF
S1133520C8D00022FA54CDE7D4F8903001352344B2
S1133530587A00F0ACF9D4F890300133C4F89030E4
S1133540C2E7811817F802C0214481F809C0D4F8F1
S1133550901001330131C4F89010C4F89430013252
S1133560C4E700BF4067000069680000F7B504467F
S113357000F1090500F1A806284601F0AFFB074653
S1133580304601F0ABFB0137C0F50070874220D80C
S1133590284601F0A3FB01303718304601F09EFBAA
S11335A03146421C384601F06EFB284601F096FB7A
S11335B029460246304601F05BFB284601F08EFBAB
S11335C00A23204480F8A8300023C4F8A83203B0AA
S11335D0F0BD2046FFF79FFE01AAC4F8A802694681
S11335E02046FFF7B2FE0022009B234483F8A82064
S11335F0C2E700002DE9F047D0E924470546884694
S1133600002295F89830012B07D1B8F10A0F06D1A2
S1133610002085F89800BDE8F08700F29A80B8F1A0
S11336201B0F4FF0000603D1022385F8983049E0C0
S1133630B8F10D0F0DD1012385F898300D2000F05D
S113364026F90A2000F023F900230120C5E92433D8
S1133650E1E7B8F1080F05F1090985F8986040F031
S1133660AA80002C2DDDBC420FD1404600F00FF99A
S1133670202000F00CF9013C404600F008F9013F1D
S113368009F80460C5E924471CE0FBDA013C404624
S113369000F0FDF809EB0408611C3A1B494440465C
S11336A001F0F1FA09F8076041464A48013F00F089
S11336B0FAF83E46A642E5DD082000F0E8F8013EAF
S11336C0F8E7DFD10020A6E7002FFBDDBC42F9DAE2
S11336D009EB0408611C49443A1B404601F0D3FA43
S11336E009F8076041463C4800F0DDF80820013F36
S11336F000F0CDF8BC42F9D1D5F89430013BC5F8BF
S11337009430DFE7D5F88C30013BBB42DADDBC42B4
S113371009EB040604F1010A0EDA3A1B314609EBFF
S11337200A0001F0B0FA304600F0BDF80820013F6D
S113373000F0ADF8BC42F9DD404686F80080D5F8CB
S11337409430C5F890A00133C5F8943000F09FF888
S1133750B8E7022B07D1B8F15B0F01D1032364E76B
S113376085F898204DE7032BACD1A8F1410885F8E2
S11337709820B8F1030FA5D8DFE808F002070A166D
S11337800121284600F02AF89CE74FF0FF31F8E7C2
S1133790BC4297DA2C44607A00F079F8D5F890307E
S11337A00133C5F890308DE7002C8BDD013CC5F862
S11337B090400820CAE7B8F17F0F85D0B8F10A0F0E
S11337C03FF43CAFB8F1090F9CD12846FFF702FE45
S11337D078E700BF726800007768000073B50C4694
S11337E00546FFF798FD631C19D1D5F8A8421CB112
S11337F0013CC5F8A8420124D5F8A8626EB35CBBAD
S1133800D5F8A8324BB101AA69462846FFF79DFDB9
S113381018B1009C019BA34222D802B070BD012CB8
S1133820FBD1D5F8A8328342F7D20133C5F8A832C8
S1133830E2E7082000F02BF8202000F028F8082008
S113384000F025F80136204601F048FAB042F0D8DD
S11338502846FFF7B3FDD3E7002605F10904F2E794
S11338602B1993F8A8102846FFF7C4FE0134D1E7BA
S113387007B500200DF1070100F07EF920B99DF88D
S1133880070003B05DF804FB4FF0FF30F9E710B513
S1133890C1B20446002000F064F900280CBF2046A1
S11338A04FF0FF3010BD0FB407B504A951F8040B55
S11338B0019101F019FC002003B05DF804EB04B0A1
S11338C0704710B54C1C0B460119045D222C03D023
S11338D07B2C01D05C2C05D1D21A184401F0D3F909
S11338E0012010BD0020FCE72DE9F84F05468B466A
S11338F0904601F0F3F92B4606461A4611785C1BF4
S1133900202903F10103F8D001234FF000096FF0DF
S1133910404AC8F80020CBF80030A64201D8002065
S113392014E02F5D29197B2F12D0222F2ED1DBF822
S11339300030621C53442A4448F82320012C09D93E
S113394011F8013C13F0DF0F04D02120BDE8F88FFB
S11339507D27F3E701342B5D2A19BB4208D1537844
S113396013F0DF03F1D1222F00D113700134D4E717
S11339705C2B07D1324621462846FFF7A2FF0028D8
S1133980E3D0013E0134A642E5D8DEE75C2F08D13E
S1133990324621462846FFF794FF0028D5D0013E41
S11339A0E4E7202FE2D1631C9E4281F80090DDD928
S11339B0EA18EB5C202BD9D0DBF80030072B05DCB0
S11339C048F823200133CBF80030CFE71E20BDE7B1
S11339D007B56B46054A1068516803C36846FEF78D
S11339E001FB002003B05DF804FB00BF7B6800000E
S11339F04FF0402213B50024536F684643F001038F
S1133A00536700948DF80440FEF7A8FA204602B0EC
S1133A1010BD000070B586B001AA1546114B03F124
S1133A201006144618685968083303C4B342224682
S1133A30F7D14FF6FF7219889B782180A3700A4B47
S1133A400A481B88934208BF8C23DBB28DF80D30E3
S1133A508DF80E30FDF750F92846FDF753FE00208F
S1133A6006B070BD836800000001E00F00F0490259
S1133A701FB50B4A01AB1068516803C31189927AD0
S1133A8019809A70192301A88DF80530FDF72CFFD1
S1133A906420FDF78DFF002005B05DF804FB00BF36
S1133AA0966800006FF00402502110B50A480B4CD0
S1133AB012F0800FD3B21BBF03F00F03043BA31813
S1133AC01B1802F101020CBF83F800131976402A77
S1133AD0EED1002010BD00BF00ED00E000E100E0E9
S1133AE010B50446FEF7BCF9024B1C60FEF7BCF9A6
S1133AF0002010BDAC15002010B5FEF7B1F9034B42
S1133B001C68FEF7B1F9204610BD00BFAC150020BB
S1133B1070B50C46154610B9FFF7EEFF38B143688F
S1133B202BB12A462146BDE870400068184723207F
S1133B3070BDF7B50E4617461C4638B9FFF7DCFFD3
S1133B4004B901AC20B9232003B0F0BD03B901AC22
S1133B508568002DF7D023463A4631460068A847C9
S1133B60F2E707B502AB03F8011D01221946FFF77E
S1133B70CFFF03B05DF804FB00230122FFF7D9BF98
S1133B800EB477B507AB53F8046B05460193B0B98F
S1133B90FFF7B2FF044605463046019901F0A4FA46
S1133BA0AC42064602D02046FFF79AFF002ED4BF4F
S1133BB03720002003B0BDE8704003B07047FFF722
S1133BC09BFF85420446E7D02846FFF789FFE3E7D9
S1133BD000207047FEE74FF4005300204B6070470D
S1133BE0012070470020704707B5002002AB43F85E
S1133BF0040DFFF79EFF0198002808BF4FF0FF3027
S1133C0003B05DF804FB000010B500201446FFF774
S1133C107FFF18B1BF210248FDF7E0F9204610BD2F
S1133C20A168000080F82010704790F820007047C9
S1133C302DE9F8430026044690461D461E604F1E9B
S1133C402B68434506D32B68002B0CBF1B20002098
S1133C50BDE8F883FEF70BF9D4F81490FEF70DF9DC
S1133C60B9F1000FEFD0E368A269D35C07F8013F14
S1133C70E368E26901339342E36008BFE660FEF75C
S1133C80F6F86369013B6361FEF7F7F86368204661
S1133C9098472B6801332B60D2E790F8203070B539
S1133CA005460C468E18ABB1B44201D1002070BD5C
S1133CB023780A2B03D12B680D21284698472B68BB
S1133CC014F8011B28469847EEE72B6814F8011BEB
S1133CD028469847A642F8D1E8E770B50446056837
S1133CE0FFF70AFF844202D10020FFF7F9FE95F99D
S1133CF02130002B11DB012203F01F015B099B0023
S1133D0003F160438A4003F56143C3F88021C3F89B
S1133D108020BFF34F8FBFF36F8F00232846C4E981
S1133D200033A360C4E90433AB68BDE870401847AE
S1133D30F8B51F46536805460C461646002B36D088
S1133D409368002B35D024220021204600F0B4FFD4
S1133D507368194AA361B368E361337B276084F80D
S1133D602030069B6360079BA36096F9003084F8BB
S1133D7021306A60114A002BAA60114A2C602A6122
S1133D80104A6A61104AEA600CDB012203F01F0149
S1133D905B099B0003F160438A4003F56143C3F868
S1133DA080211A602846FFF79BFE0020F8BD2220E0
S1133DB0FCE72120FAE700BF9B3C0000313C0000F7
S1133DC0253C00002B3C0000DB3C00004269C0693C
S1133DD082422CBF002001207047000038B54269A0
S1133DE0C36904469A420D4604D34FF4AE710948A0
S1133DF0FDF7F4F82369A269D55462692369013295
S1133E006261E26901339342236104BF00232361A9
S1133E1038BD00BF23690000426AD36C43F0040339
S1133E20D364704710B50446426A93695B06FCD5B7
S1133E30002394F82B101A4694F82A00FEF762F92E
S1133E40002394F82D101A4694F82C00FEF75AF922
S1133E5094F832303BB1002394F82F101A4694F8AA
S1133E602E00FEF74FF994F832303BB1002394F85A
S1133E7031101A4694F83000FEF744F9606A0021C4
S1133E80FEF73CFC208D0021FDF716FA002010BD42
S1133E9008B5406AFEF722FD002008BD2DE9FF4168
S1133EA001261C46564B0A9D0193564B904600939F
S1133EB00A46CDE90266544B2946FFF739FF074607
S1133EC0002877D1236831466B62A3883A202B857A
S1133ED0E37985F82B30A37985F82A30637A85F85D
S1133EE02D30237A85F82C30E37A85F82F30A37AA5
S1133EF085F82E30637B85F83130237B85F83030AC
S1133F00FDF7DAF933460422E179A079FEF7FAF8ED
S1133F1033460222617A207AFEF7F4F83146A0880B
S1133F20FDF7CAF9414688F800702068FEF746FCA0
S1133F301422A37B5B0103F1804303F57033C3F8C0
S1133F401C26E179A27942EA0142C3F83426617A57
S1133F50227A42EA0142C3F82C2685F8327098F896
S1133F601830032B49D8DFE803F01A022943012350
S1133F7085F83230002500230222E17AA07AFEF788
S1133F80C1F8E37AA27AA17B42EA03421F4B4901BA
S1133F905A5041F25C0304212268D1508DB942F297
S1133FA04803042220680521C250C36C1343C36430
S1133FB0FEF7A4FB384604B0BDE8F081022385F87F
S1133FC0323000230422617B207BFEF79BF802251C
S1133FD041F21C61A27B0E4B03EB42104550607B07
S1133FE0217BB13241EA004103EB42139960D6E7E9
S1133FF0032385F832300125BDE72327DAE700BF24
S1134000253E0000193E0000913E000024D60340E6
S113401000C00340436A10B59B6904461B0610D5D3
S1134020FFF7D4FE40B1606AFEF752FC0146204619
S1134030BDE81040FFF7D2BE626AD36C23F00403DC
S1134040D36410BD08B5FCF757FDFCF785FDFCF7FC
S113405085FDFCF78AFDBDE80840FCF787BD08B57F
S1134060FCF786FDFCF785FDFCF785FDBDE80840FF
S1134070FCF782BD10B50446FCF722FE4FF47A73B8
S1134080B0FBF3F05C43074BB3FBF0F0B4FBF0F48C
S11340900320B4FBF0F018B1BDE8104000F008B8FC
S11340A010BD00BF40420F000000000000000000EF
S11340B0013800D0FCE7704781F0004102E000BF06
S11340C083F0004330B54FEA41044FEA430594EAD4
S11340D0050F08BF90EA020F1FBF54EA000C55EA0F
S11340E0020C7FEA645C7FEA655C00F0E2804FEAE0
S11340F05454D4EB5555B8BF6D420CDD2C4480EAC2
S1134100020281EA030382EA000083EA010180EAF1
S1134110020281EA0303362D88BF30BD11F0004F3F
S11341204FEA01314FF4801C4CEA113102D0404275
S113413061EB410113F0004F4FEA03334CEA1333B0
S113414002D0524263EB430394EA050F00F0A780C8
S1134150A4F10104D5F1200E0DDB02FA0EFC22FAC3
S113416005F2801841F1000103FA0EF2801843FAB7
S113417005F359410EE0A5F120050EF1200E012AA8
S113418003FA0EFC28BF4CF0020C43FA05F3C018E6
S113419051EBE37101F0004507D54FF0000EDCF15F
S11341A0000C7EEB00006EEB0101B1F5801F1BD308
S11341B0B1F5001F0CD349085FEA30004FEA3C0C0C
S11341C004F101044FEA445212F5800F80F09A8002
S11341D0BCF1004F08BF5FEA500C50F1000041EB06
S11341E0045141EA050130BD5FEA4C0C404141EB0A
S11341F0010111F4801FA4F10104E9D191F0000F31
S113420004BF01460020B1FA81F308BF2033A3F1B3
S11342100B03B3F120020CDA0C3208DD02F1140CAA
S1134220C2F10C0201FA0CF021FA02F10CE002F1E5
S11342301402D8BFC2F1200C01FA02F120FA0CFCDE
S1134240DCBF41EA0C019040E41AA2BF01EB045127
S1134250294330BD6FEA04041F3C1CDA0C340EDC25
S113426004F11404C4F1200220FA04F001FA02F368
S113427040EA030021FA04F345EA030130BDC4F126
S11342800C04C4F1200220FA02F001FA04F340EA1B
S11342900300294630BD21FA04F0294630BD94F0CC
S11342A0000F83F4801306BF81F480110134013DB3
S11342B04EE77FEA645C18BF7FEA655C29D094EA24
S11342C0050F08BF90EA020F05D054EA000C04BFA2
S11342D01946104630BD91EA030F1EBF002100208D
S11342E030BD5FEA545C05D14000494128BF41F02C
S11342F0004130BD14F580043CBF01F5801130BD90
S113430001F0004545F0FE4141F470014FF000001A
S113431030BD7FEA645C1ABF194610467FEA655CCB
S11343201CBF0B46024650EA013406BF52EA03356D
S113433091EA030F41F4002130BD00BF90F0000F5B
S113434004BF0021704730B54FF4806404F1320497
S11343504FF000054FF0000150E700BF90F0000F50
S113436004BF0021704730B54FF4806404F1320477
S113437010F0004548BF40424FF000013EE700BF47
S113438042004FEAE2014FEA31014FEA02701FBFD7
S113439012F07F4393F07F4F81F06051704732F009
S11343A07F4208BF704793F07F4F04BF41F4002160
S11343B0704730B54FF4607401F0004521F00041BE
S11343C01CE700BF50EA010208BF704730B54FF048
S11343D000050AE050EA010208BF704730B511F049
S11343E0004502D5404261EB41014FF4806404F181
S11343F032045FEA915C3FF4D8AE4FF003025FEA07
S1134400DC0C18BF03325FEADC0C18BF033202EB8A
S1134410DC02C2F1200300FA03FC20FA02F001FAE4
S113442003FE40EA0E0021FA02F11444BDE600BF87
S113443070B54FF0FF0C4CF4E06C1CEA11541DBF36
S11344401CEA135594EA0C0F95EA0C0F00F0DEF801
S11344502C4481EA030621EA4C5123EA4C5350EAE6
S1134460013518BF52EA033541F4801143F4801337
S113447038D0A0FB02CE4FF00005E1FB02E506F0C8
S11344800042E0FB03E54FF00006E1FB03569CF01D
S1134490000F18BF4EF0010EA4F1FF04B6F5007F23
S11344A064F5407404D25FEA4E0E6D4146EB060695
S11344B042EAC62141EA55514FEAC52040EA5E501E
S11344C04FEACE2EB4F1FD0C88BFBCF5E06F1ED8C8
S11344D0BEF1004F08BF5FEA500E50F1000041EBFF
S11344E0045170BD06F0004646EA010140EA0200AC
S11344F081EA0301B4EB5C04C2BFD4EB0C0541EACE
S1134500045170BD41F480114FF0000E013C00F3E2
S1134510AB8014F1360FDEBF002001F0004170BD06
S1134520C4F10004203C35DA0C341BDC04F114041F
S1134530C4F1200500FA05F320FA04F001FA05F2AB
S113454040EA020001F0004221F0004110EBD37078
S113455021FA04F642EB06015EEA430E08BF20EAA4
S1134560D37070BDC4F10C04C4F1200500FA04F347
S113457020FA05F001FA04F240EA020001F00041D9
S113458010EBD37041F100015EEA430E08BF20EA4C
S1134590D37070BDC4F1200500FA05F24EEA020E94
S11345A020FA04F301FA05F243EA020321FA04F0C3
S11345B001F0004121FA04F220EA020000EBD3707A
S11345C05EEA430E08BF20EAD37070BD94F0000F7A
S11345D00FD101F00046400041EB010111F4801FAE
S11345E008BF013CF7D041EA060195F0000F18BF5F
S11345F0704703F00046520043EB030313F4801F9B
S113460008BF013DF7D043EA0603704794EA0C0F54
S11346100CEA135518BF95EA0C0F0CD050EA41066A
S113462018BF52EA4306D1D181EA030101F00041E7
S11346304FF0000070BD50EA410606BF104619460F
S113464052EA430619D094EA0C0F02D150EA01361B
S113465013D195EA0C0F05D152EA03361CBF10465C
S113466019460AD181EA030101F0004141F0FE41FB
S113467041F470014FF0000070BD41F0FE4141F47F
S1134680780170BD70B54FF0FF0C4CF4E06C1CEA7F
S113469011541DBF1CEA135594EA0C0F95EA0C0F34
S11346A000F0A7F8A4EB050481EA030E52EA0335EF
S11346B04FEA013100F088804FEA03334FF0805510
S11346C045EA131343EA12634FEA022245EA11153D
S11346D045EA10654FEA00260EF000419D4208BFEE
S11346E0964244F1FD0404F5407402D25B084FEA9B
S11346F03202B61A65EB03055B084FEA32024FF447
S113470080104FF4002CB6EB020E75EB030E22BFA3
S1134710B61A754640EA0C005B084FEA3202B6EB63
S1134720020E75EB030E22BFB61A754640EA5C0012
S11347305B084FEA3202B6EB020E75EB030E22BFA2
S1134740B61A754640EA9C005B084FEA3202B6EBA3
S1134750020E75EB030E22BFB61A754640EADC0062
S113476055EA060E18D04FEA051545EA16754FEAC4
S113477006164FEAC30343EA52734FEAC2025FEAE2
S11347801C1CC0D111F4801F0BD141EA00014FF071
S113479000004FF0004CB6E711F4801F04BF014342
S11347A00020B4F1FD0C88BFBCF5E06F3FF6AFAE5E
S11347B0B5EB030C04BFB6EB020C5FEA500C50F1EE
S11347C0000041EB045170BD0EF0004E4EEA113171
S11347D014EB5C04C2BFD4EB0C0541EA045170BD78
S11347E041F480114FF0000E013C90E645EA060EBC
S11347F08DE60CEA135594EA0C0F08BF95EA0C0FEA
S11348003FF43BAF94EA0C0F0AD150EA01347FF431
S113481034AF95EA0C0F7FF425AF104619462CE708
S113482095EA0C0F06D152EA03353FF4FDAE10466B
S1134830194622E750EA410618BF52EA43067FF4BC
S1134840C5AE50EA41047FF40DAF52EA43057FF44C
S1134850EBAE12E74FEA410212F5001215D211D560
S11348606FF47873B3EB625212D94FEAC12343F069
S1134870004343EA505311F0004F23FA02F018BFEB
S1134880404270474FF00000704750EA013005D1B4
S113489011F0004008BF6FF0004070474FF0000077
S11348A0704700BF53B94AB9002908BF00281CBF8C
S11348B04FF0FF314FF0FF3000F07CB9ADF1080C40
S11348C06DE904CE00F006F8DDF804E0DDE902232A
S11348D004B070472DE9F0478C46089D04468A468B
S11348E0002B4AD18A42174662D9B2FA82F64EB1F7
S11348F0C6F1200E01FA06F3B740B44020FA0EFECA
S11349004EEA030A4FEA1748230C1FFA87F9BAFB49
S1134910F8FE08FB1EAA0EFB09F243EA0A439A4278
S11349200BD9FB180EF1FF312CBF012000209A4255
S113493002D9002800F02A818E469A1AA3B2B2FB4B
S1134940F8F008FB102200FB09F943EA0244A145F0
S113495007D93C1900F1FF3302D2A14500F21081BE
S11349601846A4EB090440EA0E4000211DB1F440AE
S11349700023C5E90043BDE8F0878B4208D9002D28
S113498000F0F2800021C5E9000C0846BDE8F0877C
S1134990B3FA83F100294ED16345C0F0E880824226
S11349A040F2E5800846002DE5D0C5E9004AE2E77B
S11349B002B9FFDEB2FA82F6002E40F099808B1A1B
S11349C04FEA124E1FFA82F801214FEA144CB3FB4E
S11349D0FEF20EFB123008FB02F94CEA004CE145F2
S11349E008D917EB0C0C02F1FF3302D2E14500F2B7
S11349F0CA801A46ACEB090CA3B2BCFBFEF00EFB5A
S1134A0010CC08FB00F843EA0C44A0450ED93C192D
S1134A1000F1FF332CBF4FF0010C4FF0000CA04508
S1134A2003D9BCF1000F00F0A8801846A4EB0804D9
S1134A3040EA02409AE7C1F120048B4002FA01FEE9
S1134A400CFA01F6E24020FA04F72CFA04FC00FA0E
S1134A5001F813433E431F0C320C1FFA83F9BCFBCD
S1134A60F7F007FB10CC00FB09FA42EA0C4CE245D4
S1134A7008D913EB0C0C00F1FF3202D2E24500F22C
S1134A8089801046ACEB0A0CB6B2BCFBF7FA07FB04
S1134A901ACC0AFB09F946EA0C42914506D99A1840
S1134AA00AF1FF3601D291457AD8B2464AEA00406B
S1134AB0A2EB0902A0FB0E67BA42B446B94602D380
S1134AC007D1B04505D2B6EB0E0C67EB03030138F2
S1134AD09946002D6BD0B8EB0C0362EB090202FA85
S1134AE004F4CB40CA4000211C43C5E9004242E71C
S1134AF0B740C6F1200201FA06F3B44021FA02FCE1
S1134B004FEA174E20FA02F21FFA87F8BCFBFEF1B7
S1134B101A430EFB11CC01FB08F0130C43EA0C4CB6
S1134B20604507D917EB0C0C01F1FF3301D2604546
S1134B3033D81946ACEB000C92B2BCFBFEF00EFB72
S1134B4010CC00FB08F342EA0C4C634507D917EB81
S1134B500C0C00F1FF3201D2634525D81046ACEBB2
S1134B60030340EA014130E72946284603E7841A53
S1134B706CEB030301209A4615E702383C4455E7E1
S1134B8002383C44EDE6023ABC4433E7AEF1020E8F
S1134B903B44D2E602389C4474E70239BC44C9E77A
S1134BA0AAF1020A1A4481E70238BC44D7E729462D
S1134BB0E1E600BF704700BF08B5074B044613B1D8
S1134BC0002100E000BF054B1868836A03B19847D1
S1134BD02046FEF7FFFF00BF000000009C690000B4
S1134BE070B50D4E00250D4CA41BA410A54209D18F
S1134BF00B4E00250B4C01F03FFBA41BA410A54257
S1134C0005D170BD56F8253001359847EEE756F8C2
S1134C10253001359847F2E71012002010120020C9
S1134C201012002014120020D0F8EC00704700008D
S1134C30044B054A1B681B6A002B08BF1346D3F8B4
S1134C40EC0070473C100020A010002082B001B995
S1134C5001A942B14BB113780B601278101C18BF34
S1134C60012002B070471046FBE76FF00100F8E73F
S1134C70431E0A4410B5914200D110BD11F8014BF6
S1134C8003F8014FF7E7884201EB020310B507D898
S1134C90421E99420AD011F8014B02F8014FF8E77D
S1134CA08342F5D98118D21AD34200D110BD13F82A
S1134CB0014D01F8014DF7E702440346934200D148
S1134CC0704703F8011BF9E710F8012B11F8013BB9
S1134CD0012A28BF9A42F7D0D01A7047034613F826
S1134CE0012B002AFBD1181A0138704710B56AB19C
S1134CF00139841810F8013B11F8012F934203D1B4
S1134D00A04201D0002BF5D1981A10BD1046FCE743
S1134D102DE9F0478046894692461E460F463D4699
S1134D20089815F8014BFFF77FFF2044437813F0F0
S1134D30080333D12D2C33D1BD1C7C780122002EE5
S1134D405ED0102E09D1302C07D12B7803F0DF036D
S1134D50582B50D16C7810260235002A4FF00007EA
S1134D6014BF4FF000416FF000413846B1FBF6FC30
S1134D7006FB1C1EA4F13003092B17D81C46A642BF
S1134D8023DD7B1C07D084451CD301D1A64519DB48
S1134D9000FB0640012715F8014BEBE72F46BEE761
S1134DA02B2C1A4604BFBD1C7C78C8E7A4F1410330
S1134DB0192B01D8373CE2E7A4F16103192B04D87D
S1134DC0573CDCE74FF0FF37E5E77B1C08D1222393
S1134DD00846C8F80030BAF1000F07D1BDE8F087E3
S1134DE002B14042BAF1000FF8D00FB105F1FF391A
S1134DF0CAF80090F2E73024002EAED10826ACE7C2
S1134E00302CA2D00A26A8E7084B37B51C68084DF9
S1134E10236A002B08BF2B46009313460A4601461B
S1134E202046FFF775FF03B030BD00BF3C100020E3
S1134E30A01000202DE9F04F8A4689B093461F4602
S1134E40884607904546129815F8014BFFF7ECFE8B
S1134E502044467816F0080655D12D2C55D108F17A
S1134E60020598F801400126002F00F09180102FD0
S1134E700AD1302C08D12B7803F0DF03582B40F0F3
S1134E8081806C7810270235002E45D14FF0FF3910
S1134E906FF000483A46FB1748464146CDE90223E5
S1134EA0FFF700FD002396460022CDE9040100210E
S1134EB0CDE90012A4F1300CBCF1090F31D86446DD
S1134EC0A7423FDD591C1BD0DDE90401DDE90023C5
S1134ED0994208BF904232D301D1A6452FDB0098F6
S1134EE0DDE901134B43039900FB01330299A1FB54
S1134EF000010219194441EBE473CDE900230123B5
S1134F0015F8014BD6E7A8469CE72B2C04BF08F103
S1134F10020598F80140A7E74FF000094FF0004858
S1134F20B8E7A4F1410CBCF1190F01D8373CC7E72D
S1134F30A4F1610CBCF1190F04D8573CC0E74FF041
S1134F40FF33DDE75A1C0CD12223079A1360CDE905
S1134F500098BBF1000F10D1DDE9000109B0BDE8F4
S1134F60F08F36B1DDE90012494262EB4202CDE92D
S1134F700012BBF1000FEFD00BB105F1FF3ACBF8F3
S1134F8000A0E9E73024002F7FF47EAF08277BE7F9
S1134F90302C3FF470AF0A2776E70000084B37B592
S1134FA01C68084D236A002B08BF2B460093134648
S1134FB00A4601462046FFF73DFF03B030BD00BF5F
S1134FC03C100020A01000202DE9F04780468946BF
S1134FD092461E460F463D46089815F8014BFFF7CA
S1134FE023FE2044437813F0080330D12D2C30D114
S1134FF0BD1C7C780121002E5CD0102E09D1302CF0
S113500007D12B7803F0DF03582B4ED16C78102690
S113501002354FF0FF320023B2FBF6F206FB02FC2E
S113502018466FEA0C0CA4F13007092F17D83C4638
S1135030A64223DD002B1EDB82421CD301D1A445F2
S113504019DB00FB0640012315F8014BEBE72F4663
S1135050C1E72B2C194604BFBD1C7C78CBE7A4F117
S11350604107192F01D8373CE2E7A4F16107192F52
S113507004D8573CDCE74FF0FF33E5E7002B09DAAF
S113508022234FF0FF30C8F80030BAF1000F07D1E7
S1135090BDE8F08701B14042BAF1000FF8D00BB17E
S11350A005F1FF39CAF80090F2E73024002EB0D1A0
S11350B00826AEE7302CA4D00A26AAE7084B37B559
S11350C01C68084D236A002B08BF2B460093134627
S11350D00A4601462046FFF777FF03B030BD00BF04
S11350E03C100020A0100020094B70B51C68054638
S11350F00E4624B1A36913B9204600F059F833468B
S11351002A46A1682046BDE8704000F05FB900BFA0
S11351103C10002049B1FF2A8DBF8A230A70012068
S1135120036088BF4FF0FF307047084670470000A7
S1135130002310B504468360818119464366C28109
S113514008228361C0E90033C0E904335C30FFF70F
S1135150B3FD054B24626362044BA362044BE36218
S1135160044B236310BD00BF295900004B590000B4
S113517083590000A7590000014900F085B800BF19
S11351807D5C000070B54A1E68250E46554305F146
S1135190740100F097F8044640B1002105F168025B
S11351A0C0E900160C30A060FFF786FD204670BDF4
S11351B0836910B5044633BB0365134AC0E912334F
S11351C0124B82621B68984204BF0123836100F082
S11351D01FF86060204600F01BF8A060204600F035
S11351E017F80022E06004216068FFF7A1FF0122A4
S11351F00921A068FFF79CFF02221221E068FFF753
S113520097FF0123A36110BD795100009C69000040
S1135210F8B51B4B07461E68B36913B93046FFF750
S1135220C7FF4836D6E90134013B03D5336833B1AF
S11352303668F7E7B4F90C506DB16834F4E704212B
S11352403846FFF79FFF30600028F1D10C23044655
S11352503B602046F8BD0B4B082265662946A560D5
S113526004F15C00C4E90055C4E90335C4E90555FB
S1135270FFF722FDC4E90D55C4E91255E9E700BF63
S11352809C6900000100FFFF2DE9F8438046894630
S113529000F14804002614B93046BDE8F883D4E987
S11352A00175013F01D52468F5E7AB89012B07D9C6
S11352B0B5F90E30013303D029464046C8470643AA
S11352C06835EEE770B5CD1C064625F003050835B4
S11352D00C2D38BF0C25002D01DBA94203D90C236A
S11352E03360002070BD00F077FD214A1468214628
S11352F091B9204C23681BB9304600F005FB2060AF
S11353002946304600F000FB431C24D10C233046D0
S1135310336000F062FDE4E70B685B1B18D40B2BD1
S11353200FD9CC180B60CD50304600F056FD04F177
S11353300B00231D20F00700C31AD3D05A42E250B9
S1135340D0E78C424B681ABF63600C461360EBE7EE
S11353500C464968CCE7C41C24F00304A04205D0E1
S1135360211A304600F0D0FA0130CFD02560DBE7B7
S1135370B0150020B41500209368013B002B936006
S113538010B408DA9469A34201DB0A2903D15DF859
S1135390044B00F00DBB1368581C106008461970CC
S11353A05DF8044B7047F8B506460F461446D51809
S11353B0AC4201D1002007E03A4614F8011B304604
S11353C0FFF7DAFF431CF3D1F8BD00002DE9F04FDD
S11353D09DB00C4617460646039318B183690BB972
S11353E0FFF7E6FE7B4B9C4257D17468A3891807EC
S11353F05DD52369002B5AD000234FF0010B09938C
S113540020238DF8293030238DF82A30B8464546BC
S113541015F8013B0BB1252B54D1B8EB070A0BD07F
S113542053463A4621463046FFF7BDFF013000F0AF
S1135430C280099B5344099398F80030002B00F074
S1135440BA8000234FF0FF32049307938DF8533052
S11354501A93CDE90523A84605225F4818F8011BD5
S113546000F0ACFC049B78BBD90644BF20228DF825
S113547053201A0744BF2B228DF853202A782A2A56
S11354802AD0A846079A00200A25414611F8013B74
S1135490303B092B69D960B324E0504B9C4201D1C5
S11354A0B468A3E74E4B9C4208BFF4689EE72146CC
S11354B0304600F0E1FA00289ED04FF0FF301DB0D6
S11354C0BDE8F08FA846A2E7434A4546801A0BFA86
S11354D000F018430490BEE7039A111D1268002AD5
S11354E0039101DB079204E0524243F00203079266
S11354F0049398F800302E2B0ED198F801302A2B03
S113550038D1039B08F102081A1D1B68002B039273
S1135510B8BF4FF0FF330593324D032298F80010C3
S1135520284600F04BFC40B14023401B08F1010821
S113553003FA00F0049B0343049398F80010062236
S1135540294808F101078DF8281000F037FC0028DD
S113555037D0264B1BBB039B073323F007030833C9
S11355600393099B4B44099350E705FB0232012046
S113557088468AE7002308F101080A25194605939D
S1135580404610F8012B303A092A03D9002BC3D026
S11355900591C1E705FB012101238046F0E703AB38
S11355A0224604A930460093114B00E000BFB0F13D
S11355B0FF3F8146D5D1A3895B063FF57EAF0998AD
S11355C07DE703AB224604A930460093084B00F064
S11355D089F8ECE7CC6A00000C6B0000EC6A000070
S11355E0AC6A0000126B0000166B000000000000A3
S11355F0A75300002DE9F04791461F468A680646E6
S11356000B690C46DDF820809342B8BF1346C9F8F5
S1135610003091F8432012B10133C9F800302368F7
S1135620990642BFD9F800300233C9F80030256822
S113563015F0060507D104F1190AE368D9F800202A
S11356409B1AAB422BDC94F843302268003318BF1A
S11356500123920630D404F1430239463046C04750
S1135660013023D023681A3454F80E5C03F0060387
S1135670D9F800204FF00009042B54F8123C08BF5D
S1135680AD1A54F80A2C14BF002525EAE575934297
S1135690C4BF9B1AED184D451AD1002008E0012320
S11356A0524639463046C047013003D14FF0FF30EF
S11356B0BDE8F0870135C0E7E1185A1C30200233F9
S11356C0224481F8430094F8451082F84310C2E75D
S11356D00123224639463046C0470130E6D009F15D
S11356E00109D8E72DE9F04301F1430C0C46097E8A
S11356F085B0174606466E2998460C9A00F0B3808A
S113570022D8632936D00AD8002900F0B980582954
S113571000F0838004F1420584F8421032E06429E9
S113572001D06929F6D120681368050603F1040144
S11357302AD51B681160002B03DA2D225B4284F802
S113574043206F480A2239E0732900F09D8008D86D
S11357506F2920D07029DDD1236843F02003236012
S113576003E0752917D07829D4D17823654884F8C3
S1135770453055E0136804F14205191D1B6811609A
S113578084F8423001238CE01B6810F0400F116054
S113579018BF1BB2CFE713682568181D10602806D0
S11357A001D51B6802E06806FBD51B886F295448A5
S11357B014BF0A220822002184F843106568002DD2
S11357C0A560C0F29580216821F004012160002BBE
S11357D03DD1002D40F08E806546082A0BD1236808
S11357E0DB0708D5236962689A42DEBF302305F8D7
S11357F0013C05F1FF35ACEB05032361CDF80080D6
S11358003B4603AA21463046FFF7F4FE01304DD152
S11358104FF0FF3005B0BDE8F083394884F84510F7
S1135820136821681D1D1B6815600A060BD5CA077D
S113583044BF41F0200121601BB9226822F02002FC
S113584022601022B7E74D0648BF9BB2EFE76546DA
S1135850B3FBF2F102FB1133C35C05F8013D0B46C7
S11358600029F5D1B9E713682568181D616910602E
S113587028061B6801D5196002E06A06FBD5198069
S1135880002365462361B9E71368191D11600021DF
S11358901D686268284600F091FA08B1401B6060F8
S11358A063682361002384F84330A7E723692A4609
S11358B039463046C0470130AAD023689B0713D429
S11358C0E068039B9842B8BF1846A3E701234A4601
S11358D039463046C04701309AD00135E368039A0F
S11358E09B1AAB42F2DCEBE7002504F11909F5E75A
S11358F0002BACD1037804F1420584F842306CE704
S11359001D6B00002E6B000038B50023054C0546C6
S113591008462360FBF780FA431C02D1236803B1D5
S11359202B6038BDC015002010B50C46B1F90E101F
S113593000F0A2FA0028ABBF636DA3891B1823F4FF
S11359408053ACBF6365A38110BD2DE9F0411F46B0
S11359508B8905460C46DB05164605D50223002235
S1135960B1F90E1000F0B4F9A3893246B4F90E105F
S1135970284623F48053A3813B46BDE8F04100F060
S113598069B810B50C46B1F90E1000F0A1F9431C2A
S1135990A38915BF606523F4805343F48053A38126
S11359A018BFA38110BDB1F90E1000F0D3B80000E8
S11359B0F8B50E461446054618B183690BB9FFF7CE
S11359C0F7FB214B9C422AD16C68A369A360A3898D
S11359D01A072ED5236963B32369F6B220683746C4
S11359E0C01A6369834204DC2146284600F046F964
S11359F028BBA3680130013BA36023685A1C2260C2
S1135A001E706369834204D0A389DB0719D50A2E6B
S1135A1017D12146284600F031F990B10FE00B4B25
S1135A209C4201D1AC68D0E7094B9C4208BFEC68AA
S1135A30CBE72146284600F01FF80028CCD04FF0D1
S1135A40FF373846F8BD00BFCC6A0000EC6A00009E
S1135A50AC6A000038B50546064C084611460022DB
S1135A6022601A46FEF7D0F8431C02D1236803B122
S1135A702B6038BDC0150020324B70B51D6806463A
S1135A800C4625B1AB6913B92846FFF791FB2E4BA1
S1135A909C420FD16C68B4F90C309AB215072CD41F
S1135AA0D00611D40922326043F040034FF0FF3096
S1135AB0A3813EE0254B9C4201D1AC68EBE7244B2B
S1135AC09C4208BFEC68E6E7510712D5616B41B10F
S1135AD004F14403994202D0304600F07FF90023D8
S1135AE06363A38923F02403A381002363602369F0
S1135AF02360A38943F00803A38123694BB9A389D5
S1135B0003F42073B3F5007F03D02146304600F040
S1135B1015F9A28912F001030CD00023A360636974
S1135B205B42A361236953B9B4F90C3013F08000CC
S1135B30BAD170BD920758BF6369A360F2E7002031
S1135B40F7E700BF3C100020CC6A0000EC6A0000BC
S1135B50AC6A000038B50023054C054608462360AE
S1135B60FEF736F8431C02D1236803B12B6038BD1D
S1135B70C01500208A892DE9F041054610070C461E
S1135B8058D44B68002B05DC0B6C002B02DC002086
S1135B90BDE8F081E66A002EF9D0002312F48052A9
S1135BA02F68216A2B6032D0606DA3895A0705D50E
S1135BB06368C01A636B0BB1236CC01A00230246DE
S1135BC0E66A2846216AB047431CA38906D129689E
S1135BD01D2947D8284ACA40D60743D50022D904EC
S1135BE062602269226004D5421C01D12B6803B98A
S1135BF06065616B2F600029C9D004F144039942A8
S1135C0002D0284600F0EAF800206063C0E70123D0
S1135C102846B047411CC8D12B68002BC5D01D2B8A
S1135C2001D0162B01D12F60B1E7A38943F04003C3
S1135C30A381ADE70F69002FA9D093070E680F6009
S1135C400CBF4B690023A6EB07088B60B8F1000F6B
S1135C509DDD43463A46216A2846A66AB047002895
S1135C6006DCA38943F040034FF0FF30A3818FE7A4
S1135C700744A8EB0008E9E70100402038B50B69A8
S1135C8005460C46DBB118B183690BB9FFF790FAEE
S1135C900C4B9C4209D16C68B4F90C307BB12146A1
S1135CA02846BDE83840FFF765BF074B9C4201D149
S1135CB0AC68F1E7054B9C4208BFEC68ECE70020B8
S1135CC038BD00BFCC6A0000EC6A0000AC6A00007A
S1135CD038B50546064C08461146002222601A468D
S1135CE0FDF780FF431C02D1236803B12B6038BD4C
