S0150000656D7074795F4972546865726D6F2E73333727
S1130000001000201D0C00001B0C00001B0C000045
S11300101B0C00001B0C00001B0C00001B0C000040
S11300201B0C00001B0C00001B0C00001B0C000030
S11300301B0C00001B0C00001B0C00001B0C000020
S11300401B0C00001B0C00001B0C00001B0C000010
S11300501B0C00001B0C00001B0C00001B0C000000
S11300601B0C00001B0C00001B0C00001B0C0000F0
S11300701B0C00001B0C00001B0C0000F10B00000B
S1130080FD0B00001B0C00001B0C00001B0C0000EF
S11300901B0C00001B0C00001B0C00001B0C0000C0
S11300A01B0C00001B0C00001B0C00001B0C0000B0
S11300B01B0C00001B0C00001B0C00001B0C0000A0
S11300C01B0C00001B0C00001B0C00001B0C000090
S11300D01B0C00001B0C00001B0C00001B0C000080
S11300E01B0C00001B0C00001B0C00001B0C000070
S11300F01B0C00001B0C00001B0C00001B0C000060
S11301001B0C00001B0C00001B0C00001B0C00004F
S11301101B0C00001B0C00001B0C00001B0C00003F
S11301201B0C00001B0C00001B0C00001B0C00002F
S11301301B0C00001B0C00001B0C00001B0C00001F
S113014010B5054C237833B9044B13B1044800E0CF
S113015000BF0123237010BD141200200000000012
S1130160A868000008B5034B1BB10349034800E02D
S113017000BF08BD0000000018120020A86800009D
S1130180154B002B08BF134B9D46A3F5803A002165
S11301908B460F461348144A121A05F0D7FC0F4B2E
S11301A0002B00D098470E4B002B00D0984700201E
S11301B0002104000D000D48002802D00C4800E086
S11301C000BF05F057FC2000290000F041F805F0BD
S11301D03DFC00BF000008000010002000000000EB
S11301E00000000014120020B015002000000000E0
S11301F00000000008B500F063F8BDE808400220E4
S113020000F041B830B585B002A9684600F020F985
S113021058B10B4804F0CCFD0A240A4D284603F0DB
S1130220B9FE013CFAD105B030BDDDE90023064832
S113023004F0BEFDDDE90223044804F0B9FDEBE758
S11302403C620000A086010054620000636200006A
S113025008B503F087FEFFF7CDFF03F090FEFFF72C
S1130260D1FFFAE707B543F201000DF1060100F0F2
S11302707BFB0028AABFBDF80600C0B2C0F3410052
S113028003B05DF804FB37B505460DF1060143F2F2
S1130290010000F069FBBDF80610044621F00601D8
S11302A041EA450189B243F20100ADF8061000F0BD
S11302B0ADFB0028B4BF0120E00F03B030BD000047
S11302C013B542F20B400DF1020100F04DFB48F270
S11302D00543BDF8022004469A4240F09C8001A9DF
S11302E043F6FF7000F040FBBDF80410002821F035
S11302F0010143F6FF70B4BF0124E40F00F086FB54
S11303000028B8BF01240DF1060143F6FF7000F088
S11303102BFB0028AABFBDF8060080B200F40070D1
S11303200128F0D00220FFF7AEFF3C4942F20C4016
S113033000F03EFB002803DA0124204602B010BD81
S1130340374942F20E4000F033FB0028F4DB354914
S113035042F2124000F02CFB0028EDDB324942F25D
S1130360104000F025FB0028E6DB304942F224402F
S113037000F01EFB0028DFDB2D4942F2264000F08E
S113038017FB0028D8DB2B4942F2284000F010FB71
S11303900028D1DB284942F22A4000F009FB00285A
S11303A0CADB264942F22C4000F002FB0028C3DBE2
S11303B0234942F22E4000F0D7FA0028BCDB214941
S11303C042F2814000F0D0FA0028B5DB1E4942F227
S11303D0824000F0C9FA0028AEDB1C4942F22F40EB
S11303E000F0C2FA0028A7DBFFF73CFF0328A4D0E3
S11303F00DF1060143F2010000F0B6FA00289CDB7F
S1130400BDF8061043F2010041F00601ADF80610F4
S113041000F0FCFA91E76FF005048EE75412002017
S11304204C120020501200205812002030120020DC
S113043034120020381200203C1200204012002008
S11304404412002046120020481200204A120020C4
S11304502DE9F04F8FB007460991FFF703FF0628F7
S11304600FD00DF1360143F2010000F07DFABDF822
S1130470361043F2010041F00801ADF8361000F0E7
S1130480C5FA0DF1360144F2050000F06DFA0028BA
S11304902EDB224BBDF836200DF1360144F2080064
S11304A01A8000F061FA002822DB1D4CBDF83630BA
S11304B00DA943F6FF70238000F056FA0028A046E9
S11304C016DB0DF1360143F6FF7000F04DFA0028FB
S11304D00EDBBDF8361043F6FF7021F0010100F089
S11304E095FA002804DB41F64C5414F1FF3401D290
S11304F0012032E20DA943F6FF7000F035FA00281E
S1130500F6DBBDF83400C307EFD5C0F3840001283F
S113051008D00228ECD14FF0010A05E05C1200205B
S11305205E1200204FF0020A44F2010900EB40047D
S113053004EB09000DF1360100B200F015FA0028B1
S1130540D6DB04F580400DF1360100B2BDF836501B
S113055000F00AFA0028CBDBBDF936300AEB4A0A70
S113056003FA85F3022593FBF5F3CF4E0AEB09005A
S11305700DF1360100B2338000F0F6F90028B7DB44
S11305800AF5804A0DF136010FFA8AF0BDF936906A
S113059000F0EAF90028ABDBBDF93640C34B4C440C
S11305A094FBF5F4B8F900001C8004F079FDC04B0D
S11305B0CDE90201B3F9000004F072FD0022BD4B45
S11305C004F002FFBC4BCDE90001B3F9000004F0D4
S11305D067FD0022B94B04F0CDFDDDE9002304F0F2
S11305E0C9FDDDE9022304F00FFC02460B46DDE9F8
S11305F0000104F0E9FE0022B14B04F0BBFDB14B55
S1130600CDE90401186804F04BFD0022AE4B04F060
S1130610B1FD05F049F804F043FD02460B46DDE95F
S1130620040104F0EFFBA94B824618688B4604F0E2
S113063037FD97A3D3E9002304F09CFD05F034F8BB
S113064004F02EFD02460B465046594604F0BCFE0B
S11306509F4B80461868894604F022FD00229A4B7D
S113066004F088FD05F020F804F01AFD02460B465C
S11306704046494604F0C8FB964B804618688946B4
S113068004F00EFD0022944B04F074FD05F00CF808
S113069004F006FD52465B4604F06CFD52465B4690
S11306A004F068FD02460B464046494604F0ACFBA4
S11306B0C7E90001B6F900004FF0050A204490FB99
S11306C0F5F004F0EDFC00227A4B04F07DFE834B40
S11306D00446B3F900000D4604F0E2FC0022774B17
S11306E004F048FDDDE9002304F044FDDDE90223C4
S11306F004F08AFB02460B462046294604F064FEB9
S113070000226F4B04F036FD04F0CEFF744B80469C
S1130710DDE90401D3F8009004F0C6FF04F0C0FC46
S1130720704B044618680D4604F0BAFC0022664B70
S113073004F020FD02460B462046294604F062FBE5
S1130740694B044618680D4604F0AAFC0022674B66
S113075004F010FD02460B462046294604F034FE00
S11307600022634B04F050FB624B0446B3F90000D3
S11307700D4604F095FC00225F4B04F0FBFC5F4B3C
S1130780CDE90001186804F08BFC002206460F46F0
S1130790574B2046294604F035FB02460B463046AB
S11307A0394604F0E7FC0022554B04F0E3FC554BBA
S11307B0CDE90201B3F9000004F072FC00224E4BB3
S11307C004F0D8FC504B06461868504A4FEAE07BC8
S11307D0430002FB0B330F46A0FB0201194404F053
S11307E09BFC02460B463046394604F0C3FC2AA360
S11307F0D3E90023CDE904012046294604F004FB93
S113080004460D4602460B4604F0B4FC22462B4631
S113081004F0B0FC22462B4604F0ACFC0024CDE9E5
S11308200601334D404604F03BFCCDE90A0148463D
S113083004F036FC002206460F462D4B204629467E
S113084004F0E0FA02460B463046394604F092FCC6
S113085000222B4B04F08EFC00222D4B04F0D4FA22
S1130860DDE9022304F0D0FADDE9042304F082FC7C
S11308700022284B04F07EFC09A3D3E9002304F0F2
S1130880A3FD02460B46DDE90A0104F09DFD43E0A9
S1130890684A9C2935FAAF3E666666666612714000
S11308A0000000205FA002426012002062120020BB
S11308B05C12002000002840441200200000503F39
S11308C000002041541200200000703F4C12002010
S11308D050120020581200200000303D4A1200201F
S11308E04012002034120020301200200000F03E9C
S11308F000003940481200200000103F3C12002044
S11309000000B03D461200203812002000E40B54D1
S11309100000F03F0000103DDDE9062304F074FA06
S113092041EC100B05F038FB05F036FB0CA3D3E9C2
S1130930002351EC100B04F065FADDE9002304F008
S113094061FA0AF1FF3A1AF0FF0A04460D467FF4F1
S113095069AF5046099BC3E900450FB0BDE8F08F6D
S1130960666666666612714010B50F4B88B00393D5
S113097003128DF8083002AB0493022301AA0C463B
S11309808DF8090003A90948ADF814300692ADF8B2
S11309901C3000F0F5FA9DF804209DF8053043EA78
S11309A00223238008B010BD7400040000800640B8
S11309B010B5144B88B0039303128DF8043001ABC7
S11309C004930223ADF8143002AB069304230C46BF
S11309D08DF8050003A90C48ADF81C3000F0D0FADE
S11309E09DF80A309DF808201B0643EA02239DF86F
S11309F0092013439DF80B2043EA0243236008B007
S1130A0010BD00BF740004000080064000B50E4B0A
S1130A1089B0039303128DF8083002AB04930223C8
S1130A200A0A8DF809008DF804208DF8051001AA32
S1130A3003A90648ADF814300692ADF81C3000F056
S1130A409FFA09B05DF804FB7400080000800640BA
S1130A507047000030B50A4C0A4B22680A4D1A60F0
S1130A600A4B85B02B600A4B019303F027F82B68DF
S1130A70029001A92068039301F056FF05B030BD30
S1130A800C100020AC150020A81500200010002038
S1130A907162000038B503F011F80546064C23686E
S1130AA0D3F8AC0202F0FEFF206801F04FFF2846A5
S1130AB0BDE8384002F0F6BF0C10002008B5032151
S1130AC0802000F0FBFF08214FF4C06000F0F6FF27
S1130AD008214FF4F06000F0F1FF08213E2000F0FF
S1130AE0EDFF08212D2000F0E9FF002008BD0000E3
S1130AF0144B10B51B68C3F30743012B10D1124BE1
S1130B004FF48022596E41F2640049034FF004040B
S1130B1058BF42F264011A500C48046058BF5A503E
S1130B2002F0A2FF00F075F802F034FF02F054FF67
S1130B3002F080FFFFF7C2FF02F03CFFBDE8104067
S1130B4000F05EB80080E00F0080004020200140EB
S1130B5000F00EB808B500F049F8BDE80840FFF70A
S1130B6079BF704770477047FFF794BF704770476D
S1130B7008B53A20012100F081FBBDE80840014896
S1130B8000F03CB91010002070B5144C92B00BADBD
S1130B900FCC0FC594E80700032385E8070003AED4
S1130BA08DF8443007AD04F10C031C340FCB86E8F8
S1130BB00F0094E80F0085E80F00094B0BAA00937F
S1130BC029463346074803F0F9F8044618B17A2158
S1130BD0054800F0E5F9204612B070BD84620000BB
S1130BE01C15002070150020C0620000FFF7CCBF68
S1130BF0014B186803F09EB970150020FFF7F8BF89
S1130C0008B501213A2000F039FBBDE80840FFF7A0
S1130C101FBF01213A2000F031BBFEE708B500F008
S1130C2013F8064A064B07498B4201D3FFF7A8FA8B
S1130C3052F8040F43F8040BF6E700BFAC68000059
S1130C400010002014120020044B054A9A60D3F8C7
S1130C50882042F47002C3F88820704700ED00E059
S1130C6000000000014B1868704700BF28100020E6
S1130C70084B1B6F03F00703022B04D0032B05D092
S1130C80012B05D0FEE7044B18687047034BFBE7C4
S1130C900348704700800040281000202C100020DA
S1130CA0002D310108B5FFF7E3FF054B1B6FC3F3BC
S1130CB003330133B0FBF3F0024B186008BD00BFEF
S1130CC000800040241000200048704700B4C40491
S1130CD0014B1868704700BF2C100020054B1860AA
S1130CE0054B1B6F03F00703032B01D1FFF7DABF9A
S1130CF0704700BF2C100020008000400020704787
S1130D0000487047002D31014FF4004070474FF404
S1130D107A707047014B1868704700BF301000208C
S1130D20002303607047000038B504460D4601B146
S1130D3018B93921034800F033F923682B60256082
S1130D4038BD00BFEE62000030B548B142B139B1E0
S1130D500346013A013912F8014F14B900221A70FE
S1130D6030BD1D1AA942F9D903F8014BF3E740B18C
S1130D700023C25C0AB1994201D11846704701337D
S1130D80F7E70346F9E74FF0FF31FFF7F0BF70B51F
S1130D900C461546064660B15AB151B1FFF7F3FF50
S1130DA0844206D9211A2A463044BDE87040FFF730
S1130DB0CBBF70BDF8B5F8B1F1B1461E4F1E16F8A1
S1130DC0014F04F07FFE2044437817F8015F03F0DD
S1130DD00303012B08BF203404F074FE2B4628447F
S1130DE0427802F00302012A08BF2033E01A02D13C
S1130DF03378002BE3D1F8BD0120FCE72DE9FF4750
S1130E00044618B92C21594800F0CAF82368584AF6
S1130E1093420AD0574A934200F0848042215348B7
S1130E2000F0BEF804B0BDE8F0872E20012100F0E8
S1130E3025FA01230A226179207901F045F9012379
S1130E400A22E179A07901F03FF909274FF001085E
S1130E50DFF82891484D267994F805A0002E63D038
S1130E60012E64D0022E64D0032E0CBF0C23002369
S1130E7023FA0AF3DA0704D440F2E131484600F0D9
S1130E808FF8302202FB065642F2100208FA0AF3E7
S1130E90B350642003F07EF8267994F805A0002E60
S1130EA049D0012E4AD0022E4AD0032E0CBF0C2367
S1130EB0002323FA0AF3DB0704D44FF48261484683
S1130EC000F06EF8302202FB065641F2100208FAD6
S1130ED00AF3B350642003F05DF8013FBBD12068EE
S1130EE0234B98422ED10323C5F890346279237999
S1130EF043EA0243C5F89434E279A37943EA02430E
S1130F00C5F8983401238DF800308DF80130E3687A
S1130F1069460293A3680193237C8DF80C3001F099
S1130F20BFF97FE72F2081E740F2FF13A0E71F23DB
S1130F309EE7FF239CE740F2FF13BAE71F23B8E7BD
S1130F40FF23B6E70B4B9842DCD10323C5F8A0344A
S1130F506279237943EA0243C5F8A434E279A37998
S1130F6043EA0243C5F8A834CCE700BF206300007D
S1130F700000014A0080064000C003405A6300009C
S1130F8038B5054601F0D2FA044C012801D1013CE0
S1130F9000D138BD284601F0B7F9F6E7E193040023
S1130FA0FEE70000054A1368DB06FCD44FF040233B
S1130FB0D3F88400C0F38110704700BF8440004020
S1130FC038B5124B0546D3F820310C4603F0030321
S1130FD0022B0BD0032B0DD0012B0FD1FFF742FEB8
S1130FE0052305B1286004B1237038BDFFF770FEF6
S1130FF00323F6E7FFF784FE0223F2E7044840F6F2
S11310002851FFF7CDFF00231846EAE7008000408F
S1131010C6630000F7B50024114B0194D3F8805146
S1131020074605F00305012D0E4607D0022D11D009
S113103040F644610B48FFF7B3FF04E0214601A8E2
S1131040FFF7BEFF0D240FB1019B3B6006B1347066
S113105003B0F0BDFFF754FE2C460190F3E700BF48
S113106000800040C663000038B5194B0546D3F82C
S113107024310C4603F00703013B052B20D8DFE89D
S113108003F0030F171B0B13FFF7ECFD052305B14A
S1131090286004B1237038BDFFF7E4FD0623F6E7AA
S11310A0FFF716FE0323F2E7FFF712FE0423EEE731
S11310B0FFF726FE0223EAE7FFF720FE0723E6E711
S11310C004484FF4F571FFF76BFF00231846DEE781
S11310D000800040C663000038B5124B0546D3F8C3
S11310E040310C4603F00303022B0BD0032B0DD02D
S11310F0012B0FD1FFF708FE092305B1286004B1C5
S1131100237038BDFFF706FE0823F6E7FFF7FFFD5F
S11311100A23F2E7044840F65651FFF741FF002343
S11311201846EAE700800040C663000038B5154B56
S11311300546D3F800320C4603F00703013B032BAA
S113114018D8DFE803F0020A0E12FFF7DDFD0923C9
S113115005B1286004B1237038BDFFF7DBFD082317
S1131160F6E7FFF7D4FD0A23F2E7FFF79BFD0C2314
S1131170800AEDE7044840F6F761FFF711FF00230A
S11311801846E5E700800040C663000038B5124BFE
S11311900546D3F840320C4603F00303022B0BD070
S11311A0032B0DD0012B0FD1FFF7AEFD092305B1A1
S11311B0286004B1237038BDFFF7ACFD0823F6E7BF
S11311C0FFF7A5FD0A23F2E7044840F68B61FFF719
S11311D0E7FE00231846EAE700800040C6630000EB
S11311E038B5124B0546D3F860310C4603F00303BF
S11311F0022B0BD0032B0DD0012B0FD1FFF784FD55
S1131200092305B1286004B1237038BDFFF782FDBE
S11312100823F6E7FFF77BFD0A23F2E7044840F6CC
S11312208451FFF7BDFE00231846EAE70080004022
S1131230C66300000F4B10B4D3F820320A4603F003
S11312400303012B0ED0022B10D008B1002303603E
S11312500AB10023137040F2132107485DF8044BD0
S1131260FFF79EBE5DF8044BFFF7AABE5DF8044B82
S1131270FFF732BF00800040C663000070B5440928
S113128005460E460DD1E4210D48FFF789FE05F011
S11312901F058EB104F58053012202FA05F51D6085
S11312A070BD012C06D0074A074B022C14BF14460C
S11312B01C46ECE7054CEAE704F50053ECE700BFF5
S11312C0C663000060820040688000406480004083
S11312D0B0F5007F10B52FD005D8D0B1B0F5C07FE0
S11312E017D0002426E0B0F5207F2BD0B0F5607F26
S11312F0F7D1174BD3F88040C4F30114012C19D94A
S1131300032C17D040F2EF511248FFF749FE022494
S113131010E00F4B1C6FC4F30334012C0AD9032CC7
S113132008D0072C06D00F2C04D040F2E251094813
S1131330FFF736FE601C10BD054BD3F89040C4F394
S11313400464F7E7024B1C6FC4F38024F2E700BF88
S113135000800040C6630000002337B53E280446E1
S1131360019300F0BA8045D82B282BD022D823280B
S113137016D00FD820284CD007D8002849D040F2E6
S1131380AF115848FFF70CFE87E0212808D0222827
S11313903FD0F4E7292800F296802828C0F08980FD
S11313A0FFF780FC04464FF42070FFF791FFB4FB75
S11313B0F0F071E0312810D82F28F1D22D2800F058
S11313C0878056D9FFF76EFC04464FF42070FFF770
S11313D07FFFB4FBF0F040085EE03C2855D83A2883
S11313E0DED238286AD03928C9D1002101A8FFF7F4
S11313F03BFE52E0B0F5007F52D01BD8522858D0A3
S11314000AD84D2805D002D83F28C9D0B7E74F28BD
S1131410B5D3FFF747FC3FE080283BD004D8A0F1C8
S11314206004012CF5D9AAE7B0F5807F21D0B0F58E
S1131430C07FADE7B0F5A06F40D010D8B0F5607FA5
S11314402ED006D8B0F5207FAAD0B0F5407FB9D011
S113145095E7B0F5806F2CD0B0F5906FC4E7B0F588
S1131460D06F35D00AD8B0F5B06F2CD0B0F5C06FBE
S113147085D1002101A8FFF72FFE0EE0B0F5E06F43
S11314802BD0B0F5F06F7FF47AAF002101A8FFF7FD
S1131490A7FE02E0FFF7ECFB0190019803B030BD1A
S11314A0FFF7E6FB05462046FFF712FFB5FBF0F019
S11314B0F2E7002101A8FFF783FDEEE7002101A870
S11314C0FFF7B8FEE9E7002101A8FFF7A3FDE4E771
S11314D0002101A8FFF72AFEDFE7002101A8FFF79A
S11314E055FEDAE7C663000008B58020FFF734FF35
S11314F0044B98429FBF42F270034FF48031024A7A
S1131500D15008BD005A62020080004070B541F21B
S113151068030E464FF400310E4A0546D1500020B0
S1131520FFF7D6FE41F671320B4B6843DC690B4979
S1131530DA639A68884204F4803422F4401203D9AE
S1131540012E18BF42F480129A600CB10022DA63B3
S113155070BD00BF0080004000000340005A6202DA
S113156008B5FFF7B1FBBDE808400021FFF7CEBF87
S1131570002307B5B0F5807F8DF807300FD030D841
S11315802D2800F0868010D82A2841D005D8243888
S1131590032831D940F2017171E02C28FAD10DF100
S11315A007010020FFF798FD37E03E2844D009D812
S11315B038287ED03D28EDD10DF107010020FFF73A
S11315C00FFE2AE0522817D08028E3D13C4B1B6F32
S11315D003F00703013B032B4FD8DFE803F04C482B
S11315E04666B0F5C06FDAD01CD8B0F5906F4AD01B
S11315F008D8B0F5806FCDD10DF107010020FFF7B9
S1131600DFFC0AE0B0F5A06F53D0B0F5B06FC1D1E4
S11316100DF107010020FFF7FDFC9DF8070003B062
S11316205DF804FBB0F5F06FC6D00BD8B0F5D06F01
S11316302FD0B0F5E06FADD10DF107010020FFF719
S1131640A5FDEAE7B0F5006F1DD0B0F5086FA1D194
S11316501B4BD3F8003103F00303022B1FD0032BE1
S113166021D0012B23D1FFF733FB032300E0052313
S11316708DF80730D1E70223FAE740F2726111488E
S1131680FFF78EFCC9E70DF107010020FFF7ECFC22
S1131690C3E70DF107010020FFF748FDBDE7FFF7A1
S11316A039FB0823E4E7FFF729FB0723E0E70123DD
S11316B0DEE70DF107010020FFF7BCFDADE700BF39
S11316C000800040C6630000037870B50F2B044609
S11316D004D940F6EC217048FFF762FC63780F2BC5
S11316E004D940F6EF216C48FFF75AFCA3780F2B7E
S11316F004D940F6F2216848FFF752FCE3780F2B37
S113170004D940F6F5216448FFF74AFC23790F2BEE
S113171004D940F6F8216048FFF742FC63793F2B77
S113172004D940F6FB215C48FFF73AFCA3793F2B30
S113173004D940F6FE215848FFF732FCE379032B25
S113174004D940F601315448FFF72AFC237A032BCD
S113175004D940F604315048FFF722FC637B012B87
S113176004D940F606314C48FFF71AFC8020FFF7F5
S1131770FFFE032800F0868041F264034FF4002149
S1131780464AD15045F60E0302F58042C2F8803035
S1131790022141F22803D15042F228030121D15001
S11317A0916D11F48031FBD1637820781B0543EAF5
S11317B00063A079657C0343E07843EA0043207921
S11317C043EA0033607943EA801313619369E07A52
S11317D003F000430343E07943EA8063207A43EA59
S11317E00063607A43EA0043A07A43EA00239361EA
S11317F0637B126A002B18BF0821207B22F00D02A4
S113180043EA020343EA800341EA0301A27B244B37
S11318104FEA42161962207C35D1996AE27B21F0A5
S1131820330141F00101314341EA02119962194641
S11318301C4A9E6D32EA0606FBD1022241F22806BA
S11318409A511A658B6D5B00FCD40B69A27823F462
S1131850700343EA02530B614FF0004241F2180354
S1131860CA5018B942F228030222CA5025B942F2DA
S1131870280301210A4AD150A37C1BB1084B0A4A10
S1131880C3F8802070BD9A6A22F033022A4332439F
S113189042EA40029A62EFE7C6630000008000401B
S11318A000C0004003000140F1A7FFFF837810B59A
S11318B0072B044604D940F6B5312B48FFF770FBDB
S11318C0E378032B04D940F6B7312748FFF768FBC8
S11318D02378032B04D940F6B9312348FFF760FB82
S11318E094F90130002B04DA40F6BB311E48FFF7AF
S11318F057FB41F264034FF480001C496278C850DE
S11319004FF4D1511A4B0220596241F204014F2A7B
S1131910585042F204014FF0010028BF4F225850A2
S11319201969C903FCD4217842EA01225A61E27898
S1131930A178120142EA012261790A43217942EA3B
S113194041029A60E279A179120142EA4112617A74
S11319500A43217A42EA41025A60A27A12B16FF430
S1131960D1525A6210BD00BFC6630000008000401F
S113197000000240014B1880704700BF3410002063
S11319800029CCBF01210021FFF7C0BDB0F5007FC5
S113199010B553D00AD818B3B0F5C07F20D0BDE835
S11319A010404FF4C9613648FFF7FABAB0F5207F0A
S11319B056D0B0F5607FF2D14C1E012C06D9042913
S11319C004D040F235612E48FFF7EAFA2D4AD2F8E6
S11319D0803023F0300343EA0413C2F8803010BD92
S11319E0102901F1FF3404D8274B23FA01F1CB0766
S11319F004D440F219612248FFF7D2FAFFF7B0FD90
S1131A0000F044F84FF4803141F270031D4AD15084
S1131A10136F23F4704343EA04331367FFF742F967
S1131A200446FFF7BFFAC0F102012046FFF7A8FF02
S1131A3000F032F8BDE81040FFF756BD4C1E1F2CD5
S1131A4004D940F23C610E48FFF7AAFA0D4BD3F8D3
S1131A50901021F0F85141EA0461C3F89010BEE7F8
S1131A604C1E012C04D940F242610548FFF798FA54
S1131A70044B196F21F4806141EA84211967AEE7B0
S1131A80C6630000008000401601010002214FF4EB
S1131A902070FFF77BBF000008B54FF4C070FFF75C
S1131AA05BFCBDE80840044988428CBF0221012147
S1131AB04FF42070FFF76ABF80F0FA02B0F5807F20
S1131AC070B50C4613D04DD82D2800F04A8121D88A
S1131AD02A2865D009D8243803284FD9BDE8704096
S1131AE040F64B11B948FFF75BBA2C28F6D1092C04
S1131AF000F007810A2C00F0FB80082C40F0FA80EB
S1131B000222B349D1F8403123F003031343C1F84F
S1131B104031B9E03E2863D017D8382800F05C8102
S1131B203D28DBD1092C00F0F7800A2C00F0EB8073
S1131B30082C40F0EA800222A549D1F8603123F054
S1131B4003031343C1F860319EE0522816D0802865
S1131B50C4D18B1E052B00F2AB80DFE803F0A69600
S1131B60A9B1A966B0F5C06FC1D02DD8B0F5906FFA
S1131B7000F0D4800DD8B0F5806FAFD1032C00F005
S1131B80A480052C00F0B280022C40F0A88003222F
S1131B909CE0B0F5A06F00F01F81B0F5B06F9DD14F
S1131BA0022C08D00D2C00F08E8040F2767187480C
S1131BB0FFF7F6F90024864AD2F8803123F00303B4
S1131BC01C43C2F880415FE0B0F5F06FAAD01AD888
S1131BD0B0F5D06F00F0C580B0F5E06F7FF47EAF54
S1131BE0092C00F019810A2C00F00D81082C40F01A
S1131BF00C8102227649D1F8403223F003031343C7
S1131C00C1F8403240E0B0F5006F00F08780B0F5D5
S1131C10086F7FF463AF4C1E072C00F2CD80DFE821
S1131C2004F0D0CBD2CBCBCBC9BF002504260121F5
S1131C30022000F007F9FFF793FCFFF727FF4FF4AA
S1131C40803141F27003624AD150136F23F00703CD
S1131C5033431367FFF726F80646FFF7A3F9C0F1ED
S1131C6002013046FFF78CFE0121002000F040F90C
S1131C70FFF712FFFFF738FC35B9032C04D142F209
S1131C8028030121534AD15070BD41F264034FF43B
S1131C9000214F4A0326D15041F2280201214D4B25
S1131CA09D6A9950C5F34005C1E700250126BEE7AA
S1131CB0002540F234714548FFF772F92E46B6E725
S1131CC000250226B3E7012475E702224049D1F832
S1131CD0203123F003031343C1F82031D4E740F249
S1131CE0A7713A48FFF75CF90022EFE70122EDE71C
S1131CF0032206E740F2C3713448FFF751F900228A
S1131D00FFE60122FDE6032216E740F2DB712F48CD
S1131D10FFF746F900220FE701220DE7023C052CEC
S1131D2016D8DFE804F00D03131C110F0223284911
S1131D30D1F8242122F007021343C1F82431A3E788
S1131D400323F4E70423F2E70523F0E70623EEE791
S1131D504FF400611D48FFF723F90023E7E701234F
S1131D60E5E7083C042C12D8DFE804F003180D1151
S1131D700F0002221649D1F8003223F0070313435F
S1131D80C1F8003280E70322F4E70422F2E740F6C8
S1131D901D010E48FFF704F90022EBE70122E9E7F1
S1131DA002220B49D1F8003123F003031343C1F895
S1131DB0003169E70322F4E740F656010348FFF7D0
S1131DC0EFF80022EDE70122EBE700BFC663000055
S1131DD00080004000C000400D2C12D00E2C09D110
S1131DE002220E49D1F8203223F003031343C1F831
S1131DF0203249E74FF408610948FFF7D1F800227F
S1131E00EFE70122EDE70322F4E640F6CE010448B1
S1131E10FFF7C6F80022EDE60122EBE60080004061
S1131E20C6630000EFF3108072B6704700B962B663
S1131E307047EFF31180302383F31188704780F3E8
S1131E40118870472DE9F0410546254A1368D806E4
S1131E50FCD44FF04023D3F88430C3F381139D4264
S1131E603CD0FEF705FF012D06460BD11D4B9842D1
S1131E7004D940F2C2511C48FFF792F801213046C0
S1131E80FFF77EFDFFF7CEFF4FF00072174B4FF0C8
S1131E9040241A604FF4806307466A1E9340DFF8BB
S1131EA048802367636E9A0103D4D4F884309B0678
S1131EB00AD53846FFF7BAFF022D0FD13046BDE8E8
S1131EC0F0410021FFF75CBDD4F884309906E9D5D0
S1131ED040F2CF514046FFF763F8E3E7BDE8F081F5
S1131EE084400040005A6202F563000064600040D0
S1131EF010B50C4608B9FEF7BBFE074B21461B780C
S1131F003BB1064B984204D80120BDE81040FFF7CE
S1131F1099BF0220F9E700BF88150020005A620229
S1131F204FF04022D36E017923F030030B43D36684
S1131F307047000041F264034FF00041174A10B5A6
S1131F40D150012141F204024AF6CD34144B995088
S1131F505A6C1C640A4088B99868C40705D542F2D3
S1131F6008001950D96AC807FCD542F204010120BF
S1131F70585012B10A4B0B4A1A6410BDD96A0907AA
S1131F80FCD442F224012020585041F208010120DF
S1131F90585003494B6A9B06FCD5EAE70080004091
S1131FA0004009403254FFFF38B54FF0004141F280
S1131FB06403184A184CD150012241F20403E25040
S1131FC04AF6CD33656C236443781540934013433C
S1131FD04FF04022D363A368827823F0740343EA6A
S1131FE00213C278002A14BF042200221343A36000
S1131FF00279837943EA022323614279C379007821
S113200043EA02236361FFF795FF0DB1034B236499
S1132010012038BD00800040004009403254FFFFD9
S113202038B50D460446D8B101281CD002281CD06E
S113203003280CBF0C230023EB40DB0704D44FF42C
S113204082610B48FEF7ACFF3020012141F21003FE
S1132050604300F18040A94000F57030C15038BDA4
S113206040F2FF13E8E71F23E6E7FF23E4E700BF9E
S11320705A63000038B50D460446D8B101281CD077
S113208002281CD003280CBF0C230023EB40DB07E1
S113209004D440F2E1310B48FEF782FF30200121E5
S11320A042F21003604300F18040A94000F5703013
S11320B0C15038BD40F2FF13E8E71F23E6E7FF23D2
S11320C0E4E700BF5A630000F8B50C4615461E4607
S11320D0074678B3012830D0022830D0032814BF33
S11320E000230C23E340DB0704D440F21D112048F5
S11320F0FEF756FF25B12146384616B3FFF790FF89
S113210030237B43072C03F1804303F570331BD842
S11321100F205A68A100884022EA000205FA01F162
S11321200A435A6015BB21463846DEB1BDE8F84083
S1132130FFF776BF40F2FF13D4E71F23D2E7FF2354
S1132140D0E7FFF797FFDBE70F2004F18042083A5E
S1132150D9689200904021EA000105FA02F20A438C
S1132160DA60DFE7BDE8F840FFF784BFF8BD00BFE1
S1132170246400002DE9F041064688461546A2BBBA
S113218040F20F11BDE8F0413048FEF709BF304B73
S11321909E4201D12F2040E040F229112B48FEF746
S11321A0FFFE3DE0032F45D02A4B3FE06FEAC50414
S11321B01C444444B4FBF3F4013C0AD540F27511C9
S11321C02248FEF7EDFE4FF4BB712048FEF7E8FE0F
S11321D002E0B4F5007FF6D2B3689B0702D5002C69
S11321E008BF0124B461BDE8F08103F003078368EC
S11321F023F440738360FFF715FEB26882EA072375
S113220003F440735340B360FFF710FEB8F1000FBE
S113221006D1114B9E42BAD12E20FFF79DF880467D
S1132220B3689A07BED5032F04D00C4B53F827305C
S1132230984504D84FF4AF710448FEF7B1FE084B3B
S1132240DB5D6B43B2D140F26F119BE76C6400001D
S113225000800640606400000000014A54640000ED
S11322609B64000038B50B4B044698420D4607D0DA
S1132270094B984204D040F28F110848FEF790FEB3
S1132280043425B104F580540123236038BD04F5DA
S11322900054F9E70000014A008006406C64000025
S11322A038B5154B044698420D4607D0134B984257
S11322B004D04FF4D2711248FEF772FE0023236457
S11322C042F23C030F4AE2506A7804F108037AB9F7
S11322D003F5805302221A60D5E9011220462B7BB4
S11322E0FFF748FF29782046BDE83840FFF7BABF1A
S11322F003F50053EEE700BF0000014A00800640EA
S11323006C640000FFFF1F002DE9F843824B9842E4
S11323100BD0824B98421CD081484FF4FD71FEF7DC
S11323203FFE6FF00300BDE8F8837E4B4026052591
S11323304FF000084FF0030C00F500549A683C3449
S1132340C16B11F4C06F0BD08E0504D5FD225A70F9
S1132350DCE0754BEAE74D0540F1D880FE22F6E754
S11323601F78082F00F2D480DFE817F009002B0053
S113237051005C0079008400A200A900C9005188C2
S11323801288CC0616D5120A02F0060242F0F002B8
S1132390012119704263C1601A78092A40F0BA8099
S11323A0002293F901100264012908BF5A7093F9BD
S11323B00100B8E702F0FE02890748BF42F00102BB
S11323C0E6E70F060AD542F23C0280218150FF2243
S11323D05A7008221A700222C260DDE7490640F1F1
S11323E0998051882660CF0604D50221127819708D
S11323F04263D1E7890760D507211970197902EB87
S1132400C1021289012A40F085800822E4E70F0600
S1132410D9D449067ED5518826608F074DD583F8D7
S113242000C08DE754881188E50643BF090A01F00E
S1132430060141F0F00101F0FE01640709D51C79A1
S113244041F0010102EBC4021289012A04BF0822EF
S1132450C26004221A700122C26041639CE70F0625
S1132460B1D44F0656D551882660490725D5072291
S11324701A7091E719795F8802EBC10EBEF80890D3
S1132480B9450DD80131C9B219715788A3F8028032
S113249017F0040FC3D1FF079BD4012999D84FE744
S11324A0DEF80420791C5980D25D42630622DFE7FE
S11324B00F0688D44F062DD526601D7040E7890687
S11324C028D5202642F23C041979456A02EBC10260
S11324D0118906515C88A14281BF5268661C5E80E6
S11324E015555A8891427FF674AF04240129C460BB
S11324F07FF652AF01398A427FF44EAF85E7CA05B1
S113250008D542F23C024FF4807181500922AFE7B2
S1132510FB221CE7012006E70000014A0080064078
S11325206C6400008C1500209815002038B5284BE9
S1132530044698420D4645D0264B98423FD04FF46E
S113254051712548FEF72CFD002D3ED140F2453156
S11325502148FEF725FD1E4B9C4229D11F4B2269C1
S1132560D00744BF2022E2606A88910701D52989F7
S113257059B3520701D52A8A3AB3002201211A70AD
S113258059705A801A719D60C023E3606369DB054A
S113259013D442F23C032022E250114A2046E25076
S11325A0236C43F4FC632364BDE83840FFF7ACBEFE
S11325B0084B9C4209D10B4BD1E7636AE6E700293B
S11325C0F9D1C3E70029C9D1C0E76FF0030038BDD2
S11325D00000014A008006406C6400008C15002055
S11325E0FFFF1F00981500202DE9F041064688469C
S11325F01D46174622B94FF4A1712F48FEF7D0FCAF
S1132600B8F1000F04D14FF42070FEF7A5FE804608
S1132610202D3AD007D8A5B1BDE8F04140F2891188
S11326202548FEF7BDBC402D39D0602DF4D1B7EB61
S1132630980F04D940F283111F48FEF7B1FC04221D
S113264008E0B7EB181F04D94FF4BA711A48FEF723
S1132650A7FC10227A43540804EB4814B4FBF2F4A8
S1132660164F203CE400BC4204D940F29F111248AA
S1132670FEF796FCB3683C4023F06003B360B36894
S11326801D43B560F461BDE8F081B7EBD80F04D900
S113269040F279110848FEF783FC0822DAE70624A1
S11326A0B8FBF4F3BB4204D24FF4BF710248FEF707
S11326B077FC2246CEE700BF9F640000F8FF7F004E
S11326C038B50E4B044698420D4608D003F58043B6
S11326D0984204D040F2BE210948FEF761FC012271
S11326E041F20403E250EB43934003F00A036361B5
S11326F0656115B942F20403E25038BD00C00540DB
S11327009F6400001A4B10B59842044608D003F5A4
S11327108043984204D040F22B411648FEF740FC17
S113272041F204030122E25040F6AA6341F2050299
S113273063610023A360E365E26042F248020E494C
S11327402361E361E364A150094AA365944202D082
S11327500A498C4207D19442236502D0074B9C421C
S113276001D10023636542F204030122E25010BD4B
S113277000C005409F640000FFFF01000000064008
S113278038B5404B044698420D4608D003F58043C3
S1132790984204D040F2EF213B48FEF701FC20466A
S11327A0FFF7B0FF41F204030122E250AB7C1BB1FE
S11327B0A36843F08043A360EB7C5BB1314A2B7D7B
S11327C0944243D1A2F51032C2F88C31E36D43F048
S11327D08003E3652A8A6B7B20461343EA8913430B
S11327E0E360D5E901122B7BFFF7FEFE6B7D1BB185
S11327F0A36843F48033A360AB7DEA7D1B07120515
S113280002F4E00203F0E043297E1343A3658B1E28
S1132810012B1C4A1D4B23D894421FD002F5804241
S113282094420CBF01224FF0FF3203EB421302200B
S113283041F21C62032998500CBF41F25C0342F23E
S11328405C030422E2502B78636138BD104A944241
S113285004BFA2F52032C2F89C31B7E70022E4E7B6
S113286094420DD00A4A94420CBF01224FF0FF3229
S113287003EB4213022042F21C6201299850DBE769
S11328800022F5E700C005409F64000000C003403B
S11328900000064083691B06FCD5406AC0B270473D
S11328A083695B06FCD5C1637047000010B54FF423
S11328B02D720021044603F049F900238022C4E963
S11328C02323084AC4F894306260012284F89830C3
S11328D02272C4F8A83204F19C00BDE81040FEF74F
S11328E01FBA00BF88650000D0F8A03010B50C46B0
S11328F073B900F09BFC044640B12D2896BF074BEA
S1132900074953F82010074800F0AFFF204610BDD8
S1132910D0F8A410204698470024F7E7D0640000BC
S11329208B6500009965000038B50D460446FFF735
S1132930BDFF6B68A968C4F8AC32204600F050FBB8
S11329404FF0FF330020C4F8B03238BD38B50378F7
S113295004468BBB01220270027A22B103724168E1
S1132960164800F082FF4FF0FF35D4F8B002421C45
S11329701CD0C4F8B052C1B2204600F01DFE00289D
S1132980F3D004F10905284603F0F2F848B12046D3
S113299000F0CEFD29462046FFF7A6FF204600F0B2
S11329A0EFFC6168054800F060FF03E000F042FFBF
S11329B0431CE0D10023237038BD00BFB76600007C
S11329C0F8B50B780446302B0D46174658D14B7892
S11329D003F0DF03582B53D14E1C16F8013FC3B943
S11329E0624202F0030204F0030358BF5342032B74
S11329F0284621D103F0BCF80423013494FBF3F4FA
S1132A000238A0420FD1A87837288CBF00200120BB
S1132A1008E003F057F833781844437813F0440F70
S1132A20DBD10020F8BD284603F0A2F80238844226
S1132A30D4BF00200120F5E703F09AF8042394FBA7
S1132A40F3F40238A042CCBF00200120EAE703F0EF
S1132A5039F83378184443785B07E2D516F8011F38
S1132A600029F4D10A22284603F0E2F9202C09D1E6
S1132A70024600238B4206BF824201200020D1E798
S1132A806E1EEBE737B150EA010303D010F1FF30BB
S1132A9041F1FF31012303FA04F4013C00EA04028A
S1132AA0E7E70A7801382D2A0ABF01220022891893
S1132AB0FFF786BF70B5037805467B2B01D0002055
S1132AC070BD0024461C731B16F8012B7D2A07D108
S1132AD01D446B78002BF2D1E04300F00100EFE7D6
S1132AE002F0F0FF16F8013C1844427812F0440F4B
S1132AF001D00134E7E7202BE1D1E4E7072805D82A
S1132B00DFE800F0060A0D1013151A1700207047AD
S1132B1000220820FFF754BF00221020FAE7002209
S1132B202020F7E70820FFF7BCBF1020FBE7202098
S1132B30F9E70846FFF7BEBF012070472DE9F743C8
S1132B4004280C46DDE90A7590461E4646D009D88D
S1132B50012826D011D302282DD0032834D003B065
S1132B60BDE8F083062804D042D3072846D02128A4
S1132B70F5D13B6848F823400FE000222046114677
S1132B8003F0E6F92B68C0B206EB83013A6846F815
S1132B902300013348F822102B603B6801333B606B
S1132BA0DDE700222046114603F0D2F92B6880B2FB
S1132BB006EB8301EAE700222046114603F0C8F938
S1132BC02B6806EB8301E1E700222046114603F05F
S1132BD065F82B6840B206EB8301D7E70022204654
S1132BE0114603F05BF82B6800B206EB8301CDE7D6
S1132BF000222046114603F051F8E1E700268946F9
S1132C0035468DF8066019F8013F7D2B03D12570F8
S1132C102D0A6570ADE7202BF5D006F001020136D0
S1132C2012B98DF80430EEE71022002101A88DF8C6
S1132C30053003F033F8631901359870ADB2E2E75B
S1132C402DE9F04F9246002285B08B42804689469A
S1132C509B46CDE902226CDC01461646A1EB080333
S1132C6011F8014BFF2C08D15B448EB1013B4B455D
S1132C705BDD2B2005B0BDE8F08FA4F12003012B10
S1132C8004D9103C072C98BF0122E7E70126E5E7A9
S1132C9042B1013B4B45ECDC354637464D4504DB40
S1132CA00020E7E79945F7D0E3E75D453BDB18F8FB
S1132CB00730202B18D108EB07035B78FF2BD8D102
S1132CC0CEB95AF825102046FFF718FF98B303AB86
S1132CD0019302AB00935AF82510DDE90E23204638
S1132CE0FFF72CFF0135D9E7212B0ED108EB0703A1
S1132CF05B78FF2BBDD1029B5AF825200E99012643
S1132D0041F8232001330293ECE7A3F11004072CCC
S1132D1002D901371C46D3E708EB07035B78FF2B86
S1132D20A7D1E4B2CCE70624CAE700252F462E46F5
S1132D30B4E721209EE726209CE72DE9F04F814649
S1132D40884617469A46044685B0119EDDE90F5B16
S1132D502068E8B12A68DAF800108A4218DA0E9B73
S1132D6053F82210FEF726F828BB2A6801322A609D
S1132D706268117BFE2919D10E9B10680121009312
S1132D80CDE902B6019553463A46FFF7D6FF04460D
S1132D903B783BB933782BB9B8F1000F0DD0012340
S1132DA04C463370204605B0BDE8F08F01238BF804
S1132DB000303B70ECE70C34CAE74446F2E700000D
S1132DC070B506460D4602F0D3FE0446304600F0C8
S1132DD04CFD044EAC4200D370BD304600F045FDBE
S1132DE00134F7E7AF6600002DE9F84F04460221ED
S1132DF05A48FFF7E5FF1E212068FFF7E1FF6368EB
S1132E00586800F032FD564800F02FFD6668337BA9
S1132E100233DBB2012B12D9D6F808804FF0FF350C
S1132E20404602F0A5FE0746DFF83091DFF890A196
S1132E30DFF878B10C3616F8013BFF2B01D1BDE861
S1132E40F88F112B68D042D8042B5DD036D8012BD3
S1132E5000F081807BD3022B7BD0032B50D0002F3A
S1132E60404C00DD0135202BE5D002214846FFF718
S1132E70A7FF1E214846FFF7A3FF504600F0F5FCCC
S1132E805946204602F06AFE3749002818BF2146F9
S1132E90364800F0EAFC3378202B02D12B2000F0D6
S1132EA0D8FC334800F0E1FC002F03DD18F80530AE
S1132EB01F2B40D12A4800F0D8FCBCE7062B27D0B2
S1132EC024D3072B26D0102BC9D12A4C19E0162B5A
S1132ED02AD008D8132B23D020D3142B22D0152B7F
S1132EE0BDD1254C0DE0202B2CD003D8172BB6D107
S1132EF0224C06E0212B19D0FE2BB0D1204C00E04F
S1132F00204C002FAEDCB0E71F4CFAE71F4CF8E76B
S1132F101F4CF6E71F4CF4E71F4CF2E71F4CF0E799
S1132F201F4CEEE71F4CECE71F4CEAE71F4CE8E7A9
S1132F3000F08FFC013518F805001F28BAD0BD42F7
S1132F40F6DBB7E7002F7FF776AF194C8AE7194C09
S1132F50D7E7194CD5E7194CD3E700BFBE6600008C
S1132F6052620000316600004B660000B766000044
S1132F70A4660000816600006E6600005C660000C6
S1132F804D6600009D6600004566000096660000E0
S1132F908E6600008A660000776600006D66000099
S1132FA082660000786600006366000053660000D5
S1132FB0396600009C6600009566000044660000C7
S1132FC0A266000010B50446236803B910BD237A35
S1132FD013B92046FFF708FF0C34F5E77047704734
S1132FE010B541B10A7932B901249C300C71FDF756
S1132FF09BFE204610BD0020FCE700002DE9F04FA9
S113300000F1090591B0804628468B46009203934F
S11330101A9E002402F0ACFD039B04901C60284619
S1133020346008AA07A900F041FC054658B908987D
S113303002F09EFD2C462F46039B1860D8F89C3066
S11330400193019B1BB9204611B0BDE8F08F019B91
S11330509B680293002B6BD00835454415F8013F5B
S1133060202B11D000250C236B43029AD15802EB7C
S11330700309002956D0079BBB4253DB99F808305B
S113308033B105F1010A33E0336801333360E5E716
S11330903368D8F89420D21A039B1A6010AB03EB60
S11330A0870353F8200C059302F06AFD824600283A
S11330B0E7D1D9F8000002F05BFDD9F8043084466A
S11330C0197BFE2918D1079A013ABA4214D01B6819
S11330D00293059B53F8200C02F04AFD3368013338
S11330E003443360336808EB0302527A12B10137A8
S11330F05546B8E70133F4E7D8F894203068121A3B
S1133100624526DC584602F033FD8246D9F80000B9
S113311002F02EFD50447B280ED9244A00995846CB
S1133120FDF735FE002308F1090204998B4233DBD5
S1133130019B1B68019384E7D9F800200099584645
S1133140FDF725FE1A4A009958460134FDF71FFE83
S113315097E7FE2995D1079A02F1FF39B94590D135
S11331606FF00B074FF00C0A1B6807FB04370AFBD0
S113317004F3FA582AB9049B4F463360039B1A6040
S1133180D0E700995846FDF702FE094A00995846CF
S1133190FDF7FDFD0134EAE712F8011B19B94FF000
S11331A0200102F8011C0133BFE700BFAC66000038
S11331B0AF6600002DE9F047002486B0DDE90E86F5
S11331C01C608246894688F80040116834701648AD
S11331D017461D468DF81740FDF7ECFD18B901247C
S11331E02B6801332B600020DAF89CA0BAF1000FA1
S11331F005D10CB10123337006B0BDE8F087DAF8CD
S1133200080068B14B46CDE90286CDE900750DF1A1
S113321017020021FFF791FD9DF81730002BE8D12C
S1133220DAF800A0E2E700BFA76600002DE9F0414C
S1133230A2B005460AAA084603A900F037FB0446D3
S1133240B0B90DF10A0301930DF10B038DF80A00D7
S113325000930AAA04AB03A92846FFF7ABFF9DF825
S11332600A20B2B158B19DF80B302BB1FFF7BCFD69
S1133270204622B0BDE8F081FFF7A4FEF8E7D5F8B8
S11332809C50002DF4D0A86808B1FFF79BFE2D6870
S1133290F7E700B3466812AB06F10C081AAF0193C6
S11332A00097049B0AAA03994046FFF7C9FC044609
S11332B00028DDD1039B05A8CDE90637049B0595BD
S11332C0CDE90838FFF78AFE05A83368984705A8B2
S11332D0FFF785FECCE72D24CAE72DE9F04100F184
S11332E0A8046FF0A7050026A0462D1A404602F058
S11332F03FFC2F19B84202D83046BDE8F08114F8DB
S1133300013B002BF8D00A2B08BF0136EEE7F8B5D5
S113331000250D601560D0F8A83204460F46164605
S11333200BB90020F8BDA83002F022FC0028F8D028
S113333001202B46D4F8A822904210D3B3F5007F85
S113334012D30120EEE73D68E21801353D6035688F
S113335001330135356092F8A8200A2A02D0B3F56A
S1133360007FF0D30130E5E7E21892F8A8200A2A9A
S1133370E7D0002AE5D03168013301313160DDE75F
S113338010B5D0F88C2004460021093002F0DEFB91
S11333900023C4E9243310BD2DE9F0470446ADF5FC
S11333A0447D04AE8022002130460DF1080802F06D
S11333B0CDFBCDF8008003AB802231462046FFF7D9
S11333C01DFE01283CD1304602F0D2FB0746039A89
S11333D0D8F80030BA421CDB002223443B445A7222
S11333E0D4F89090039DD8F80030D4F890202B4462
S11333F04B4514DCD4F894107B1B19441344C4F8D3
S11334009410C4F89030BD4215DB0DF5447DBDE841
S1133410F0879918B05C214448720132DAE7A318A6
S1133420587A00F016FAD4F8903009F10109013302
S1133430C4F89030D6E7705D00F00BFA0135E2E78E
S1133440E3DD24AF8022002138460DF5887A02F0AE
S11334507DFB4FF400720021504602F077FB4FF0E1
S113346001090023F55C8DBB30464AF8293002F08F
S11334707FFB2B46F15C43AD55F8042F82422ED1DD
S1133480F95401339945F5DAD4F89050039BAB42D3
S11334902CDC254A314604F10903244800F0E5F9FF
S11334A0384602F065FB039D06462A46D8F800001C
S11334B0B242D4F8943026DB1C4400236372B54234
S11334C0A3DA785D00F0C5F90135F8E7202D03F1A2
S11334D0010304BF4AF8293009F10109C2E7324463
S11334E0D25C8A42C8D00022FA54CDE7D4F8903096
S11334F001352344587A00F0ACF9D4F89030013304
S1133500C4F89030C2E7811817F802C0214481F84A
S113351009C0D4F8901001330131C4F89010C4F8F4
S113352094300132C4E700BF88650000B166000032
S1133530F7B5044600F1090500F1A806284602F093
S113354017FB0746304602F013FB0137C0F5007045
S1133550874220D8284602F00BFB0130371830464A
S113356002F006FB3146421C384602F0D6FA2846E1
S113357002F0FEFA29460246304602F0C3FA284613
S113358002F0F6FA0A23204480F8A8300023C4F895
S1133590A83203B0F0BD2046FFF79FFE01AAC4F88D
S11335A0A80269462046FFF7B2FE0022009B23448E
S11335B083F8A820C2E700002DE9F047D0E92447AA
S11335C005468846002295F89830012B07D1B8F1BA
S11335D00A0F06D1002085F89800BDE8F08700F2B4
S11335E09A80B8F11B0F4FF0000603D1022385F82F
S11335F0983049E0B8F10D0F0DD1012385F89830CA
S11336000D2000F026F90A2000F023F90023012000
S1133610C5E92433E1E7B8F1080F05F1090985F894
S1133620986040F0AA80002C2DDDBC420FD14046AA
S113363000F00FF9202000F00CF9013C404600F0A6
S113364008F9013F09F80460C5E924471CE0FBDAE6
S1133650013C404600F0FDF809EB0408611C3A1BEC
S11336604944404602F059FA09F8076041464A487D
S1133670013F00F0FAF83E46A642E5DD082000F0DE
S1133680E8F8013EF8E7DFD10020A6E7002FFBDDD4
S1133690BC42F9DA09EB0408611C49443A1B404670
S11336A002F03BFA09F8076041463C4800F0DDF8B7
S11336B00820013F00F0CDF8BC42F9D1D5F8943090
S11336C0013BC5F89430DFE7D5F88C30013BBB42B1
S11336D0DADDBC4209EB040604F1010A0EDA3A1BF6
S11336E0314609EB0A0002F018FA304600F0BDF842
S11336F00820013F00F0ADF8BC42F9DD404686F8F1
S11337000080D5F89430C5F890A00133C5F8943002
S113371000F09FF8B8E7022B07D1B8F15B0F01D195
S1133720032364E785F898204DE7032BACD1A8F177
S1133730410885F89820B8F1030FA5D8DFE808F010
S113374002070A160121284600F02AF89CE74FF0E8
S1133750FF31F8E7BC4297DA2C44607A00F079F83C
S1133760D5F890300133C5F890308DE7002C8BDD0F
S1133770013CC5F890400820CAE7B8F17F0F85D016
S1133780B8F10A0F3FF43CAFB8F1090F9CD12846B9
S1133790FFF702FE78E700BFBA660000BF660000CC
S11337A073B50C460546FFF798FD631C19D1D5F88F
S11337B0A8421CB1013CC5F8A8420124D5F8A8626E
S11337C06EB35CBBD5F8A8324BB101AA6946284652
S11337D0FFF79DFD18B1009C019BA34222D802B0C3
S11337E070BD012CFBD1D5F8A8328342F7D2013346
S11337F0C5F8A832E2E7082000F02BF8202000F0FA
S113380028F8082000F025F80136204602F0B0F927
S1133810B042F0D82846FFF7B3FDD3E7002605F100
S11338200904F2E72B1993F8A8102846FFF7C4FE01
S11338300134D1E707B500200DF1070100F07EF94E
S113384020B99DF8070003B05DF804FB4FF0FF308A
S1133850F9E710B5C1B20446002000F064F900286D
S11338600CBF20464FF0FF3010BD0FB407B504A9BC
S113387051F8040B019101F0AFFA002003B05DF898
S113388004EB04B0704710B54C1C0B460119045DE1
S1133890222C03D07B2C01D05C2C05D1D21A1844E5
S11338A002F03BF9012010BD0020FCE72DE9F84FA0
S11338B005468B46904602F05BF92B4606461A46AF
S11338C011785C1B202903F10103F8D001234FF088
S11338D000096FF0404AC8F80020CBF80030A64237
S11338E001D8002014E02F5D29197B2F12D0222F3C
S11338F02ED1DBF80030621C53442A4448F82320BC
S1133900012C09D911F8013C13F0DF0F04D0212058
S1133910BDE8F88F7D27F3E701342B5D2A19BB42FC
S113392008D1537813F0DF03F1D1222F00D11370A3
S11339300134D4E75C2B07D1324621462846FFF7F1
S1133940A2FF0028E3D0013E0134A642E5D8DEE719
S11339505C2F08D1324621462846FFF794FF002801
S1133960D5D0013EE4E7202FE2D1631C9E4281F8CA
S11339700090DDD9EA18EB5C202BD9D0DBF80030BD
S1133980072B05DC48F823200133CBF80030CFE7C0
S11339901E20BDE707B56B46054A1068516803C38E
S11339A06846FEF701FB002003B05DF804FB00BF8E
S11339B0C36600004FF0402213B50024536F6846DD
S11339C043F00103536700948DF80440FEF7A8FA0E
S11339D0204602B010BD000070B586B001AA15469D
S11339E0114B03F11006144618685968083303C4D0
S11339F0B3422246F7D14FF6FF7219889B78218093
S1133A00A3700A4B0A481B88934208BF8C23DBB27D
S1133A108DF80D308DF80E30FDF760F92846FDF76E
S1133A2053FE002006B070BDCB6600000001E00F1D
S1133A3000F049021FB50B4A01AB1068516803C37B
S1133A401189927A19809A70192301A88DF805308A
S1133A50FDF72CFF6420FDF78DFF002005B05DF815
S1133A6004FB00BFDE6600006FF00402502110B5B5
S1133A700A480B4C12F0800FD3B21BBF03F00F03A4
S1133A80043BA3181B1802F101020CBF83F80013B6
S1133A901976402AEED1002010BD00BF00ED00E0F1
S1133AA000E100E010B50446FEF7BCF9024B1C60CF
S1133AB0FEF7BCF9002010BDA415002010B5FEF7D8
S1133AC0B1F9034B1C68FEF7B1F9204610BD00BFE5
S1133AD0A415002070B50C46154610B9FFF7EEFF8B
S1133AE038B143682BB12A462146BDE870400068CE
S1133AF01847232070BDF7B50E4617461C4638B943
S1133B00FFF7DCFF04B901AC20B9232003B0F0BDFA
S1133B1003B901AC8568002DF7D023463A463146F7
S1133B200068A847F2E707B502AB03F8011D0122BC
S1133B301946FFF7CFFF03B05DF804FB0023012211
S1133B40FFF7D9BF80F82010704790F82000704725
S1133B502DE9F8430026044690461D461E604F1E7C
S1133B602B68434506D32B68002B0CBF1B20002079
S1133B70BDE8F883FEF75DF9D4F81490FEF75FF919
S1133B80B9F1000FEFD0E368A269D35C07F8013FF5
S1133B90E368E26901339342E36008BFE660FEF73D
S1133BA048F96369013B6361FEF749F9636820469C
S1133BB098472B6801332B60D2E790F8203070B51A
S1133BC005460C468E18ABB1B44201D1002070BD3D
S1133BD023780A2B03D12B680D21284698472B689C
S1133BE014F8011B28469847EEE72B6814F8011BCC
S1133BF028469847A642F8D1E8E770B50446056818
S1133C00FFF75CFF844202D10020FFF74BFF95F9D8
S1133C102130002B11DB012203F01F015B099B0003
S1133C2003F160438A4003F56143C3F88021C3F87C
S1133C308020BFF34F8FBFF36F8F00232846C4E962
S1133C400033A360C4E90433AB68BDE8704018478F
S1133C50F8B51F46536805460C461646002B36D069
S1133C609368002B35D024220021204601F06EFFFA
S1133C707368194AA361B368E361337B276084F8EE
S1133C802030069B6360079BA36096F9003084F89C
S1133C9021306A60114A002BAA60114A2C602A6103
S1133CA0104A6A61104AEA600CDB012203F01F012A
S1133CB05B099B0003F160438A4003F56143C3F849
S1133CC080211A602846FFF7EDFE0020F8BD22206F
S1133CD0FCE72120FAE700BFBB3B0000513B00009A
S1133CE0453B00004B3B0000FB3B00004269C069C0
S1133CF082422CBF002001207047000038B5426981
S1133D00C36904469A420D4604D34FF4AE71094880
S1133D10FDF746F92369A269D55462692369013222
S1133D206261E26901339342236104BF002323618A
S1133D3038BD00BFE9660000426AD36C43F0040357
S1133D40D364704710B50446426A93695B06FCD598
S1133D50002394F82B101A4694F82A00FEF7B4F9BD
S1133D60002394F82D101A4694F82C00FEF7ACF9B1
S1133D7094F832303BB1002394F82F101A4694F88B
S1133D802E00FEF7A1F994F832303BB1002394F8E9
S1133D9031101A4694F83000FEF796F9606A002153
S1133DA0FEF78EFC208D0021FDF768FA002010BD7F
S1133DB008B5406AFEF774FD002008BD2DE9FF41F7
S1133DC001261C46564B0A9D0193564B9046009380
S1133DD00A46CDE90266544B2946FFF739FF0746E8
S1133DE0002877D1236831466B62A3883A202B855B
S1133DF0E37985F82B30A37985F82A30637A85F83E
S1133E002D30237A85F82C30E37A85F82F30A37A85
S1133E1085F82E30637B85F83130237B85F830308C
S1133E20FDF72CFA33460422E179A079FEF74CF928
S1133E3033460222617A207AFEF746F93146A08899
S1133E40FDF71CFA414688F800702068FEF798FCDC
S1133E501422A37B5B0103F1804303F57033C3F8A1
S1133E601C26E179A27942EA0142C3F83426617A38
S1133E70227A42EA0142C3F82C2685F8327098F877
S1133E801830032B49D8DFE803F01A022943012331
S1133E9085F83230002500230222E17AA07AFEF769
S1133EA013F9E37AA27AA17B42EA03421F4B490148
S1133EB05A5041F25C0304212268D1508DB942F278
S1133EC04803042220680521C250C36C1343C36411
S1133ED0FEF7F6FB384604B0BDE8F081022385F80E
S1133EE0323000230422617B207BFEF7EDF80225AB
S1133EF041F21C61A27B0E4B03EB42104550607BE8
S1133F00217BB13241EA004103EB42139960D6E7C9
S1133F10032385F832300125BDE72327DAE700BF04
S1133F20453D0000393D0000B13D000024D603406A
S1133F3000C00340436A10B59B6904461B0610D5B4
S1133F40FFF7D4FE40B1606AFEF7A4FC01462046A8
S1133F50BDE81040FFF7D2BE626AD36C23F00403BD
S1133F60D36410BD08B5FCF7C3FDFCF7F1FDFCF705
S1133F70F1FDFCF7F6FDBDE80840FCF7F3BD08B51C
S1133F80FCF7F1FDFCF7F0FDFCF7F0FDBDE808409F
S1133F90FCF7EDBD10B50446FCF784FE4FF47A73CC
S1133FA0B0FBF3F05C43074BB3FBF0F0B4FBF0F46D
S1133FB00320B4FBF0F018B1BDE8104000F008B8DD
S1133FC010BD00BF40420F000000000000000000D0
S1133FD0013800D0FCE7704770472DE9F84F994647
S1133FE00D9B164614469A0707468846DDF82CA012
S1133FF01ED00A9B03EB0A0504EB050B0A9BABEBF3
S113400005029D4217D10D9B04EB0A029B071ED4A7
S11340101046BDE8F88F224604F1010B4B46414699
S11340202020B8475C460C9A2B199A42F3D8E0E753
S1134030AAEB0605F7E74B46414615F8010DB847CC
S1134040DCE7541C4B4641462020B84722460C99D5
S1134050931B9942F5D8DBE72DE9F047DDE90D76AE
S113406016F0020FDDE908549DF828E0DDE90BC8DD
S11340701FD106F001094FB1B9F1000F06D0BEF10E
S1134080000F02D116F00C0F00D0013F4FF0300AA0
S113409004E0202C04D005F804A001344445F8D3EE
S11340A04FF0300AB9F1000F03D0BC4201D21F2CEB
S11340B034D916F0100F1FD016F4806F33D194B397
S11340C0444501D0BC422ED1B4F101082AD0BCF140
S11340D0100F38D1023C16F0200F2FD11F2C15D809
S11340E04FF0780C05F804C001341F2C0ED84FF0A3
S11340F0300C05F804C001341F2C07D8BEF1000FA2
S113410023D04FF02D0C05F804C00134CDE90A7614
S1134110CDE90854BDE8F047FFF75FBF05F804A0F8
S11341200134BFE74446BCF1100FD4D0BCF1020FF8
S1134130DBD11F2CEAD84FF0620CD3E71F2CE5D853
S11341404FF0580CCEE74446F0E716F0040F02D0C7
S11341504FF02B0CD7E716F0080FD7D04FF0200CF8
S1134160D1E72DE9F04190B0169DDDF860C01B9FAA
S11341700DB927F010077C0500D585B317F0200F83
S11341804FF0000614BF4FF037084FF05708B5FB47
S1134190FCFE0CFB1E5EB5FBFCF55FFA8EF4BEF173
S11341A0090F94BF3034444401360DF1200EE4B2BB
S11341B0B6440EF8014C0DB1202EE8D11A9C069796
S11341C00594199CCDE903C49DF85C40CDE90164D4
S11341D008AC0094FFF740FF10B0BDE8F0812E4614
S11341E0ECE72DE9F04F93B0249D07468846DDE9BE
S11341F01C019A46DDE92063099350EA010308BFD4
S113420025F010056B05914602D550EA010333D021
S113421015F0200F4FF0000414BF4FF0370B4FF090
S1134220570B3246099B01F087FA8C46D2B2092A11
S113423094BF30325A4401340AA92144D2B201F85D
S1134240012C614650EA010301D0202CE9D1239BC3
S113425006950593229B4A46CDE903639DF8783081
S11342604146CDE901430AAB009338465346FFF774
S1134270F3FE13B0BDE8F08F0024E8E708B100F0C6
S1134280B9BD7047000000002DE9F04F97B0CDE9AB
S11342900701DDE9229792469B46DDE9202310467B
S11342A01946249E01F0CEF960B90323CDE90276C4
S11342B00193A74B00935246DDE907015B46FFF7E4
S11342C08CFE42E04FF0FF32DDE920016FF48013F1
S11342D001F0C2F928B10423CDE9027601939D4B84
S11342E0E8E74FF0FF32DDE920019B4B01F0D2F902
S11342F068B19A4A06F00403002B18BF0422984BB5
S113430004BF13460322CDE902760192D2E78CA3BF
S1134310D3E90023DDE9200101F0BCF938B98AA30F
S1134320D3E90023DDE9200101F096F980B1DDE94C
S113433007019DED207BCDE90376CDF808908DED46
S1134340007B5B46524600F013F917B0BDE8F08FCE
S11343500022DDE92001002301F07EF900286BD062
S1134360DDE920230020002100F04CFD0123CDE9EC
S11343702001099316F4806F08BF4FF0060900244A
S113438030220EABB9F1090F05D9E2540134202CC7
S113439009F1FF39F6D1DDE9200101F085F9714B0E
S11343A0054603EBC90393ED007B8DED0A7B00F01A
S11343B077FE02460B46DDE9200100F023FDDDE92E
S11343C00A2300F0D7FECDE90C0101F095F98046EF
S11343D000F056FE02460B46DDE90C0100F012FD2A
S11343E00022614BCDE90C0101F054F930B308F11E
S11343F00108404600F044FE02460B46DDE90A018E
S113440001F034F910B14FF000080135B9F1000F93
S113441025D00A230EAA202C3DD106F00303012B3C
S11344200EAB73D1002F71D0099A12B916F00C0F8C
S113443000D0013F302261E009909BE70022DDE9D2
S11344400C01494B01F008F90028DFD1B8F1000F45
S113445002D018F0010FD9D008F10108D6E7284698
S113446000F01EFE02460B46DDE9200100F0CAFC06
S113447000223D4B8046894601F0EEF830B100221F
S1134480394B4046494601F005F910B1E80700D51B
S113449001350A232DE0B8FBF3F103FB1188013445
S11344A008F13008101900F8018C09F1FF39884629
S11344B00029B0D13021A144202CAED0A14504F173
S11344C0010306D116AA14442E2204F8202C1C46FB
S11344D0DFE711551C46EFE70EAA0134111995FBCD
S11344E0F3F203FB1255303501F8015C1546002A3E
S11344F093D01F2CF0D990E71A550134A74205D95F
S11345001F2CF9D9CDE902760194D3E61F2CF9D8F2
S1134510099A32B12D2116AA224402F8201C013432
S1134520F0E7710703D516AA22442B21F5E73207D9
S1134530E8D516AA22442021EFE700BFAFF300809C
S11345400000000065CDCD410000000065CDCDC167
S1134550366700003A670000FFFFEF7F3267000014
S11345602D670000406700000000E03F00000000ED
S11345702DE9F04F93B09DED1C7B0D929B46DDE938
S11345801E530C9353EC172BCDE9080117EE100AB8
S113459019468DED067BDDF880A001F053F880B15B
S11345A0DDE906014FF0FF32C14B01F073F840B969
S11345B0DDE906014FF0FF326FF4801301F04CF88F
S11345C088B1DDE908010C9B9DED067BCDE91E5306
S11345D05B460D9ACDF880A08DED1C7B13B0BDE831
S11345E0F04FFFF751BE0022DDE90601002301F080
S11345F033F8002800F06C81DDE9068303F10049FB
S1134600C9F30A501AF48063A0F2FF3008BF0625EC
S11346100F9300F045FD96A3D3E9002300F0AAFD13
S113462095A3D3E9002300F0EFFBCDE90A014FF095
S1134630FF30A04900EA080301EA09041E462746A0
S113464000209D4906430F4300229C4B30463946C7
S113465000F0D8FB8AA3D3E9002300F08BFD0246C7
S11346600B46DDE90A0100F0CFFB01F01DF804461A
S113467000F016FD84A3D3E9002306460F4600F09C
S113468079FD00228E4B00F0BFFB01F00DF880A3F2
S1134690D3E900230E903946304600F06BFD064600
S11346A00E980F4600F0FCFC7BA3D3E9002300F036
S11346B061FD02460B463046394600F0A3FB024634
S11346C00B4606460F4600F055FD3246CDE90A0179
S11346D03B463046394600F097FB0022CDE91001F5
S11346E0DDE90A01774B00F06FFE0022764B00F003
S11346F08BFB02460B46DDE90A0100F065FE002251
S1134700724B00F081FB02460B46DDE90A0100F022
S11347105BFE3246CDE90A013B4600204FF0804162
S113472000F070FB02460B46DDE90A0100F06CFB69
S113473002460B46DDE9100100F046FE00225E4B06
S113474000F062FB0E9B002203F2FF36330500F0FB
S113475011FDCDE90A0102460B464046494600F0E8
S11347607BFF40B1DDE90A010022574B00F02CFE2B
S1134770CDE90A01013C04F16303C72B34BF0426CD
S113478005261AF4006F1ED045A3D3E90023404642
S1134790494600F075FF002800F09D8042A3D3E94C
S11347A000234046494600F057FF002800F093805C
S11347B00026AC42B4BF2D1B00253446B8BF05F11A
S11347C0FF354AF4806A0C9BB3428CBF9F1B0027C1
S11347D01AF002030E9302D0002E18BF00273CB13A
S11347E0DDE90A234046494600F0EEFD804689464D
S11347F0DDE906010022002300F02EFF10B109F1CB
S113480000439946DDE908012AF40063CDE9037306
S11348100295CDE900895B460D9AFFF735FD26B375
S11348201AF0200F00F1010502465B4614BF452033
S113483065200999089FB847DDE90801052300228E
S113484005930A23002CCDE9023206F1FF364FEA24
S1134850D473B8BF6442019304965B4600942A461D
S1134860FFF77FFC0E9B002B46D113B0BDE8F08F01
S1134870FB799F501344D33FB3C8608B288AC63F4B
S113488061436F63A787D23F71A379094F930A40AD
S11348901655B5BBB16B0240EF39FAFE422EE63F26
S11348A02D431CEBE2361A3F0000000080842E41A9
S11348B0FFFFEF7FFFFF0F000000F03F0000F83F15
S11348C00000E03F00002C4000002440000018409D
S11348D0DDE9068994E6002D3FF475AF0F9B002BAC
S11348E03FF471AF013D6EE7441C02465B46202055
S11348F00999089DA84720460D9B0C9AC31A9A4211
S1134900F2D8B2E72DE9F04F1E46B84B1746884659
S1134910002914BF82469A4600248FB0189D30782F
S113492060B9BC422CBF07F1FF3222463B464146E8
S11349300020D04720460FB0BDE8F08F252806F1AF
S1134940010607D0224604F101093B464146D047FF
S11349504C46E4E7002306E02D2A15D0302A0CD17A
S113496043F001030E46314611F8012B2B2A0ED0D9
S1134970F2D8202A0ED0232A0FD0A2F13000092821
S11349802AD800220A9212E043F00203EAE743F035
S11349900403E7E743F00803E4E743F01003E1E727
S11349A00A260A9806FB00220E46303A0A9231463D
S11349B011F8012BA2F130000928F1D932782E2AFE
S11349C03CD17178721CA1F13000092843F4806352
S11349D02BD84FF0000915E02A2A0AD12A68281D8D
S11349E0002ABCBF524243F002030A9205460E4617
S11349F0E4E700220A92E1E70A2202FB09190246CF
S1134A00A9F13009104610F8011BA1F13006092E56
S1134A10F2D916463278711C6C2A19D011D8682A3A
S1134A201DD06A2A4CD031461EE02A2905D12A68B5
S1134A30023622EAE2790435ECE716464FF0000923
S1134A40E8E7742A01D07A2AEDD143F480730BE0AD
S1134A5072786C2AF9D143F44073B11C04E0727883
S1134A60682A2AD043F080030E4616F8010B652805
S1134A7000F0ED8075D8472800F0E98023D8452858
S1134A8000F0E5807FF65EAF462808BF43F02003C0
S1134A9004930A9B0735CDE9029325F0070202F13E
S1134AA008054146D2E900235046CDE900233B46A0
S1134AB02246FFF7E9FB044631E743F0C003CCE7A5
S1134AC043F40073D0E7622803D1022223F00C03DD
S1134AD015E006D858287FF435AF43F020031022A0
S1134AE0F4E7632800F0D38064287FF42BAF6928AF
S1134AF023F010034FF00A0201D06428E6D15905CF
S1134B0048BF23F00103692803F4007101D064282D
S1134B106ED1002948D0073525F00705D5E90010E6
S1134B2008930A9B0029CDE906934FF000030492F1
S1134B3005930A464FEAD07370F10001029305F120
S1134B40080B034602DA524260EB4003CDE900232E
S1134B5041463B4622465046FFF743FB04465D462A
S1134B60DDE66F2801D10822B0E704D867286ED0AB
S1134B708AD36928B9E7732800F0C2800FD8702857
S1134B807FF4E0AE43F02103059308231022CDE91E
S1134B900393002305F1040BCDE9013243E07528AA
S1134BA0A5D078289BD0CDE6D90505F1040B13D503
S1134BB0296805930A9B0029CDE903934FEAD17331
S1134BC002920193B8BF494200913B4622464146B6
S1134BD05046FFF7C6FAC1E713F0400F296801D029
S1134BE0C9B2E6E71D0648BF09B2E2E7D93F0000B3
S1134BF079B108930A9B0735CDE90693002325F084
S1134C00070504920593029305F1080BD5E90023E7
S1134C109CE7D80505F1040B08D505930A9BCDE95B
S1134C200112CDE903932B680093CEE713F0400FF4
S1134C30296808D0C9B205930A9B0292CDE903936F
S1134C4000230193C0E7180648BF89B2F3E700F0D8
S1134C50DF02472A04BF00F0FD0043F40063452847
S1134C6008BF43F0200304930A9B0735CDE9029360
S1134C7025F0070202F108054146D2E90023504617
S1134C80CDE900233B462246FFF772FC13E713F0FD
S1134C9002030B9331D00123A1460C933B464A46B1
S1134CA041462878D0470B9B05F1040B09F1010418
S1134CB0002B3FF454AF0C9B013BA3EB09090A9A68
S1134CC004EB09039342BFF44AAF2246651C3B46FA
S1134CD041462020D0472C46F1E73B464A46414610
S1134CE02020D0470BF102030C930A9B0BEB040921
S1134CF00BF1010B5B45F0D8D0E7DDF82CB0F1E700
S1134D002A1DB9F1000F2D680D9214BF4A464FF0C9
S1134D10FF32AB462A449BF8001009B193450FD1EA
S1134D2013F48062ABEB050B0B9202D0CB4528BF8A
S1134D30CB4613F002030C9311D02246541B15E00A
S1134D400BF1010BE7E73B4641462020D0475B4689
S1134D500A99E218994203F1010BF4D8EEE75B4695
S1134D60E41AF5E799463B464146D047621915F8DF
S1134D70010B38B10B9B002BF5D009F1FF33B9F1CE
S1134D80000FEFD10C9B14467BB90D9DC7E522465D
S1134D9004F101093B4641462020D0474C460A9A7B
S1134DA00BEB04039342F2D3EFE7ABEB020BF6E712
S1134DB00FB41FB506AA52F8043B02A9039200924D
S1134DC004484FF0FF32FFF79DFD05B05DF804EB9A
S1134DD004B070477D4200001FB5034600914FF0B8
S1134DE0FF3203A90248FFF78DFD05B05DF804FB0F
S1134DF07D42000001460020FEF795BE81F000418F
S1134E0002E000BF83F0004330B54FEA41044FEAAB
S1134E10430594EA050F08BF90EA020F1FBF54EA46
S1134E20000C55EA020C7FEA645C7FEA655C00F0E2
S1134E30E2804FEA5454D4EB5555B8BF6D420CDDB3
S1134E402C4480EA020281EA030382EA000083EA36
S1134E50010180EA020281EA0303362D88BF30BDD6
S1134E6011F0004F4FEA01314FF4801C4CEA11312C
S1134E7002D0404261EB410113F0004F4FEA03338B
S1134E804CEA133302D0524263EB430394EA050F16
S1134E9000F0A780A4F10104D5F1200E0DDB02FA85
S1134EA00EFC22FA05F2801841F1000103FA0EF219
S1134EB0801843FA05F359410EE0A5F120050EF1DF
S1134EC0200E012A03FA0EFC28BF4CF0020C43FA10
S1134ED005F3C01851EBE37101F0004507D54FF01D
S1134EE0000EDCF1000C7EEB00006EEB0101B1F56D
S1134EF0801F1BD3B1F5001F0CD349085FEA3000B3
S1134F004FEA3C0C04F101044FEA445212F5800FBD
S1134F1080F09A80BCF1004F08BF5FEA500C50F15A
S1134F20000041EB045141EA050130BD5FEA4C0C3D
S1134F30404141EB010111F4801FA4F10104E9D1C6
S1134F4091F0000F04BF01460020B1FA81F308BFBD
S1134F502033A3F10B03B3F120020CDA0C3208DD89
S1134F6002F1140CC2F10C0201FA0CF021FA02F164
S1134F700CE002F11402D8BFC2F1200C01FA02F1D4
S1134F8020FA0CFCDCBF41EA0C019040E41AA2BFF9
S1134F9001EB0451294330BD6FEA04041F3C1CDAC1
S1134FA00C340EDC04F11404C4F1200220FA04F0E1
S1134FB001FA02F340EA030021FA04F345EA03018B
S1134FC030BDC4F10C04C4F1200220FA02F001FA4D
S1134FD004F340EA0300294630BD21FA04F02946CF
S1134FE030BD94F0000F83F4801306BF81F4801168
S1134FF00134013D4EE77FEA645C18BF7FEA655CDB
S113500029D094EA050F08BF90EA020F05D054EAAC
S1135010000C04BF1946104630BD91EA030F1EBFB1
S11350200021002030BD5FEA545C05D140004941B5
S113503028BF41F0004130BD14F580043CBF01F5A8
S1135040801130BD01F0004545F0FE4141F470018E
S11350504FF0000030BD7FEA645C1ABF1946104669
S11350607FEA655C1CBF0B46024650EA013406BF6A
S113507052EA033591EA030F41F4002130BD00BF29
S113508090F0000F04BF0021704730B54FF48064E6
S113509004F132044FF000054FF0000150E700BF67
S11350A090F0000F04BF0021704730B54FF48064C6
S11350B004F1320410F0004548BF40424FF00001B3
S11350C03EE700BF42004FEAE2014FEA31014FEAF6
S11350D002701FBF12F07F4393F07F4F81F0605145
S11350E0704732F07F4208BF704793F07F4F04BF90
S11350F041F40021704730B54FF4607401F000456D
S113510021F000411CE700BF50EA010208BF7047CC
S113511030B54FF000050AE050EA010208BF7047BD
S113512030B511F0004502D5404261EB41014FF426
S1135130806404F132045FEA915C3FF4D8AE4FF02E
S113514003025FEADC0C18BF03325FEADC0C18BF11
S1135150033202EBDC02C2F1200300FA03FC20FA62
S113516002F001FA03FE40EA0E0021FA02F11444AF
S1135170BDE600BF70B54FF0FF0C4CF4E06C1CEAC8
S113518011541DBF1CEA135594EA0C0F95EA0C0F39
S113519000F0DEF82C4481EA030621EA4C5123EAAC
S11351A04C5350EA013518BF52EA033541F48011DB
S11351B043F4801338D0A0FB02CE4FF00005E1FB8E
S11351C002E506F00042E0FB03E54FF00006E1FBD8
S11351D003569CF0000F18BF4EF0010EA4F1FF041B
S11351E0B6F5007F64F5407404D25FEA4E0E6D415B
S11351F046EB060642EAC62141EA55514FEAC5206C
S113520040EA5E504FEACE2EB4F1FD0C88BFBCF5E7
S1135210E06F1ED8BEF1004F08BF5FEA500E50F198
S1135220000041EB045170BD06F0004646EA01015E
S113523040EA020081EA0301B4EB5C04C2BFD4EB90
S11352400C0541EA045170BD41F480114FF0000E89
S1135250013C00F3AB8014F1360FDEBF002001F0F7
S1135260004170BDC4F10004203C35DA0C341BDC71
S113527004F11404C4F1200500FA05F320FA04F043
S113528001FA05F240EA020001F0004221F0004177
S113529010EBD37021FA04F642EB06015EEA430EEA
S11352A008BF20EAD37070BDC4F10C04C4F120051A
S11352B000FA04F320FA05F001FA04F240EA0200CD
S11352C001F0004110EBD37041F100015EEA430E9E
S11352D008BF20EAD37070BDC4F1200500FA05F2BE
S11352E04EEA020E20FA04F301FA05F243EA02033D
S11352F021FA04F001F0004121FA04F220EA02004C
S113530000EBD3705EEA430E08BF20EAD37070BD91
S113531094F0000F0FD101F00046400041EB010171
S113532011F4801F08BF013CF7D041EA060195F053
S1135330000F18BF704703F00046520043EB03030D
S113534013F4801F08BF013DF7D043EA06037047FA
S113535094EA0C0F0CEA135518BF95EA0C0F0CD005
S113536050EA410618BF52EA4306D1D181EA03014B
S113537001F000414FF0000070BD50EA410606BF45
S11353801046194652EA430619D094EA0C0F02D18A
S113539050EA013613D195EA0C0F05D152EA0336CF
S11353A01CBF104619460AD181EA030101F00041ED
S11353B041F0FE4141F470014FF0000070BD41F036
S11353C0FE4141F4780170BD70B54FF0FF0C4CF410
S11353D0E06C1CEA11541DBF1CEA135594EA0C0F2F
S11353E095EA0C0F00F0A7F8A4EB050481EA030E7C
S11353F052EA03354FEA013100F088804FEA033363
S11354004FF0805545EA131343EA12634FEA022230
S113541045EA111545EA10654FEA00260EF00041F1
S11354209D4208BF964244F1FD0404F5407402D243
S11354305B084FEA3202B61A65EB03055B084FEAD4
S113544032024FF480104FF4002CB6EB020E75EBD1
S1135450030E22BFB61A754640EA0C005B084FEAF9
S11354603202B6EB020E75EB030E22BFB61A754676
S113547040EA5C005B084FEA3202B6EB020E75EBC1
S1135480030E22BFB61A754640EA9C005B084FEA39
S11354903202B6EB020E75EB030E22BFB61A754646
S11354A040EADC0055EA060E18D04FEA051545EA35
S11354B016754FEA06164FEAC30343EA52734FEADE
S11354C0C2025FEA1C1CC0D111F4801F0BD141EA57
S11354D000014FF000004FF0004CB6E711F4801FBC
S11354E004BF01430020B4F1FD0C88BFBCF5E06F9C
S11354F03FF6AFAEB5EB030C04BFB6EB020C5FEAAC
S1135500500C50F1000041EB045170BD0EF0004E00
S11355104EEA113114EB5C04C2BFD4EB0C0541EA32
S1135520045170BD41F480114FF0000E013C90E62F
S113553045EA060E8DE60CEA135594EA0C0F08BFF3
S113554095EA0C0F3FF43BAF94EA0C0F0AD150EAF2
S113555001347FF434AF95EA0C0F7FF425AF104685
S113556019462CE795EA0C0F06D152EA03353FF4AD
S1135570FDAE1046194622E750EA410618BF52EA2A
S113558043067FF4C5AE50EA41047FF40DAF52EAFE
S113559043057FF4EBAE12E74FF0FF3C06E000BF9B
S11355A04FF0010C02E000BF4FF0010C4DF804CDA8
S11355B04FEA410C7FEA6C5C4FEA430C18BF7FEA68
S11355C06C5C1BD001B050EA410C0CBF52EA430C96
S11355D091EA030F02BF90EA020F0020704710F116
S11355E0000F91EA030F58BF994208BF90422CBFA5
S11355F0D8176FEAE37040F0010070474FEA410C9E
S11356007FEA6C5C02D150EA013C07D14FEA430CBB
S11356107FEA6C5CD6D152EA033CD3D05DF8040B2C
S1135620704700BF8446104662468C46194663465E
S113563000E000BF01B5FFF7B7FF002848BF10F135
S1135640000F01BD4DF808EDFFF7F4FF0CBF01207A
S113565000205DF808FB00BF4DF808EDFFF7EAFFF6
S113566034BF012000205DF808FB00BF4DF808EDB1
S1135670FFF7E0FF94BF012000205DF808FB00BFA6
S11356804DF808EDFFF7CEFF94BF012000205DF830
S113569008FB00BF4DF808EDFFF7C4FF34BF01203D
S11356A000205DF808FB00BF4FEA410212F500122A
S11356B015D211D56FF47873B3EB625212D94FEA55
S11356C0C12343F0004343EA505311F0004F23FA3F
S11356D002F018BF404270474FF00000704750EA94
S11356E0013005D111F0004008BF6FF00040704751
S11356F04FF00000704700BF4A0011D212F50012AB
S113570011D20DD56FF47873B3EB62520ED44FEA15
S1135710C12343F0004343EA505323FA02F0704795
S11357204FF00000704750EA013002D14FF0FF30D3
S113573070474FF00000704753B94AB9002908BFB9
S113574000281CBF4FF0FF314FF0FF3000F07CB950
S1135750ADF1080C6DE904CE00F006F8DDF804E0C4
S1135760DDE9022304B070472DE9F0478C46089D1B
S113577004468A46002B4AD18A42174662D9B2FAB5
S113578082F64EB1C6F1200E01FA06F3B740B440DA
S113579020FA0EFE4EEA030A4FEA1748230C1FFABA
S11357A087F9BAFBF8FE08FB1EAA0EFB09F243EACE
S11357B00A439A420BD9FB180EF1FF312CBF01208A
S11357C000209A4202D9002800F02A818E469A1AB3
S11357D0A3B2B2FBF8F008FB102200FB09F943EA7C
S11357E00244A14507D93C1900F1FF3302D2A14577
S11357F000F210811846A4EB090440EA0E4000218F
S11358001DB1F4400023C5E90043BDE8F0878B4295
S113581008D9002D00F0F2800021C5E9000C0846EB
S1135820BDE8F087B3FA83F100294ED16345C0F097
S1135830E880824240F2E5800846002DE5D0C5E9C3
S1135840004AE2E702B9FFDEB2FA82F6002E40F027
S113585099808B1A4FEA124E1FFA82F801214FEAFF
S1135860144CB3FBFEF20EFB123008FB02F94CEAB7
S1135870004CE14508D917EB0C0C02F1FF3302D2BE
S1135880E14500F2CA801A46ACEB090CA3B2BCFB9A
S1135890FEF00EFB10CC08FB00F843EA0C44A045D4
S11358A00ED93C1900F1FF332CBF4FF0010C4FF01F
S11358B0000CA04503D9BCF1000F00F0A8801846E5
S11358C0A4EB080440EA02409AE7C1F120048B40AB
S11358D002FA01FE0CFA01F6E24020FA04F72CFA6F
S11358E004FC00FA01F813433E431F0C320C1FFA68
S11358F083F9BCFBF7F007FB10CC00FB09FA42EA82
S11359000C4CE24508D913EB0C0C00F1FF3202D227
S1135910E24500F289801046ACEB0A0CB6B2BCFB3F
S1135920F7FA07FB1ACC0AFB09F946EA0C4291453F
S113593006D99A180AF1FF3601D291457AD8B246AF
S11359404AEA0040A2EB0902A0FB0E67BA42B44641
S1135950B94602D307D1B04505D2B6EB0E0C67EBBE
S1135960030301389946002D6BD0B8EB0C0362EBAE
S1135970090202FA04F4CB40CA4000211C43C5E9E1
S1135980004242E7B740C6F1200201FA06F3B440F0
S113599021FA02FC4FEA174E20FA02F21FFA87F8A6
S11359A0BCFBFEF11A430EFB11CC01FB08F0130CF7
S11359B043EA0C4C604507D917EB0C0C01F1FF339B
S11359C001D2604533D81946ACEB000C92B2BCFB53
S11359D0FEF00EFB10CC00FB08F342EA0C4C6345CE
S11359E007D917EB0C0C00F1FF3201D2634525D81F
S11359F01046ACEB030340EA014130E72946284650
S1135A0003E7841A6CEB030301209A4615E7023876
S1135A103C4455E702383C44EDE6023ABC4433E7E3
S1135A20AEF1020E3B44D2E602389C4474E70239DC
S1135A30BC44C9E7AAF1020A1A4481E70238BC440B
S1135A40D7E72946E1E600BF704700BF08B5074B1A
S1135A50044613B1002100E000BF054B1868836AB7
S1135A6003B19847204600F0BFFB00BF00000000D0
S1135A709067000070B50D4E00250D4CA41BA410BA
S1135A80A54209D10B4E00250B4C00F0CBFBA41B07
S1135A90A410A54205D170BD56F8253001359847AC
S1135AA0EEE756F8253001359847F2E70C1200204E
S1135AB00C1200200C12002010120020D0F8EC0070
S1135AC070470000044B054A1B681B6A002B08BF83
S1135AD01346D3F8EC007047381000209C100020C7
S1135AE082B001B901A942B14BB113780B601278AD
S1135AF0101C18BF012002B070471046FBE76FF07E
S1135B000100F8E7431E0A4410B5914200D110BDCC
S1135B1011F8014B03F8014FF7E7884201EB020348
S1135B2010B507D8421E99420AD011F8014B02F869
S1135B30014FF8E78342F5D98118D21AD34200D134
S1135B4010BD13F8014D01F8014DF7E70244034677
S1135B50934200D1704703F8011BF9E710F8012BB9
S1135B6011F8013B012A28BF9A42F7D0D01A704796
S1135B70034613F8012B002AFBD1181A0138704789
S1135B8010B56AB10139841810F8013B11F8012FDE
S1135B90934203D1A04201D0002BF5D1981A10BD35
S1135BA01046FCE72DE9F0478046894692461E469A
S1135BB00F463D46089815F8014BFFF77FFF204438
S1135BC0437813F0080333D12D2C33D1BD1C7C78DA
S1135BD00122002E5ED0102E09D1302C07D12B7853
S1135BE003F0DF03582B50D16C7810260235002ABD
S1135BF04FF0000714BF4FF000416FF000413846EA
S1135C00B1FBF6FC06FB1C1EA4F13003092B17D8CC
S1135C101C46A64223DD7B1C07D084451CD301D13E
S1135C20A64519DB00FB0640012715F8014BEBE7FD
S1135C302F46BEE72B2C1A4604BFBD1C7C78C8E750
S1135C40A4F14103192B01D8373CE2E7A4F1610325
S1135C50192B04D8573CDCE74FF0FF37E5E77B1CF2
S1135C6008D122230846C8F80030BAF1000F07D142
S1135C70BDE8F08702B14042BAF1000FF8D00FB18D
S1135C8005F1FF39CAF80090F2E73024002EAED1B6
S1135C900826ACE7302CA2D00A26A8E7084B37B573
S1135CA01C68084D236A002B08BF2B46009313463B
S1135CB00A4601462046FFF775FF03B030BD00BF1A
S1135CC0381000209C1000202DE9F04F8A4689B03E
S1135CD093461F46884607904546129815F8014B8F
S1135CE0FFF7ECFE2044467816F0080655D12D2C1B
