S0180000626D613430305F7370695F73696D706C652E73333784
S11300000010002019110000171100001711000042
S1130010171100001711000017110000171100003C
S1130020171100001711000017110000171100002C
S1130030171100001711000017110000171100001C
S1130040171100001711000017110000171100000C
S113005017110000171100001711000017110000FC
S113006017110000171100001711000017110000EC
S11300709D4100001711000017110000CD10000071
S1130080D91000001711000017110000171100000B
S11300901711000069160000171100001711000065
S11300A01711000069170000411700001711000024
S11300B0171100001711000017110000171100009C
S11300C0171100001711000017110000171100008C
S11300D0171100001711000017110000171100007C
S11300E0171100001711000017110000171100006C
S11300F0171100001711000017110000171100005C
S1130100171100001711000017110000171100004B
S1130110171100001711000017110000171100003B
S1130120171100001711000017110000171100002B
S1130130171100001711000017110000171100001B
S113014010B5054C237833B9044B13B1044800E0CF
S113015000BF0123237010BDAC100020000000007C
S1130160C463000008B5034B1BB10349034800E016
S113017000BF08BD00000000B0100020C4630000F0
S1130180154B002B08BF134B9D46A3F5803A002165
S11301908B460F461348144A121A05F09DFD0F4B67
S11301A0002B00D098470E4B002B00D0984700201E
S11301B0002104000D000D48002802D00C4800E086
S11301C000BF05F065FD2000290000F0E3FE05F006
S11301D04BFD00BF000008000010002000000000DC
S11301E000000000AC100020941300200000000068
S11301F00000000030B58DB02822002102A805F0CF
S11302006BFD00F024F9C0BB02248DF81C002146CC
S113021002A88DF8084000F0ADF970BB40F20A73F3
S1130220ADF80A304FF48073ADF80C300823012583
S11302308DF8200021460DEB03008DF80E50ADF82B
S11302401E3000F0E7FAC0B9204600F01BF9A0B94F
S11302500723294601A88DF804308DF8055000F0D5
S113026056FD50B9074804F0BFFE074804F0BCFE31
S1130270064804F0B9FE0DB030BD0146044804F050
S1130280B3FEFEE7005D0000265D0000585D00003F
S1130290825D00007FB5002306A820F80E3D00F023
S11302A0CFFD002845D1BDF80A309A0413D5224861
S11302B004F09AFE03A9012000F006F9002838D1C1
S11302C00598BDF910300090BDF90E20BDF90C1051
S11302D01A4804F089FEBDF80A305B0412D51848A8
S11302E004F082FE03A9012000F0EEF808BB059893
S11302F0BDF910300090BDF90E20BDF90C100F4867
S113030004F072FEBDF90A30002B12DA0D4804F035
S11303106BFE03A9012000F0D7F850B90598BDF988
S113032010300090BDF90E20BDF90C10034804F004
S11303305BFE07B05DF804FBBD5D0000EB5D0000F3
S1130340295E0000575E000010B5044600F06CFF03
S1130350012809D1054B9C4206D1054B1A78012A84
S11303600ABF002218701A7010BD00BFF45E0000AE
S1130370C8100020012802D131B91070704701293A
S113038004D10223137070470323FBE70023F9E72A
S113039001390A2949D8DFE801F0060C131A21288B
S11303A02F36393D410041780078C909C009FFF76B
S11303B0E1BF41780078C1F38011C0F38010F6E703
S11303C041780078C1F34011C0F34010EFE7417861
S11303D00078C1F3C001C0F3C000E8E741780078B9
S11303E0C1F38001C0F38000E1E741780078C1F3F4
S11303F04001C0F34000DAE74178007801F00101E0
S113040000F00100D3E78078C109E4E78078C0F305
S11304108011E7E78078C0F30011F1E741780078B4
S1130420C1F30011C0F30010C1E7704707B5B6214E
S11304307E2000F021FD38B9052003F061FD0DF1A7
S113044007017F2000F056FD03B05DF804FB002394
S113045007B505208DF8073003F052FDFFF7E6FFDE
S1130460034658B90DF1070100F044FD034628B9CD
S11304709DF80720902A0CBF03462D23184603B08D
S11304805DF804FB002337B502A9054601F8013DD8
S1130490192000F02FFD044698B99DF8071005F0C7
S11304A0030321F00301194319208DF8071000F00C
S11304B0E3FC044628B9012D0CBF28200A2003F0D0
S11304C01FFD204603B030BD002330B585B005467E
S11304D0CDE901338DF80C300C46002946D090BB91
S11304E0062101AA042000F023FD50BB9DF805203D
S11304F09DF8043003EB02239BB21AB2B2F5006FED
S1130500AABFA3F58053228023809DF807209DF87D
S1130510063043EA02231BB2B3F5006FA8BFA3F56C
S1130520805363809DF809209DF8083043EA022334
S11305301BB2B3F5006FA8BFA3F58053A3803DB9E8
S1130540A56005B030BD012812D101AA0921C9E76F
S1130550012DF6D19DF80C209DF80A3003EB0243DF
S11305609DF80B2003EB0223A360EAE72220E8E7CF
S11305702320E6E7002330B587B00D46ADF80830F8
S11305808DF80A300446002800F0428102AA0321B3
S1130590212000F0CDFC28B9142303FB0545A54216
S11305A000D008B107B030BD23788DF80700062BC2
S11305B008D8DFE813F00F00330051006900AE00E3
S11305C0F3002B01002102A80DF10702FFF7E0FE62
S11305D0002021E003AA0321192000F0A9FCA8B9F6
S11305E09DF80C30DA09C3F34113A3719DF80D3063
S11305F0E2719A09E270C3F3011203F00F03A370CE
S11306009DF80E306271C3F3810323710121237AB3
S11306108DF807300028D6D01434C0E703AA02218D
S1130620572000F085FC90B99DF80C30C3F3C1024B
S113063003F00703E3709DF80D30A270C3F30112B9
S1130640A271C3F3810203F0030362712371E3799E
S113065009218DF80730DDE703AA0221552000F0B7
S113066067FC60B99DF80C30A3709DF80D305A09F1
S1130670E270C3F3001203F00F0322716371A379D4
S113068008218DF80730C5E703AA0B213F2000F0AD
S11306904FFCC8BB9DF80C305A09A271C3F3001279
S11306A0E271C3F3810203F00303E3729DF80D309A
S11306B0A27203F00102C3F3400323729DF80E30CB
S11306C06272A3709DF80F209DF8103043EA022354
S11306D0A3809DF8123003F00F029DF8113043EA15
S11306E00223A3819DF8143003F00F029DF8133008
S11306F043EA0223E3819DF8163003F00F029DF8CC
S1130700153043EA02232382A37C05218DF80730A8
S113071080E703AA0B214A2000F00AFCC8BB9DF81D
S11307200C305A09A271C3F30012E271C3F38102BF
S113073003F00303E3729DF80D30A27203F001028B
S1130740C3F3400323729DF80E306272A3709DF8C8
S11307500F209DF8103043EA0223A3809DF8123045
S113076003F00F029DF8113043EA0223A3819DF8A0
S1130770143003F00F029DF8133043EA0223E3819F
S11307809DF8163003F00F029DF8153043EA02235A
S11307902382A37C04218DF807303BE703AA0B21B5
S11307A0352000F0C5FB60BB9DF80C305A09A270DF
S11307B0C3F30012E270C3F3810203F00303237254
S11307C09DF80D30227163719DF80E30A3719DF870
S11307D00F30E3719DF8113003F00F029DF81030D3
S11307E043EA022363819DF813209DF8123043EA03
S11307F00223A3819DF815209DF8143043EA0223B7
S1130800E381237C06218DF8073003E70A21DAE629
S11308102220C7E60023F0B585B00F46ADF80030BE
S11308208DF802300446002800F06F826A460321E6
S1130830212000F07DFB38B91423064603FB07474B
S1130840BC4200F0598208B105B0F0BD2378062BF4
S113085045D8DFE813F0070047008700AA00FA0034
S113086049018A01E02301AA03211920ADF804609B
S11308708DF8063000F05CFB054680BB9DF8043023
S1130880E27903F07F0343EAC213A27923F0600301
S1130890520102F0600213438DF804306379E27868
S11308A01B0103F0300343EA8213A278032102F010
S11308B00F0213438DF8053023799DF806209B0021
S11308C022F00C0203F00C031343192001AA8DF843
S11308D0063000F0E7FA0546002800F05181143490
S11308E02846ADE701AA02215720ADF8046000F0C4
S11308F01FFB05460028F2D1A3780221DB0003F098
S113090018029DF80430572003F0E0031343E27803
S113091002F0070213438DF80430A3791B0103F09E
S113092030029DF8053003F0C3031343627992004B
S113093002F00C021343227923F0030302F00302B2
S1130940134301AA8DF8053000F0ACFA05460028DF
S1130950C5D1E379012B40F0A5819DF8023043F025
S113096004031FE022796379E178A07803F00F0390
S1130970120143EA411302F0100213438DF80400FC
S113098001AA022155208DF8053000F08BFA0546A6
S11309900028A4D1A379012B40F070819DF8023086
S11309A043F008038DF8023099E7E37AA27903F063
S11309B0030343EA4213E279A17A120102F010021E
S11309C013438A0002F00C0213438DF80430237A97
S11309D0627A5B0002F0010203F0020313438DF814
S11309E00530A37802968DF80630A388CDF80B6005
S11309F01A0A8DF807208DF8083019BB0B21A3893A
S1130A0001AA8DF809301B0A8DF80A30E3898DF8A4
S1130A100B301B0A8DF80C30238A8DF80D301B0A1D
S1130A208DF80E303F2000F03DFA054600287FF493
S1130A3056AFA37C012B40F0E9809DF8003043F0D1
S1130A400403A4E001AA0521ECE7E37AA27903F008
S1130A50030343EA4213E279A17A120102F010027D
S1130A6013438A0002F00C0213438DF80430237AF6
S1130A70627A5B0002F0010203F0020313438DF873
S1130A800530A37802968DF80630A388CDF80B6064
S1130A901A0A8DF807208DF8083011BB0B21A389A1
S1130AA001AA8DF809301B0A8DF80A30E3898DF804
S1130AB00B301B0A8DF80C30238A8DF80D301B0A7D
S1130AC08DF80E304A2000F0EDF9054600287FF439
S1130AD006AFA37C012B7DD19DF8003043F00803C1
S1130AE055E001AA0521EDE72179E3788A001B018D
S1130AF002F00C0203F010031343A278029643EAB7
S1130B0042138DF804306379ADF80C608DF805302C
S1130B10A3798DF80630E3798DF8073011BB0A21EB
S1130B20638901AA8DF808301B0A8DF80930A3895E
S1130B308DF80A301B0A8DF80B30E3898DF80C30E0
S1130B401B0A8DF80D30352000F0ACF9054600285D
S1130B507FF4C5AE237C012B74D19DF8003043F0A3
S1130B60020314E001AA0421EDE7A578012D40F069
S1130B70AE809DF8023043F001038DF8023020E08E
S1130B80237A012B06D19DF8003063F07F038DF8A2
S1130B900030A4E6022B04D19DF8013063F07F03FA
S1130BA00AE063B99DF8003003F07F038DF800304C
S1130BB09DF8013003F07F038DF801308FE6032B9D
S1130BC001D000258BE69DF8003063F07F038DF89B
S1130BD00030E1E7022B04D19DF8013043F0080313
S1130BE0EAE753B99DF8003023F008038DF800308C
S1130BF09DF8013023F00803DEE7032BE1D19DF8D3
S1130C00003043F008038DF80030E5E7022B04D1EF
S1130C109DF8013043F00403CEE753B99DF800304A
S1130C2023F004038DF800309DF8013023F0040311
S1130C30C2E7032BC5D19DF8003043F004038DF8BF
S1130C400030E5E7022B04D19DF8013043F00203A4
S1130C50B2E753B99DF8003023F002038DF8003059
S1130C609DF8013023F00203A6E7032BA9D19DF8D8
S1130C70003043F002038DF80030E5E7022B04D185
S1130C809DF8023063F07F038CE623B99DF80230AF
S1130C9003F0770386E6032B93D19DF8023063F0CB
S1130CA077037FE6022B04D19DF8023043F0400322
S1130CB078E623B99DF8023023F0440372E6032B4F
S1130CC07FF47FAF9DF8023043F044036AE6022DBF
S1130CD004D19DF8023043F010034EE725B99DF886
S1130CE0023023F011035DE6032D7FF46AAF9DF813
S1130CF0023043F0110340E700287FF4A5AD6A46B3
S1130D000321212000F0CEF89EE522209CE573B556
S1130D100E460546002800F0918001AA02211F20FA
S1130D2000F006F948B905EB4606B54207D120B9EB
S1130D3001AA02211F2000F0B5F802B070BD2B7883
S1130D406C780B2B78D8DFE803F0061019212931D1
S1130D5039424B535B629DF8043003F07F0343EA4E
S1130D60C4148DF804400235DFE79DF80430A40173
S1130D7023F0400304F040041C43F2E79DF80430E0
S1130D80640123F0200304F02004F5E79DF8043007
S1130D90E40023F0080304F00804EDE79DF80430B0
S1130DA0A40023F0040304F00404E5E79DF80430F0
S1130DB0640023F0020304F00204DDE79DF805302B
S1130DC003F07F0343EAC4148DF80540CBE79DF894
S1130DD00530240123F0100304F010041C43F3E74E
S1130DE09DF80530E40023F0080304F00804F5E757
S1130DF09DF80530A40023F0040304F00404EDE797
S1130E009DF8053004F0010423F00103E6E70DF139
S1130E1003012D2000F06EF80028A4D19DF80310E2
S1130E20640004F0020421F0020121432D208DF816
S1130E30031000F021F896E7212094E722207CE7B4
S1130E4013B50446A8B101AA03210E2000F070F8DE
S1130E5068B99DF805309DF8062003F01F0343EAA6
S1130E6042139DF80420DBB242EA0323238002B03C
S1130E7010BD2220FBE7000007B5094B00F07F00FE
S1130E808DF804008DF80510022201A9186800F0FD
S1130E90C9FE002814BF3120002003B05DF804FB14
S1130EA02C1000202DE9F743002406460F469046F7
S1130EB02546DFF83C903319A742DBB200DD1DB1B3
S1130EC0284603B0BDE8F08318F8042003F07F033C
S1130ED08DF8052001A90222D9F800008DF804300C
S1130EE000F0A0FE002818BF31250134E3E700BF5D
S1130EF02C100020FF2313B560F07F008DF8000054
S1130F000A480C468DF801308DF8023001AA0323FB
S1130F106946006800F060FE20B100233120237090
S1130F2002B010BD9DF806302370F9E72C100020A4
S1130F30F8B58E1CB3B21546DA1D02F47E7200AF0A
S1130F40ADEB020D694660F07F00ADEB020D087059
S1130F50FF206C4603224870887093420DD80C48D9
S1130F602246006800F038FE80B9A31C013D3444D9
S1130F70A34206D10020BD46F8BD88540132D2B246
S1130F80EBE713F8012B05F8012FF1E73120F2E725
S1130F902C10002008B503F025F9FFF72BF903F016
S1130FA02EF9FFF777F9FAE7704708B50321802097
S1130FB001F0E8FB08214FF4C06001F0E3FB0821D5
S1130FC04FF4F06001F0DEFB08213E2001F0DAFB73
S1130FD008212D2001F0D6FB002008BD144B10B5CC
S1130FE01B68C3F30743012B10D1124B4FF480222B
S1130FF0596E41F2640049034FF0040458BF42F2B1
S113100064011A500C48046058BF5A5002F0B4FBF3
S113101000F07DF802F046FB02F066FB02F092FB62
S1131020FFF7C3FF02F04EFBBDE8104000F066B8C6
S11310300080E00F008000402020014008B500F04F
S11310404DF8BDE8084000F04FB808B502F0AAFE1C
S1131050BDE8084000F038B87047704770477047E3
S11310607047704770B5144C92B00BAD0FCC0FC5E0
S113107094E80700032385E8070003AE8DF84430A5
S113108007AD04F10C031C340FCB86E80F0094E881
S11310900F0085E80F00094B0BAA0093294633463D
S11310A0074802F0F9FC044618B17A21054800F01B
S11310B0DBFD204612B070BD885E0000CC1000201D
S11310C020110020C45E0000FFF7CCBF014B18685C
S11310D002F09EBD20110020FFF7F8BF014800F088
S11310E09DB800BFF45E0000024B0349186800F08D
S11310F03BBC00BF2C1000200C10002008B50121BF
S11311003A2000F01FFFBDE80840FFF74DBF012162
S11311103A2000F017BFFEE708B500F013F8064ABE
S1131120064B07498B4201D3FFF72AF852F8040F04
S113113043F8040BF6E700BFC8630000001000206A
S1131140AC100020044B054A9A60D3F8882042F47E
S11311507002C3F88820704700ED00E00000000032
S1131160014B1868704700BF34100020084B1B6FF8
S113117003F00703022B04D0032B05D0012B05D069
S1131180FEE7044B18687047034BFBE703487047BE
S1131190008000403410002038100020002D310160
S11311A008B5FFF7E3FF054B1B6FC3F303330133AC
S11311B0B0FBF3F0024B186008BD00BF0080004094
S11311C0301000200048704700B4C404014B186874
S11311D0704700BF38100020054B1860054B1B6F8B
S11311E003F00703032B01D1FFF7DABF704700BFF9
S11311F038100020008000400020704700487047ED
S1131200002D31014FF4004070474FF47A7070475D
S1131210014B1868704700BF3C10002043680BB1B5
S1131220006818472220704783680BB1006818478C
S1131230FF20704738B50D460446B8B1012818D0D0
S1131240022818D003280CBF0C230023EB40DB0733
S113125004D440F2B231094800F006FD30235C4367
S1131260074B1859E84000F0010038BD40F2FF1365
S1131270ECE71F23EAE7FF23E8E700BF0C5F000069
S113128014C0034070B5014600240F4B0F4E1A786A
S1131290E3B29A4200D870BD56F824301D686B79C9
S11312A08B420FD12B78022B0CD02879FFF7C2FF89
S11312B0B0FA80F04009287056F82400BDE8704068
S11312C0FFF742B80134E3E7F25E000008100020A3
S11312D013B5044601213A2000F034FE0023012214
S11312E06179207901F054FE61792079FFF7A2FF3A
S11312F0B0FA80F0A3794009022B20700DD100F0E0
S113130003FA0749607900F00DFA01236279207924
S1131310CDE90033114601F0B5FD002002B010BD47
S1131320851200000078704710B503780446022B3C
S113133016D041790079FFF77DFFA279012A17D1F0
S113134063885B0063F03F039BB200280CBF184620
S113135043F001004FF6E073984202D1227060809E
S113136010BD4FF6DF73984204BF00232370F6E7E5
S1131370002AF5D1B0FA80F040092070F0E7027835
S1131380022A03D100224280FFF7A2BF704713B59F
S113139003780446022B10D08379022B0BD1002151
S11313A0407900F0BFF9002362792079CDE9003358
S11313B0114601F067FD0223237002B010BD000046
S11313C02DE9F04F9B46584B85B01B78064689465D
S11313D01546109F9DF844A0DDF85080002B00F0C6
S11313E09280072A00F291800E9B002B00F08D80E2
S11313F00F9B002B00F08980129BB3F5006F00F364
S11314008480012801D1002F7FD0484B03EB0513C2
S11314101B7B002B7BD0464C10220021684604F035
S11314205BFC04EB45141022B9F1000F5CD1494672
S1131430204604F051FCA37843F01003A370E37832
S113144043F03003E370BAF1000F03D1DBB243F091
S11314500303E37036496A01129B885A013B63F324
S11314600E100E9B01EB020C8852CCF808300F9B37
S11314709DF84C10CCF804309CF80330012E61F335
S11314808303CDF800B08CF8033042D113230CF160
S1131490100ECCF80C309CE80F008EE80F006FF0B3
S11314A00301DCF81C20B9F1010F61F39F02CCF8B1
S11314B01C20CCF8147004D10F9BCCF80470CCF829
S11314C01830002719492A018B1841F80280159A0F
S11314D028465A609F605E732246694601F0F8FD13
S11314E0384605B0BDE8F08F0021204604F0F4FB37
S11314F01023A3700323E370BAF1000FAAD1DBB267
S113150043F03003A5E70B48EBE70B48E9E70B484A
S1131510E7E7B8F1000FD4D19CF8023068F3041364
S11315208CF80230CDE700BFB8120020381100203B
S1131530B8110020028000F0018000F0078000F064
S113154038B5104B05461B78BBB1C0B101F0D5FAD4
S113155000230D4901EB0312147B3CB92B600123DA
S11315601460137301F0CFFA204638BD0133082B01
S1131570F0D101F0C8FA0548F7E70548F5E7054852
S1131580F3E700BFB812002038110020048000F0F7
S1131590028000F0018000F0154B13B51868002399
S11315A001908DF8043001F0A8FA124B1C7824B194
S11315B001F0A9FA104802B010BD01221A7001F01E
S11315C0A2FA0E4B01A81C731C7783F82C4083F8F5
S11315D03C4083F84C4083F85C4083F86C4083F8CB
S11315E07C4008238DF8073001F028FD2046E2E70F
S11315F0705F0000B8120020038000F03811002052
S113160010B588B00E9C009207940D9C0246069477
S11316109DF8304005940B9C04949DF82840039455
S11316200024CDE9013420460B462146FFF7C8FECD
S113163008B010BD10B588B00E9C009207940D9CA4
S1131640024606949DF8304005940B9C04949DF842
S1131650284003940024CDE9013420460B4601219F
S1131660FFF7AEFE08B010BD2DE9F843174B1F6D10
S11316705B6D1F4000D5FEE701260025144CDFF802
S11316805480DFF85490374217D02368C8F80060BC
S11316909BB1A16862680131A16028469847637BC9
S11316A0012B0AD148B909EB4513197B1A7F60F362
S11316B0410160F3410219731A770135082D4FEA8D
S11316C0460604F11004DED1BDE8F88300000440AE
S11316D03811002050200440B811002070B5044691
S11316E00125084E04B970BD94FAA4F0B0FA80F054
S11316F005FA00F324EA030456F82030002BF1D055
S11317009847EFE7BC1200204FF00072044BC3F877
S113171080211A604FF08062C3F880211A607047FC
S113172000E100E038B504460D4601F0E6F9034B4C
S113173043F82450BDE8384001F0E5B9BC1200205C
S1131740084BD3F82404D3F82024104042F220425A
S113175020F42A5020F02A004004400C9850FFF74F
S1131760BDBF00BF00C00340084BD3F82404D3F826
S11317702024104042F2204220F4AA4020F05500D8
S11317800004000C9850FFF7A9BF00BF00C003403D
S11317900123816480F850307047000038B5144646
S11317A001F0ABF90023A36484F84C302364237F55
S11317B00546012B03D104F15C0002F02DFB636BA1
S11317C01BB1E26B002120469847284601F09BF9A3
S11317D0636D002B03DC9E21034800F045FA636D22
S11317E00120013B636538BD8C5F00002DE9F043A7
S11317F01F46002387B080F850300E9B0446436395
S113180090F858308846C7633BBB4FF44063466941
S11318100568092E6B6123D9012605F12C03443593
S11318204FF00109616D049401316165124901971A
S1131830CDE90261CDF80090216BA06AFFF7FAFEB2
S11318400023CDE90176CDE90333CDF8009043467A
S11318502A46E16A606AFFF7D3FE07B0BDE8F08369
S11318600BBF05F1200305F1240338353C35082E60
S113187094BF00260126D3E79D1700004FF4406370
S11318802DE9F04346690468092E87B00546894668
S11318909046636123D9012604F12C0344340027C4
S11318A06A6D296B01326A65134A0495CDE90262B7
S11318B0CDF8048005F138020097A86AFFF7BAFE54
S11318C00123CDE903770093CDE901864B462246F7
S11318D0E96A686AFFF794FE07B0BDE8F0830BBFBE
S11318E004F1200304F1240338343C34082E94BF5B
S11318F000260126D3E700BF9D17000010B504465B
S1131900152001F01DF930B994F85030002BFBD0AC
S113191005E0FFF7A9FE94F85030002BF9D010BD74
S113192038B50546B0B1B9B1B2B1B2F5006F13DC48
S113193001F0E3F895F84C3003F0FF041BB101F01B
S1131940E2F8064838BD012385F84C3001F0DBF895
S11319502046F7E70248F5E70248F3E7032000F0E2
S1131960012000F0022000F02DE9F04387B06E461C
S113197004468F4F0D460FCF0FC697E8030086E845
S11319800300002C00F011811DB98A4807B0BDE89E
S1131990F08374220021204604F09EF900232A6873
S11319A0854963658A4240F0B2802821A4F84E102C
S11319B04FF4802198468148C4E90B0100232F4647
S11319C0261D226084F858300FCF0FC697E80F0009
S11319D086E80F006B7E012B08BF8DF80E30AB7EBE
S11319E0002B40F0A380ADF810302B7E0121012B99
S11319F003BF00238DF80D304FF47A73EB683A205F
S1131A00029300F09FFA0121B4F84E0000F09AFA14
S1131A102B691A1F0C2AB8D8033B694628688DF82D
S1131A200C3001F0CBFDAB6923F47F0323F47F4337
S1131A3023B92268936843F4803393602B7A28791E
S1131A40697940EA03406B7AAA7941EA0341AB7AA7
S1131A50EE7E42EA03425A4B4FEA48184344002EB2
S1131A6074D11D26C3F81C66C3F83406C3F82C16BB
S1131A70C3F83026E97AEA7942EA0142C3F820261B
S1131A80E37BE27A277F207A94F80980A57A217B88
S1131A9094F80D90A67B84F8442084F84530002FF8
S1131AA05ED13B46042201F073FA3B4601224946CB
S1131AB0404601F06DFAA37F0422012B94BF3B46FC
S1131AC001233146284601F063FAE37F3BB9012341
S1131AD0042294F8451094F8440001F059FA01F0F6
S1131AE00CF8384B1A78002A54D101221A7001F0EC
S1131AF00AF802F057F9FFF74FFD002104F1240022
S1131B00FFF71EFD0146002847D02F483EE72F4B24
S1131B109A427FF43AAF2923A4F84E304FF4A0231D
S1131B202B494FF00108C4E90B1347E7012B02D1FD
S1131B304FF4007357E7022B02D14FF4807352E73E
S1131B40032B7FF422AF4FF440734CE71C25C3F8FA
S1131B501C56C3F83406C3F82C16C3F830268FE796
S1131B600023012201F014FA0023042249464046CE
S1131B7001F00EFAA37F0222012B94BF002301235C
S1131B803146284601F004FAE37F002BA7D1012354
S1131B9002229EE700F0B7FFADE704F12800FFF74B
S1131BA0CFFC00283FF4F2AEAFE70A48EEE600BFF0
S1131BB0745F0000022000F000C005400200040031
S1131BC000C00340FC120020092000F00000064081
S1131BD002000500012000F0F7B51E46037F04460D
S1131BE0012B0F46154612D03246FFF799FE60B915
S1131BF07DB1094B2A460093394633462046FFF708
S1131C00F5FD2046FFF77AFEA06C03B0F0BD034853
S1131C10FBE70348F9E700BF91170000082000F034
S1131C20022000F0037F70B5012B04460E461546D2
S1131C3014D0FFF775FE80B9094B84F85000636334
S1131C4094F85830E56323B92A4631462046FFF715
S1131C5015FE2046FFF752FEA06C70BD0148FCE75C
S1131C6091170000082000F0FEE70000054A136801
S1131C70DB06FCD44FF04023D3F88400C0F381107A
S1131C80704700BF8440004038B5124B0546D3F876
S1131C9020310C4603F00303022B0BD0032B0DD091
S1131CA0012B0FD1FFF75CFA052305B1286004B1BD
S1131CB0237038BDFFF78AFA0323F6E7FFF79EFA8D
S1131CC00223F2E7044840F62851FFF7CDFF002332
S1131CD01846EAE700800040F65F0000F7B50024EC
S1131CE0114B0194D3F88051074605F00305012DEB
S1131CF00E4607D0022D11D040F644610B48FFF781
S1131D00B3FF04E0214601A8FFF7BEFF0D240FB185
S1131D10019B3B6006B1347003B0F0BDFFF76EFA6F
S1131D202C460190F3E700BF00800040F65F0000FE
S1131D3038B5194B0546D3F824310C4603F0070394
S1131D40013B052B20D8DFE803F0030F171B0B130F
S1131D50FFF706FA052305B1286004B1237038BDE6
S1131D60FFF7FEF90623F6E7FFF730FA0323F2E75D
S1131D70FFF72CFA0423EEE7FFF740FA0223EAE721
S1131D80FFF73AFA0723E6E704484FF4F571FFF743
S1131D906BFF00231846DEE700800040F65F00007A
S1131DA038B5124B0546D3F840310C4603F0030313
S1131DB0022B0BD0032B0DD0012B0FD1FFF722FAEE
S1131DC0092305B1286004B1237038BDFFF720FA58
S1131DD00823F6E7FFF719FA0A23F2E7044840F666
S1131DE05651FFF741FF00231846EAE70080004000
S1131DF0F65F000038B5154B0546D3F800320C46A3
S1131E0003F00703013B032B18D8DFE803F0020AB1
S1131E100E12FFF7F7F9092305B1286004B1237006
S1131E2038BDFFF7F5F90823F6E7FFF7EEF90A23C3
S1131E30F2E7FFF7B5F90C23800AEDE7044840F612
S1131E40F761FFF711FF00231846E5E70080004023
S1131E50F65F000038B5124B0546D3F840320C4605
S1131E6003F00303022B0BD0032B0DD0012B0FD156
S1131E70FFF7C8F9092305B1286004B1237038BD00
S1131E80FFF7C6F90823F6E7FFF7BFF90A23F2E7DD
S1131E90044840F68B61FFF7E7FE00231846EAE7A3
S1131EA000800040F65F000038B5124B0546D3F8B9
S1131EB060310C4603F00303022B0BD0032B0DD02F
S1131EC0012B0FD1FFF79EF9092305B1286004B156
S1131ED0237038BDFFF79CF90823F6E7FFF795F95F
S1131EE00A23F2E7044840F68451FFF7BDFE0023BD
S1131EF01846EAE700800040F65F00000F4B10B47C
S1131F00D3F820320A4603F00303012B0ED0022B30
S1131F1010D008B1002303600AB10023137040F20B
S1131F20132107485DF8044BFFF79EBE5DF8044B90
S1131F30FFF7AABE5DF8044BFFF732BF00800040F4
S1131F40F65F000070B5440905460E460DD1E42144
S1131F500D48FFF789FE05F01F058EB104F5805387
S1131F60012202FA05F51D6070BD012C06D0074A56
S1131F70074B022C14BF14461C46ECE7054CEAE759
S1131F8004F50053ECE700BFF65F000060820040F8
S1131F906880004064800040B0F5007F10B52FD009
S1131FA005D8D0B1B0F5C07F17D0002426E0B0F535
S1131FB0207F2BD0B0F5607FF7D1174BD3F880404A
S1131FC0C4F30114012C19D9032C17D040F2EF519A
S1131FD01248FFF749FE022410E00F4B1C6FC4F3B4
S1131FE00334012C0AD9032C08D0072C06D00F2C5B
S1131FF004D040F2E2510948FFF736FE601C10BDE0
S1132000054BD3F89040C4F30464F7E7024B1C6F0C
S1132010C4F38024F2E700BF00800040F65F0000B4
S1132020002337B53E280446019300F0BA8045D812
S11320302B282BD022D8232816D00FD820284CD0D8
S113204007D8002849D040F2AF115848FFF70CFEDA
S113205087E0212808D022283FD0F4E7292800F27D
S113206096802828C0F08980FFF79AF804464FF438
S11320702070FFF791FFB4FBF0F071E0312810D825
S11320802F28F1D22D2800F0878056D9FFF788F841
S113209004464FF42070FFF77FFFB4FBF0F04008D4
S11320A05EE03C2855D83A28DED238286AD0392850
S11320B0C9D1002101A8FFF73BFE52E0B0F5007F33
S11320C052D01BD8522858D00AD84D2805D002D84F
S11320D03F28C9D0B7E74F28B5D3FFF761F83FE0F1
S11320E080283BD004D8A0F16004012CF5D9AAE7DC
S11320F0B0F5807F21D0B0F5C07FADE7B0F5A06F1B
S113210040D010D8B0F5607F2ED006D8B0F5207F2F
S1132110AAD0B0F5407FB9D095E7B0F5806F2CD048
S1132120B0F5906FC4E7B0F5D06F35D00AD8B0F5EC
S1132130B06F2CD0B0F5C06F85D1002101A8FFF796
S11321402FFE0EE0B0F5E06F2BD0B0F5F06F7FF40A
S11321507AAF002101A8FFF7A7FE02E0FFF706F817
S11321600190019803B030BDFFF700F80546204602
S1132170FFF712FFB5FBF0F0F2E7002101A8FFF72B
S113218083FDEEE7002101A8FFF7B8FEE9E700218F
S113219001A8FFF7A3FDE4E7002101A8FFF72AFE49
S11321A0DFE7002101A8FFF755FEDAE7F65F00003C
S11321B008B58020FFF734FF044B98429FBF42F2DA
S11321C070034FF48031024AD15008BD005A6202B4
S11321D00080004070B541F268030E464FF40031B0
S11321E00E4A0546D1500020FFF7D6FE41F6713263
S11321F00B4B6843DC690B49DA639A68884204F440
S1132200803422F4401203D9012E18BF42F4801204
S11322109A600CB10022DA6370BD00BF00800040F8
S113222000000340005A620208B5FEF7CBFFBDE888
S113223008400021FFF7CEBF002307B5B0F5807F2B
S11322408DF807300FD030D82D2800F0868010D8B4
S11322502A2841D005D82438032831D940F2017105
S113226071E02C28FAD10DF107010020FFF798FD49
S113227037E03E2844D009D838287ED03D28EDD117
S11322800DF107010020FFF70FFE2AE0522817D0B6
S11322908028E3D13C4B1B6F03F00703013B032B66
S11322A04FD8DFE803F04C484666B0F5C06FDAD08B
S11322B01CD8B0F5906F4AD008D8B0F5806FCDD156
S11322C00DF107010020FFF7DFFC0AE0B0F5A06F75
S11322D053D0B0F5B06FC1D10DF107010020FFF765
S11322E0FDFC9DF8070003B05DF804FBB0F5F06F4A
S11322F0C6D00BD8B0F5D06F2FD0B0F5E06FADD10C
S11323000DF107010020FFF7A5FDEAE7B0F5006F26
S11323101DD0B0F5086FA1D11B4BD3F8003103F0E9
S11323200303022B1FD0032B21D0012B23D1FEF753
S11323304DFF032300E005238DF80730D1E7022386
S1132340FAE740F272611148FFF78EFCC9E70DF11C
S113235007010020FFF7ECFCC3E70DF107010020A3
S1132360FFF748FDBDE7FEF753FF0823E4E7FEF758
S113237043FF0723E0E70123DEE70DF10701002017
S1132380FFF7BCFDADE700BF00800040F65F000032
S1132390037870B50F2B044604D940F6EC2170483D
S11323A0FFF762FC63780F2B04D940F6EF216C48E9
S11323B0FFF75AFCA3780F2B04D940F6F2216848A2
S11323C0FFF752FCE3780F2B04D940F6F52164485B
S11323D0FFF74AFC23790F2B04D940F6F821604813
S11323E0FFF742FC63793F2B04D940F6FB215C489C
S11323F0FFF73AFCA3793F2B04D940F6FE21584855
S1132400FFF732FCE379032B04D940F60131544839
S1132410FFF72AFC237A032B04D940F604315048F1
S1132420FFF722FC637B012B04D940F606314C48AC
S1132430FFF71AFC8020FFF7FFFE032800F08680D8
S113244041F264034FF40021464AD15045F60E038D
S113245002F58042C2F88030022141F22803D150B3
S113246042F228030121D150916D11F48031FBD146
S1132470637820781B0543EA0063A079657C0343F5
S1132480E07843EA0043207943EA0033607943EA81
S1132490801313619369E07A03F000430343E07906
S11324A043EA8063207A43EA0063607A43EA0043A4
S11324B0A07A43EA00239361637B126A002B18BF5E
S11324C00821207B22F00D0243EA020343EA800341
S11324D041EA0301A27B244B4FEA42161962207C95
S11324E035D1996AE27B21F0330141F00101314396
S11324F041EA0211996219461C4A9E6D32EA0606A7
S1132500FBD1022241F228069A511A658B6D5B00B9
S1132510FCD40B69A27823F4700343EA02530B61E1
S11325204FF0004241F21803CA5018B942F228038E
S11325300222CA5025B942F2280301210A4AD15085
S1132540A37C1BB1084B0A4AC3F8802070BD9A6A69
S113255022F033022A43324342EA40029A62EFE70E
S1132560F65F00000080004000C00040030001400E
S1132570F1A7FFFF837810B5072B044604D940F672
S1132580B5312B48FFF770FBE378032B04D940F6F1
S1132590B7312748FFF768FB2378032B04D940F6AB
S11325A0B9312348FFF760FB94F90130002B04DABA
S11325B040F6BB311E48FFF757FB41F264034FF46A
S11325C080001C496278C8504FF4D1511A4B022044
S11325D0596241F204014F2A585042F204014FF06B
S11325E0010028BF4F2258501969C903FCD421782F
S11325F042EA01225A61E278A178120142EA0122F8
S113260061790A43217942EA41029A60E279A17927
S1132610120142EA4112617A0A43217A42EA4102F2
S11326205A60A27A12B16FF4D1525A6210BD00BF3F
S1132630F65F00000080004000000240014B18805B
S1132640704700BF401000200029CCBF01210021A9
S1132650FFF7C0BDB0F5007F10B553D00AD818B34A
S1132660B0F5C07F20D0BDE810404FF4C9613648B2
S1132670FFF7FABAB0F5207F56D0B0F5607FF2D1FB
S11326804C1E012C06D9042904D040F235612E4891
S1132690FFF7EAFA2D4AD2F8803023F0300343EAF8
S11326A00413C2F8803010BD102901F1FF3404D89E
S11326B0274B23FA01F1CB0704D440F219612248D5
S11326C0FFF7D2FAFFF7B0FD00F044F84FF4803181
S11326D041F270031D4AD150136F23F4704343EA4F
S11326E004331367FEF75CFD0446FFF7BFFAC0F13D
S11326F002012046FFF7A8FF00F032F8BDE81040C1
S1132700FFF756BD4C1E1F2C04D940F23C610E4805
S1132710FFF7AAFA0D4BD3F8901021F0F85141EAD3
S11327200461C3F89010BEE74C1E012C04D940F29A
S113273042610548FFF798FA044B196F21F4806150
S113274041EA84211967AEE7F65F0000008000408B
S11327501601010002214FF42070FFF77BBF000037
S113276008B54FF4C070FFF75BFCBDE808400449AE
S113277088428CBF022101214FF42070FFF76ABF09
S113278080F0FA02B0F5807F70B50C4613D04DD8B6
S11327902D2800F04A8121D82A2865D009D8243868
S11327A003284FD9BDE8704040F64B11B948FFF7F4
S11327B05BBA2C28F6D1092C00F007810A2C00F012
S11327C0FB80082C40F0FA800222B349D1F8403152
S11327D023F003031343C1F84031B9E03E2863D02A
S11327E017D8382800F05C813D28DBD1092C00F093
S11327F0F7800A2C00F0EB80082C40F0EA800222DB
S1132800A549D1F8603123F003031343C1F86031C3
S11328109EE0522816D08028C4D18B1E052B00F2CE
S1132820AB80DFE803F0A696A9B1A966B0F5C06F46
S1132830C1D02DD8B0F5906F00F0D4800DD8B0F58C
S1132840806FAFD1032C00F0A480052C00F0B2807F
S1132850022C40F0A88003229CE0B0F5A06F00F0A9
S11328601F81B0F5B06F9DD1022C08D00D2C00F063
S11328708E8040F276718748FFF7F6F90024864A85
S1132880D2F8803123F003031C43C2F880415FE097
S1132890B0F5F06FAAD01AD8B0F5D06F00F0C580AB
S11328A0B0F5E06F7FF47EAF092C00F019810A2C9B
S11328B000F00D81082C40F00C8102227649D1F8F9
S11328C0403223F003031343C1F8403240E0B0F533
S11328D0006F00F08780B0F5086F7FF463AF4C1E83
S11328E0072C00F2CD80DFE804F0D0CBD2CBCBCBE9
S11328F0C9BF002504260121022000F071F9FFF769
S113290093FCFFF727FF4FF4803141F27003624AD2
S1132910D150136F23F0070333431367FEF740FCD2
S11329200646FFF7A3F9C0F102013046FFF78CFE1B
S11329300121002000F0AAF9FFF712FFFFF738FC8D
S113294035B9032C04D142F228030121534AD15052
S113295070BD41F264034FF400214F4A0326D15065
S113296041F2280201214D4B9D6A9950C5F340055F
S1132970C1E700250126BEE7002540F23471454831
S1132980FFF772F92E46B6E700250226B3E70124C5
S113299075E702224049D1F8203123F003031343A1
S11329A0C1F82031D4E740F2A7713A48FFF75CF947
S11329B00022EFE70122EDE7032206E740F2C371AC
S11329C03448FFF751F90022FFE60122FDE6032215
S11329D016E740F2DB712F48FFF746F900220FE7B4
S11329E001220DE7023C052C16D8DFE804F00D03A4
S11329F0131C110F02232849D1F8242122F00702C5
S1132A001343C1F82431A3E70323F4E70423F2E7D3
S1132A100523F0E70623EEE74FF400611D48FFF7B6
S1132A2023F90023E7E70123E5E7083C042C12D847
S1132A30DFE804F003180D110F0002221649D1F843
S1132A40003223F007031343C1F8003280E7032266
S1132A50F4E70422F2E740F61D010E48FFF704F9FB
S1132A600022EBE70122E9E702220B49D1F8003109
S1132A7023F003031343C1F8003169E70322F4E7A9
S1132A8040F656010348FFF7EFF80022EDE7012274
S1132A90EBE700BFF65F00000080004000C000408C
S1132AA00D2C12D00E2C09D102220E49D1F820325D
S1132AB023F003031343C1F8203249E74FF40861BC
S1132AC00948FFF7D1F80022EFE70122EDE70322DE
S1132AD0F4E640F6CE010448FFF7C6F80022EDE61E
S1132AE00122EBE600800040F65F0000EFF3108067
S1132AF072B6704700B962B67047EFF311803023A5
S1132B0083F31188704780F31188704738B5C4B2D5
S1132B103F2C054604D940F2F5210748FFF7A4F8F5
S1132B20064B6D0953F8250004F01F04E040C04330
S1132B3000F0010038BD00BF5960000000E100E072
S1132B4038B5C5B205F10C03DBB24B2B044604D9EE
S1132B504FF421711F48FFF787F8EFF31083DB0769
S1132B6001D5012038BD2046FFF7D0FF0028F8D159
S1132B70002CABBF04F16044174B04F5614405F02D
S1132B800F05ACBF94F800235A5D1209EFF31183CB
S1132B9013B1B2EB131FE4D2104C6368C3F3080300
S1132BA0002BDFD0103BDBB259B20029B5BF03F0D4
S1132BB00F0301F16043043B03F56143B6BF1B19E6
S1132BC093F80003187E0009824234BF00200120DC
S1132BD0C8E700BF5960000014ED00E000ED00E01C
S1132BE02DE9F0410546254A1368D806FCD44FF078
S1132BF04023D3F88430C3F381139D423CD0FEF7C5
S1132C00B5FA012D06460BD11D4B984204D940F26A
S1132C10C2511C48FFF728F801213046FFF714FD84
S1132C20FFF764FF4FF00072174B4FF040241A6017
S1132C304FF4806307466A1E9340DFF84880236799
S1132C40636E9A0103D4D4F884309B060AD53846BF
S1132C50FFF750FF022D0FD13046BDE8F0410021AF
S1132C60FFF7F2BCD4F884309906E9D540F2CF518D
S1132C704046FEF7F9FFE3E7BDE8F08184400040F9
S1132C80005A6202BD6000006460004010B50C464A
S1132C9008B9FEF76BFA074B21461B783BB1064B8C
S1132CA0984204D80120BDE81040FFF799BF0220E4
S1132CB0F9E700BFFD120020005A62024FF04022E3
S1132CC0D36E017923F030030B43D36670470000C1
S1132CD041F264034FF00041174A10B5D15001216D
S1132CE041F204024AF6CD34144B99505A6C1C64D8
S1132CF00A4088B99868C40705D542F208001950FB
S1132D00D96AC807FCD542F204010120585012B117
S1132D100A4B0B4A1A6410BDD96A0907FCD442F263
S1132D2024012020585041F2080101205850034941
S1132D304B6A9B06FCD5EAE700800040004009404E
S1132D403254FFFF38B54FF0004141F26403184A92
S1132D50184CD150012241F20403E2504AF6CD331B
S1132D60656C236443781540934013434FF040222D
S1132D70D363A368827823F0740343EA0213C2780E
S1132D80002A14BF042200221343A360027983792A
S1132D9043EA022323614279C379007843EA022398
S1132DA06361FFF795FF0DB1034B2364012038BD28
S1132DB000800040004009403254FFFF38B50D4602
S1132DC00446D8B101281CD002281CD003280CBF0B
S1132DD00C230023EB40DB0704D44FF482610B483F
S1132DE0FEF742FF3020012141F21003604300F15D
S1132DF08040A94000F57030C15038BD40F2FF1347
S1132E00E8E71F23E6E7FF23E4E700BF0C5F0000C9
S1132E1038B50D460446D8B101281CD002281CD070
S1132E2003280CBF0C230023EB40DB0704D440F23F
S1132E30E1310B48FEF718FF3020012142F2100364
S1132E40604300F18040A94000F57030C15038BDA6
S1132E5040F2FF13E8E71F23E6E7FF23E4E700BFA0
S1132E600C5F000070B5054614460E46FFF73EFEA3
S1132E702A68544004EA060151402960BDE87040C4
S1132E80FFF738BE2DE9F8430D4617469846064627
S1132E90002850D0012851D0022851D0032814BF53
S1132EA000230C23EB40DB0703D4BF212E48FEF79D
S1132EB0DBFE85EA070333F0030303D0C1212A486C
S1132EC0FEF7D2FE072F05F003054FF0030439D8AF
S1132ED04FEA870904FA09F406FA09F2214623485D
S1132EE0FFF7C0FF2146224805FA09F2FFF7BAFFAF
S1132EF0204B214A9DF820002049B8F1000F0CBF57
S1132F009846904601220433002818BF0B46BA4065
S1132F10C8F800201A6042F2204319499DF82400A1
S1132F20CA50184B01F5A1510431002818BF0B46B3
S1132F301A60BDE8F88340F2FF13B3E71F23B1E73B
S1132F40FF23AFE7A7F108094FEA890904FA09F456
S1132F5006FA09F221460C48FFF784FF05FA09F244
S1132F6021460A48C2E700BF2061000000C40340B4
S1132F7008C4034010E4034010D4034014D40340B5
S1132F8000C0034024E4034004C403400CC40340D1
S1132F90F8B50C4615461E46074678B3012830D0CE
S1132FA0022830D0032814BF00230C23E340DB079E
S1132FB004D440F21D112048FEF756FE25B12146E7
S1132FC0384616B3FFF7FAFE30237B43072C03F190
S1132FD0804303F570331BD80F205A68A100884042
S1132FE022EA000205FA01F10A435A6015BB2146A0
S1132FF03846DEB1BDE8F840FFF7E0BE40F2FF130B
S1133000D4E71F23D2E7FF23D0E7FFF701FFDBE775
S11330100F2004F18042083AD9689200904021EAD6
S1133020000105FA02F20A43DA60DFE7BDE8F8407E
S1133030FFF7EEBEF8BD00BF2061000010B50446E6
S113304018B98F211F48FEF70FFE23781B0613F0D3
S1133050604F03D091211B48FEF706FEE3780F2B47
S113306003D9A1211748FEF7FFFD01212020FEF717
S113307069FF01212120FEF765FF0122124B5A60EE
S1133080227812069A606178A27842EA01429A6133
S1133090FF229A6200229A631A644FF000424FF0B2
S11330A0FF315A6542F2500299504FF40011074A19
S11330B0C2F88011E3781B01DBB282F8153311608A
S11330C010BD00BF846100000000044000E100E086
S11330D02DE9F0410126C3B2072807460C46904665
S11330E006FA03F603DDE9213648FEF7BDFD1CB9F7
S11330F0EA213448FEF7B8FD236823F47C1323F057
S11331000F031BB1ED212F48FEF7AEFDA37A1B047C
S113311013F47C0F04D040F207112A48FEF7A4FDF3
S1133120E37A1B0513F07E6F04D040F209112548A1
S1133130FEF79AFD237B5B0513F0FE5F04D040F29B
S11331400B112048FEF790FD21681F4A637B42F86B
S1133150271030221D4D02FB07573B66E37AA27A03
S11331601B0543EA0243227B43EA4253FB6528F0F2
S113317003033B6742F25003EE50FFF7BEFC6B6D56
S113318033436B65237A13B12B6C33432B64637A1B
S113319013B1AB6B3343AB6342F218012379A279C9
S11331A042EA0342094B5A506179E27942EA014208
S11331B041F218015A50064A16609E64BDE8F04177
S11331C0FFF7A1BC846100000040044000000440FB
S11331D0342004404FF090435A6812B19A6A002A8E
S11331E0FAD17047022838B505460C4603D94C215C
S11331F00C48FEF739FDE378627821785B0143EAF5
S1133200820322790B4343EA02130C226A4302F13C
S113321090421363012902BFA278034B43F825208F
S113322038BD00BFE8610000E880034008B54FF0F6
S113323090435A6802B960B15B680BB1FFF7CAFFEB
S11332404FF0904130B10120074B1860FFF7C2FFE7
S1133250C86008BDFFF7BEFF0223CB60FFF7BAFFCB
S11332600122024B1A60F4E70410004804200048CD
S11332704FF090435B6870B50BB1FFF7ABFF0121D2
S1133280104B0679196083784578002BC37814BFF6
S113329002240024002B14BF042200224379DB0003
S11332A043EA06132B43234313434FF090429360A6
S11332B0054B19600378002B14BF0B460223D3601F
S11332C070BD00BF04200048041000482DE9F041FF
S11332D0064688461D46174622B94FF4A1712F4869
S11332E0FEF7C2FCB8F1000F04D14FF42070FEF7D2
S11332F097FE8046202D3AD007D8A5B1BDE8F0410D
S113330040F289112548FEF7AFBC402D39D0602D1D
S1133310F4D1B7EB980F04D940F283111F48FEF79C
S1133320A3FC042208E0B7EB181F04D94FF4BA71C8
S11333301A48FEF799FC10227A43540804EB481407
S1133340B4FBF2F4164F203CE400BC4204D940F232
S11333509F111248FEF788FCB3683C4023F06003D9
S1133360B360B3681D43B560F461BDE8F081B7EBA9
S1133370D80F04D940F279110848FEF775FC0822E9
S1133380DAE70624B8FBF4F3BB4204D24FF4BF716E
S11333900248FEF769FC2246CEE700BF4C620000FB
S11333A0F8FF7F0070B506460C46154622B940F278
S11333B086210C48FEF758FC24B94FF42070FEF720
S11333C02FFE0446013C6D00B4FBF5F42402E30D2A
S11333D0DB0523B140F2A3210248FEF745FCF4616A
S11333E070BD00BF4C62000038B50E4B04469842D5
S11333F00D4608D003F58043984204D040F2BE2124
S11334000948FEF731FC012241F20403E250EB4388
S1133410934003F00A036361656115B942F2040342
S1133420E25038BD00C005404C6200001A4B10B594
S11334309842044608D003F58043984204D040F2F1
S11334402B411648FEF710FC41F204030122E2501E
S113345040F6AA6341F2050263610023A360E365B9
S1133460E26042F248020E492361E361E364A15041
S1133470094AA365944202D00A498C4207D1944276
S1133480236502D0074B9C4201D10023636542F2BD
S113349004030122E25010BD00C005404C6200004C
S11334A0FFFF01000000064038B5404B0446984237
S11334B00D4608D003F58043984204D040F2EF2132
S11334C03B48FEF7D1FB2046FFF7B0FF41F204036F
S11334D00122E250AB7C1BB1A36843F08043A3609C
S11334E0EB7C5BB1314A2B7D944243D1A2F510327F
S11334F0C2F88C31E36D43F08003E3652A8A6B7B69
S113350020461343EA891343E360D5E901122B7B78
S1133510FFF7DCFE6B7D1BB1A36843F48033A3602B
S1133520AB7DEA7D1B07120502F4E00203F0E043E1
S1133530297E1343A3658B1E012B1C4A1D4B23D8E4
S113354094421FD002F5804294420CBF01224FF0F6
S1133550FF3203EB4213022041F21C62032998500C
S11335600CBF41F25C0342F25C030422E2502B786C
S1133570636138BD104A944204BFA2F52032C2F8F8
S11335809C31B7E70022E4E794420DD00A4A944202
S11335900CBF01224FF0FF3203EB4213022042F230
S11335A01C6201299850DBE70022F5E700C00540C2
S11335B04C62000000C003400000064038B5304BA8
S11335C0044698420D4608D003F58043984204D03F
S11335D040F256312B48FEF747FB2046FFF726FF03
S11335E041F204030122A97BE2502A8AA36800293C
S11335F042F0010214BF4FF48061002113432A7D7D
S11336000B43002A14BF4FF000520022A360A368AA
S11336101343A360AB7C5BB1194AEB7C944227D182
S1133620A2F51032C2F88C31E36D43F08003E365F8
S11336302B7BD5E9011243F48053E3602046FFF766
S1133640B1FE6B7B0BB1102363616B7D1BB1A3686F
S113365043F48033A360AB7DEA7D1B07120503F0BE
S1133660E04302F4E0021343A3652B78636138BDA1
S1133670054A944204BFA2F52032C2F89C31D3E734
S113368000C005404C6200000000064083691B0630
S1133690FCD5406AC0B2704783695B06FCD5C16340
S11336A07047000007B56B46054A1068516803C3AC
S11336B06846FFF747FB002003B05DF804FB00BF3A
S11336C0B16200004FF0402213B50024536F6846E6
S11336D043F00103536700948DF80440FFF7EEFABA
S11336E0204602B010BD000070B586B001AA154690
S11336F0114B03F11006144618685968083303C4C3
S1133700B3422246F7D14FF6FF7219889B78218085
S1133710A3700A4B0A481B88934208BF8C23DBB270
S11337208DF80D308DF80E30FDF756FD2846FEF766
S11337302FFE002006B070BDB96200000001E00F4A
S113374000F049021FB50B4A01AB1068516803C36E
S11337501189927A19809A70192301A88DF805307D
S1133760FEF708FF6420FEF769FF002005B05DF84E
S113377004FB00BFCC6200006FF00402502110B5BE
S11337800A480B4C12F0800FD3B21BBF03F00F0397
S1133790043BA3181B1802F101020CBF83F80013A9
S11337A01976402AEED1002010BD00BF00ED00E0E4
S11337B000E100E010B50446FFF798F9024B1C60E5
S11337C0FFF798F9002010BD0013002010B5FFF793
S11337D08DF9034B1C68FFF78DF9204610BD00BF1F
S11337E00013002070B50C46154610B9FFF7EEFF24
S11337F038B143682BB12A462146BDE870400068C1
S11338001847232070BD07B502AB03F8011D012240
S11338101946FFF7E7FF03B05DF804FBFEE780F805
S11338202010704790F8200070472DE9F8430026D7
S1133830044690461D461E604F1E2B68434506D322
S11338402B68002B0CBF1B200020BDE8F883FFF77A
S113385054F9D4F81490FFF756F9B9F1000FEFD0EA
S1133860E368A269D35C07F8013FE368E2690133C6
S11338709342E36008BFE660FFF73FF96369013BE9
S11338806361FFF740F96368204698472B6801336A
S11338902B60D2E790F8203070B505460C468E18A0
S11338A0ABB1B44201D1002070BD23780A2B03D1FF
S11338B02B680D21284698472B6814F8011B2846CD
S11338C09847EEE72B6814F8011B28469847A64250
S11338D0F8D1E8E770B504460568FFF777FF84423E
S11338E002D10020FFF766FF95F92130002B11DB90
S11338F0012203F01F015B099B0003F160438A402E
S113390003F56143C3F88021C3F88020BFF34F8FD0
S1133910BFF36F8F00232846C4E90033A360C4E9D2
S11339200433AB68BDE8704018470000F8B51F4683
S1133930536805460C461646002B36D09368002B78
S113394035D024220021204602F0C6F97368194AB2
S1133950A361B368E361337B276084F82030069B5E
S11339606360079BA36096F9003084F821306A6095
S1133970114A002BAA60114A2C602A61104A6A611C
S1133980104AEA600CDB012203F01F015B099B0073
S113399003F160438A4003F56143C3F880211A6050
S11339A02846FFF707FF0020F8BD2220FCE721206E
S11339B0FAE700BF953800002B3800001F380000DC
S11339C025380000D53800004269C06982422CBF06
S11339D0002001207047000038B54269C3690446DD
S11339E09A420D4604D34FF4AE710948FEF73CF9F0
S11339F02369A269D5546269236901326261E2696B
S1133A0001339342236104BF0023236138BD00BF07
S1133A10D7620000426AD36C43F00403D364704756
S1133A2010B50446426A93695B06FCD5002394F8FA
S1133A302B101A4694F82A00FFF7AAFA002394F8E8
S1133A402D101A4694F82C00FFF7A2FA94F832309D
S1133A503BB1002394F82F101A4694F82E00FFF778
S1133A6097FA94F832303BB1002394F831101A4697
S1133A7094F83000FFF78CFA606A0021FFF7B4FC79
S1133A80208D0021FEF75EFA002010BD08B5406AC3
S1133A90FFF702FE002008BD2DE9FF4101261C4668
S1133AA0564B0A9D0193564B904600930A46CDE926
S1133AB00266544B2946FFF739FF0746002877D1A1
S1133AC0236831466B62A3883A202B85E37985F815
S1133AD02B30A37985F82A30637A85F82D30237A40
S1133AE085F82C30E37A85F82F30A37A85F82E30C8
S1133AF0637B85F83130237B85F83030FEF722FA7A
S1133B0033460422E179A079FFF742FA33460222D0
S1133B10617A207AFFF73CFA3146A088FEF712FA60
S1133B20414688F800702068FFF7BEFC1422A37B8E
S1133B305B0103F1804303F57033C3F81C26E1797C
S1133B40A27942EA0142C3F83426617A227A42EA2F
S1133B500142C3F82C2685F8327098F81830032BEC
S1133B6049D8DFE803F01A022943012385F83230EB
S1133B70002500230222E17AA07AFFF709FAE37A0A
S1133B80A27AA17B42EA03421F4B49015A5041F2F7
S1133B905C0304212268D1508DB942F24803042207
S1133BA020680521C250C36C1343C364FFF71CFC97
S1133BB0384604B0BDE8F081022385F83230002392
S1133BC00422617B207BFFF7E3F9022541F21C61AB
S1133BD0A27B0E4B03EB42104550607B217BB1323C
S1133BE041EA004103EB42139960D6E7032385F8C9
S1133BF032300125BDE72327DAE700BF213A000070
S1133C00153A00008D3A000024D6034000C003405A
S1133C10436A10B59B6904461B0610D5FFF7D4FE12
S1133C2040B1606AFFF732FD01462046BDE810400E
S1133C30FFF7D2BE626AD36C23F00403D36410BDD1
S1133C4000230B7070470000104A30B513684161BF
S1133C501546ABB91060836011E0091B9C68416193
S1133C601A467CB123465C698C42F6D9002CF4D008
S1133C7052B19060836013B15A69511A596130BDD1
S1133C800022F0E72346F4E72860F3E71C13002042
S1133C9010B500F023FA094B094A196831B11368C9
S1133CA0C41A4B69A34203D31B1B4B61106003E08E
S1133CB0C01A002310604B6110BD00BF1C1300200C
S1133CC00813002038B50F4D02202B685C690E4B99
S1133CD01B681C4400F03EFA204600F00BFA002357
S1133CE00A492A680B70D088800702D501230B701B
S1133CF038BD9268002AFBD050690344012BF2D9E5
S1133D00F6E700BF1C130020081300201013002046
S1133D1070B59DF81450164605710025049A856007
S1133D20BDF818500446C5800260C0E903360D464C
S1133D3029B961610BB11146984796B13546FEF732
S1133D40DCFE0646FFF7A4FF29462046FFF77CFF6A
S1133D50054B1B68A34201D1FFF7B4FF3046FEF7C1
S1133D60D2FE002070BD00BF1C13002000210C4AAD
S1133D7013687BB183420AD1836879B18B6083680D
S1133D801BB15A6941690A445A61002070471946B7
S1133D909B68EEE70028EFD0022070471360EEE73F
S1133DA01C13002070B5FEF7A8FE144E05463478A7
S1133DB0FCB9134B1C60134B1C60134B1C8000F0AC
S1133DC049F9012000F0C6F900F002FA0F4B02464F
S1133DD0186020B92846FEF796FE232070BD2346BE
S1133DE00B4840F2E73101F0B5FD0A4B186001239E
S1133DF033702846FEF787FE0020EFE70413002007
S1133E001C13002008130020121300201813002094
S1133E1018FCFFFF0C1300202DE9F0410546F8B112
S1133E20FEF76BFE0F4F0646FFF732FF2846D7F822
S1133E300080FFF79BFF044628B13046FEF763FE7F
S1133E402046BDE8F081A8453B6803D123B1FFF7C4
S1133E5039FFF2E7002BF0D1022000F087F9ECE7FC
S1133E602224EDE71C13002038B50C46054698B112
S1133E7091B100230B70FEF740FE0121074B1B6834
S1133E800BB122781AB1FEF73EFE002038BD9D42E8
S1133E900CBF21709B68F3E72220F7E71C13002076
S1133EA0F0B51F46002387B00D4616468DF817302F
S1133EB00446A0B10DF11701FFF7D6FF9DF81720B6
S1133EC07AB9BDF83430294602939DF83030204643
S1133ED0CDE900733346FFF71BFF07B0F0BD222086
S1133EE0FBE70320F9E70000044B1B6858434FF439
S1133EF07A73B0FBF3F00130704700BF1813002051
S1133F00012300B58BB00AAA02F8193DFFF7ECFFB4
S1133F1000230146CDE9003304A81346054AFFF700
S1133F20BFFF18B99DF80F30002BFBD10BB05DF823
S1133F3004FB00BF413C0000C2072DE9F84F0446D2
S1133F400BD53F4A138801339BB21380FFF7A0FEC1
S1133F503C4B1B680BB1FFF7B5FEA3076DD500F012
S1133F60BDF8394F00263D688046451BFEF7C5FD68
S1133F70B24683463246334B1C6814B16369AB4284
S1133F8014D9012E314B51D1D288022A4ED11E7040
S1133F90002C4ED06369C7F800805D1B6561FFF794
S1133FA091FE5846BDE8F84FFEF7ADBD23462A46BC
S1133FB0C7F800805969914209D8187994F804C067
S1133FC0521A844588BF1C469B68002BF2D1584680
S1133FD0FEF799FDD4F814B0C4F814A0FEF78DFDD3
S1133FE081462046FFF7C2FE4846FEF78CFD236952
S1133FF04BB1FEF782FD814621692046FFF724FE7E
S11340004846FEF780FDE36813B1216820469847CF
S113401000F064F8D844A5EB080581460544FEF792
S11340206CFD013683462246C846A4E700221A7076
S1134030AEE7022000F09AF8B3E7BDE8F88F00BFBE
S1134040121300201C130020081300201413002056
S1134050002070471FB500241D4B012118689A8861
S1134060029053F8060FADF80C201B7900903E2007
S11340708DF80430FDF766FF8DF80840FFF7E8FF80
S11340808DF80C0002A8FFF7F3F8694601208DF8BB
S11340900040FFF7A7F84FF0904340F2FF319A69D0
S11340A022F47F7222F003029A610A4A11609A6A2A
S11340B012F00802FBD11A620120FFF7B7F84FF49F
S11340C08052054BC3F880211A6004B010BD00BFB4
S11340D04F6300001420004800E100E04FF09043DB
S11340E09A6A1207FCD4186A70474FF09043186C10
S11340F07047000010B502464FF09044A36A1907B8
S1134100FCD4216AFFF7F1FF63695B0604D4431A08
S1134110022B01D888420ED1531A012B98BF8A1C56
S11341204FF09043B2F1FF3F28BF01321A649A69FD
S113413042F040029A61064A13783BB14FF0904135
S1134140CB6B43F00203CB630023137010BD00BF9D
S11341504210002082074FF0904200F00103916961
S113416048BF43F040030B4393617047830700F05B
S113417001020AD50121084B42F0400219704FF0A8
S11341809041CB6B23F00303CB634FF090418B69D9
S113419023EA02038B6170474210002010B5FEF73A
S11341A0ACFC4FF0904304465B695A06074A03F09F
S11341B0010003F0510348BF40F002001360FFF711
S11341C0BBFE2046BDE81040FEF79DBC142000480D
S11341D008B53E20FDF724FF0346FFF739FF23FA15
S11341E000F008BD08B5FCF7F9FEFCF727FFFCF763
S11341F02CFFFCF731FFBDE80840FCF72EBF08B5E3
S1134200FCF72CFFFCF72BFFFCF72AFFBDE8084066
S1134210FCF727BF70472DE9F84F99460D9B1646CA
S113422014469A0707468846DDF82CA01ED00A9B40
S113423003EB0A0504EB050B0A9BABEB05029D425D
S113424017D10D9B04EB0A029B071ED41046BDE850
S1134250F88F224604F1010B4B4641462020B84713
S11342605C460C9A2B199A42F3D8E0E7AAEB0605B0
S1134270F7E74B46414615F8010DB847DCE7541CF7
S11342804B4641462020B84722460C99931B99423D
S1134290F5D8DBE72DE9F047DDE90D7616F0020FDE
S11342A0DDE908549DF828E0DDE90BC81FD106F0CC
S11342B001094FB1B9F1000F06D0BEF1000F02D1D0
S11342C016F00C0F00D0013F4FF0300A04E0202C10
S11342D004D005F804A001344445F8D34FF0300A63
S11342E0B9F1000F03D0BC4201D21F2C34D916F00F
S11342F0100F1FD016F4806F33D194B3444501D00E
S1134300BC422ED1B4F101082AD0BCF1100F38D12F
S1134310023C16F0200F2FD11F2C15D84FF0780C2B
S113432005F804C001341F2C0ED84FF0300C05F8EA
S113433004C001341F2C07D8BEF1000F23D04FF066
S11343402D0C05F804C00134CDE90A76CDE90854F2
S1134350BDE8F047FFF75FBF05F804A00134BFE7ED
S11343604446BCF1100FD4D0BCF1020FDBD11F2C9A
S1134370EAD84FF0620CD3E71F2CE5D84FF0580C65
S1134380CEE74446F0E716F0040F02D04FF02B0CB2
S1134390D7E716F0080FD7D04FF0200CD1E72DE95E
S11343A0F04190B0169DDDF860C01B9F0DB927F059
S11343B010077C0500D585B317F0200F4FF00006D9
S11343C014BF4FF037084FF05708B5FBFCFE0CFB49
S11343D01E5EB5FBFCF55FFA8EF4BEF1090F94BFC7
S11343E03034444401360DF1200EE4B2B6440EF8E4
S11343F0014C0DB1202EE8D11A9C06970594199C06
S1134400CDE903C49DF85C40CDE9016408AC009497
S1134410FFF740FF10B0BDE8F0812E46ECE72DE930
S1134420F04F93B0249D07468846DDE91C019A4667
S1134430DDE92063099350EA010308BF25F0100564
S11344406B05914602D550EA010333D015F0200FD5
S11344504FF0000414BF4FF0370B4FF0570B3246A8
S1134460099B01F077FA8C46D2B2092A94BF303204
S11344705A4401340AA92144D2B201F8012C6146FC
S113448050EA010301D0202CE9D1239B0695059322
S1134490229B4A46CDE903639DF878304146CDE935
S11344A001430AAB009338465346FFF7F3FE13B0BB
S11344B0BDE8F08F0024E8E708B100F0A9BD70471B
S11344C02DE9F04F97B0CDE90701DDE92297924637
S11344D09B46DDE9202310461946249E01F0C0F9CD
S11344E060B90323CDE902760193A74B00935246AA
S11344F0DDE907015B46FFF78EFE42E04FF0FF3235
S1134500DDE920016FF4801301F0B4F928B104232C
S1134510CDE9027601939D4BE8E74FF0FF32DDE9E8
S113452020019B4B01F0C4F968B19A4A06F00403D8
S1134530002B18BF0422984B04BF13460322CDE975
S113454002760192D2E78CA3D3E90023DDE92001AE
S113455001F0AEF938B98AA3D3E90023DDE92001DB
S113456001F088F980B1DDE907019DED207BCDE9FB
S11345700376CDF808908DED007B5B46524600F043
S113458013F917B0BDE8F08F0022DDE92001002304
S113459001F070F900286BD0DDE920230020002110
S11345A000F03EFD0123CDE92001099316F4806F4C
S11345B008BF4FF00609002430220EABB9F1090FF1
S11345C005D9E2540134202C09F1FF39F6D1DDE993
S11345D0200101F077F9714B054603EBC90393ED14
S11345E0007B8DED0A7B00F069FE02460B46DDE997
S11345F0200100F015FDDDE90A2300F0C9FECDE934
S11346000C0101F087F9804600F048FE02460B4693
S1134610DDE90C0100F004FD0022614BCDE90C0141
S113462001F046F930B308F10108404600F036FEC7
S113463002460B46DDE90A0101F026F910B14FF0FC
S113464000080135B9F1000F25D00A230EAA202C49
S11346503DD106F00303012B0EAB73D1002F71D0B3
S1134660099A12B916F00C0F00D0013F302261E014
S113467009909BE70022DDE90C01494B01F0FAF8AF
S11346800028DFD1B8F1000F02D018F0010FD9D003
S113469008F10108D6E7284600F010FE02460B4652
S11346A0DDE9200100F0BCFC00223D4B8046894638
S11346B001F0E0F830B10022394B4046494601F0A0
S11346C0F7F810B1E80700D501350A232DE0B8FB4F
S11346D0F3F103FB1188013408F13008101900F8D4
S11346E0018C09F1FF3988460029B0D13021A14459
S11346F0202CAED0A14504F1010306D116AA14441E
S11347002E2204F8202C1C46DFE711551C46EFE747
S11347100EAA0134111995FBF3F203FB125530353F
S113472001F8015C1546002A93D01F2CF0D990E7BC
S11347301A550134A74205D91F2CF9D9CDE90276BF
S11347400194D3E61F2CF9D8099A32B12D2116AA67
S1134750224402F8201C0134F0E7710703D516AA9D
S113476022442B21F5E73207E8D516AA224420215A
S1134770EFE700BFAFF300800000000065CDCD413E
S11347800000000065CDCDC16363000067630000D5
S1134790FFFFEF7F5F6300005A6300007063000057
S11347A00000E03F000000002DE9F04F93B09DEDC4
S11347B01C7B0D929B46DDE91E530C9353EC172B87
S11347C0CDE9080117EE100A19468DED067BDDF8D8
S11347D080A001F045F880B1DDE906014FF0FF3219
S11347E0C14B01F065F840B9DDE906014FF0FF3235
S11347F06FF4801301F03EF888B1DDE908010C9BE9
S11348009DED067BCDE91E535B460D9ACDF880A045
S11348108DED1C7B13B0BDE8F04FFFF751BE0022B5
S1134820DDE90601002301F025F8002800F06C8181
S1134830DDE9068303F10049C9F30A501AF48063E1
S1134840A0F2FF3008BF06250F9300F037FD96A3B2
S1134850D3E9002300F09CFD95A3D3E9002300F0E5
S1134860E1FBCDE90A014FF0FF30A04900EA08035B
S113487001EA09041E46274600209D4906430F43CA
S113488000229C4B3046394600F0CAFB8AA3D3E988
S1134890002300F07DFD02460B46DDE90A0100F02D
S11348A0C1FB01F00FF8044600F008FD84A3D3E92E
S11348B0002306460F4600F06BFD00228E4B00F0ED
S11348C0B1FB00F0FFFF80A3D3E900230E9039462B
S11348D0304600F05DFD06460E980F4600F0EEFCF3
S11348E07BA3D3E9002300F053FD02460B46304678
S11348F0394600F095FB02460B4606460F4600F08B
S113490047FD3246CDE90A013B463046394600F0C0
S113491089FB0022CDE91001DDE90A01774B00F0A3
S113492061FE0022764B00F07DFB02460B46DDE97A
S11349300A0100F057FE0022724B00F073FB02469E
S11349400B46DDE90A0100F04DFE3246CDE90A01CD
S11349503B4600204FF0804100F062FB02460B46CC
S1134960DDE90A0100F05EFB02460B46DDE91001B9
S113497000F038FE00225E4B00F054FB0E9B002238
S113498003F2FF36330500F003FDCDE90A010246C8
S11349900B464046494600F06DFF40B1DDE90A018F
S11349A00022574B00F01EFECDE90A01013C04F140
S11349B06303C72B34BF042605261AF4006F1ED0E8
S11349C045A3D3E900234046494600F067FF002889
S11349D000F09D8042A3D3E900234046494600F0FD
S11349E049FF002800F093800026AC42B4BF2D1B81
S11349F000253446B8BF05F1FF354AF4806A0C9BA4
S1134A00B3428CBF9F1B00271AF002030E9302D0FF
S1134A10002E18BF00273CB1DDE90A234046494671
S1134A2000F0E0FD80468946DDE90601002200230E
S1134A3000F020FF10B109F100439946DDE90801B7
S1134A402AF40063CDE903730295CDE900895B463E
S1134A500D9AFFF735FD26B31AF0200F00F101057A
S1134A6002465B4614BF452065200999089FB84754
S1134A70DDE908010523002205930A23002CCDE972
S1134A80023206F1FF364FEAD473B8BF6442019391
S1134A9004965B4600942A46FFF781FC0E9B002B8C
S1134AA046D113B0BDE8F08FFB799F501344D33F38
S1134AB0B3C8608B288AC63F61436F63A787D23F20
S1134AC071A379094F930A401655B5BBB16B0240E7
S1134AD0EF39FAFE422EE63F2D431CEBE2361A3F35
S1134AE00000000080842E41FFFFEF7FFFFF0F00D6
S1134AF00000F03F0000F83F0000E03F00002C40C1
S1134B000000244000001840DDE9068994E6002DE9
S1134B103FF475AF0F9B002B3FF471AF013D6EE77F
S1134B20441C02465B4620200999089DA84720465C
S1134B300D9B0C9AC31A9A42F2D8B2E72DE9F04FB2
S1134B401E46B84B17468846002914BF82469A462B
S1134B5000248FB0189D307860B9BC422CBF07F197
S1134B60FF3222463B4641460020D04720460FB044
S1134B70BDE8F08F252806F1010607D0224604F18E
S1134B8001093B464146D0474C46E4E7002306E092
S1134B902D2A15D0302A0CD143F001030E4631469C
S1134BA011F8012B2B2A0ED0F2D8202A0ED0232A5A
S1134BB00FD0A2F1300009282AD800220A9212E06C
S1134BC043F00203EAE743F00403E7E743F0080392
S1134BD0E4E743F01003E1E70A260A9806FB002203
S1134BE00E46303A0A92314611F8012BA2F13000F8
S1134BF00928F1D932782E2A3CD17178721CA1F19E
S1134C003000092843F480632BD84FF0000915E0E5
S1134C102A2A0AD12A68281D002ABCBF524243F01E
S1134C2002030A9205460E46E4E700220A92E1E7EF
S1134C300A2202FB09190246A9F13009104610F8AC
S1134C40011BA1F13006092EF2D916463278711CE7
S1134C506C2A19D011D8682A1DD06A2A4CD0314642
S1134C601EE02A2905D12A68023622EAE2790435AF
S1134C70ECE716464FF00009E8E7742A01D07A2AD7
S1134C80EDD143F480730BE072786C2AF9D143F4CC
S1134C904073B11C04E07278682A2AD043F0800380
S1134CA00E4616F8010B652800F0ED8075D84728EC
S1134CB000F0E98023D8452800F0E5807FF65EAF58
S1134CC0462808BF43F0200304930A9B0735CDE927
S1134CD0029325F0070202F108054146D2E90023B8
S1134CE05046CDE900233B462246FFF7E9FB044644
S1134CF031E743F0C003CCE743F40073D0E7622804
S1134D0003D1022223F00C0315E006D858287FF4BF
S1134D1035AF43F020031022F4E7632800F0D3807A
S1134D2064287FF42BAF692823F010034FF00A02A4
S1134D3001D06428E6D1590548BF23F0010369284E
S1134D4003F4007101D064286ED1002948D00735DE
S1134D5025F00705D5E9001008930A9B0029CDE941
S1134D6006934FF00003049205930A464FEAD0736A
S1134D7070F10001029305F1080B034602DA524276
S1134D8060EB4003CDE9002341463B4622465046B2
S1134D90FFF745FB04465D46DDE66F2801D1082296
S1134DA0B0E704D867286ED08AD36928B9E7732896
S1134DB000F0C2800FD870287FF4E0AE43F02103E6
S1134DC0059308231022CDE90393002305F1040B76
S1134DD0CDE9013243E07528A5D078289BD0CDE6F3
S1134DE0D90505F1040B13D5296805930A9B0029FD
S1134DF0CDE903934FEAD17302920193B8BF4942BC
S1134E0000913B46224641465046FFF7C8FAC1E7A7
S1134E1013F0400F296801D0C9B2E6E71D0648BF68
S1134E2009B2E2E71542000079B108930A9B0735FD
S1134E30CDE90693002325F0070504920593029318
S1134E4005F1080BD5E900239CE7D80505F1040B0F
S1134E5008D505930A9BCDE90112CDE903932B688C
S1134E600093CEE713F0400F296808D0C9B2059328
S1134E700A9B0292CDE9039300230193C0E718062D
S1134E8048BF89B2F3E700F0DF02472A04BF00F00D
S1134E90FD0043F40063452808BF43F02003049356
S1134EA00A9B0735CDE9029325F0070202F10805B4
S1134EB04146D2E900235046CDE900233B46224631
S1134EC0FFF772FC13E713F002030B9331D00123B5
S1134ED0A1460C933B464A4641462878D0470B9B53
S1134EE005F1040B09F10104002B3FF454AF0C9BB2
S1134EF0013BA3EB09090A9A04EB09039342BFF4AB
S1134F004AAF2246651C3B4641462020D0472C46EA
S1134F10F1E73B464A4641462020D0470BF10203C5
S1134F200C930A9B0BEB04090BF1010B5B45F0D8C6
S1134F30D0E7DDF82CB0F1E72A1DB9F1000F2D6898
S1134F400D9214BF4A464FF0FF32AB462A449BF8F9
S1134F50001009B193450FD113F48062ABEB050B3C
S1134F600B9202D0CB4528BFCB4613F002030C931F
S1134F7011D02246541B15E00BF1010BE7E73B4629
S1134F8041462020D0475B460A99E218994203F132
S1134F90010BF4D8EEE75B46E41AF5E799463B4685
S1134FA04146D047621915F8010B38B10B9B002B11
S1134FB0F5D009F1FF33B9F1000FEFD10C9B144682
S1134FC07BB90D9DC7E5224604F101093B464146E4
S1134FD02020D0474C460A9A0BEB04039342F2D3A9
S1134FE0EFE7ABEB020BF6E70FB41FB506AA52F8D6
S1134FF0043B02A90392009204484FF0FF32FFF7EA
S11350009DFD05B05DF804EB04B07047B9440000A1
S113501001460020FEF7F7BB81F0004102E000BF2B
S113502083F0004330B54FEA41044FEA430594EA64
S1135030050F08BF90EA020F1FBF54EA000C55EA9F
S1135040020C7FEA645C7FEA655C00F0E2804FEA70
S11350505454D4EB5555B8BF6D420CDD2C4480EA52
S1135060020281EA030382EA000083EA010180EA82
S1135070020281EA0303362D88BF30BD11F0004FD0
S11350804FEA01314FF4801C4CEA113102D0404206
S113509061EB410113F0004F4FEA03334CEA133341
S11350A002D0524263EB430394EA050F00F0A78059
S11350B0A4F10104D5F1200E0DDB02FA0EFC22FA54
S11350C005F2801841F1000103FA0EF2801843FA48
S11350D005F359410EE0A5F120050EF1200E012A39
S11350E003FA0EFC28BF4CF0020C43FA05F3C01877
S11350F051EBE37101F0004507D54FF0000EDCF1F0
S1135100000C7EEB00006EEB0101B1F5801F1BD398
S1135110B1F5001F0CD349085FEA30004FEA3C0C9C
S113512004F101044FEA445212F5800F80F09A8092
S1135130BCF1004F08BF5FEA500C50F1000041EB96
S1135140045141EA050130BD5FEA4C0C404141EB9A
S1135150010111F4801FA4F10104E9D191F0000FC1
S113516004BF01460020B1FA81F308BF2033A3F144
S11351700B03B3F120020CDA0C3208DD02F1140C3B
S1135180C2F10C0201FA0CF021FA02F10CE002F176
S11351901402D8BFC2F1200C01FA02F120FA0CFC6F
S11351A0DCBF41EA0C019040E41AA2BF01EB0451B8
S11351B0294330BD6FEA04041F3C1CDA0C340EDCB6
S11351C004F11404C4F1200220FA04F001FA02F3F9
S11351D040EA030021FA04F345EA030130BDC4F1B7
S11351E00C04C4F1200220FA02F001FA04F340EAAC
S11351F00300294630BD21FA04F0294630BD94F05D
S1135200000F83F4801306BF81F480110134013D43
S11352104EE77FEA645C18BF7FEA655C29D094EAB4
S1135220050F08BF90EA020F05D054EA000C04BF32
S11352301946104630BD91EA030F1EBF002100201D
S113524030BD5FEA545C05D14000494128BF41F0BC
S1135250004130BD14F580043CBF01F5801130BD20
S113526001F0004545F0FE4141F470014FF00000AB
S113527030BD7FEA645C1ABF194610467FEA655C5C
S11352801CBF0B46024650EA013406BF52EA0335FE
S113529091EA030F41F4002130BD00BF90F0000FEC
S11352A004BF0021704730B54FF4806404F1320428
S11352B04FF000054FF0000150E700BF90F0000FE1
S11352C004BF0021704730B54FF4806404F1320408
S11352D010F0004548BF40424FF000013EE700BFD8
S11352E042004FEAE2014FEA31014FEA02701FBF68
S11352F012F07F4393F07F4F81F06051704732F09A
S11353007F4208BF704793F07F4F04BF41F40021F0
S1135310704730B54FF4607401F0004521F000414E
S11353201CE700BF50EA010208BF704730B54FF0D8
S113533000050AE050EA010208BF704730B511F0D9
S1135340004502D5404261EB41014FF4806404F111
S113535032045FEA915C3FF4D8AE4FF003025FEA97
S1135360DC0C18BF03325FEADC0C18BF033202EB1B
S1135370DC02C2F1200300FA03FC20FA02F001FA75
S113538003FE40EA0E0021FA02F11444BDE600BF18
S113539070B54FF0FF0C4CF4E06C1CEA11541DBFC7
S11353A01CEA135594EA0C0F95EA0C0F00F0DEF892
S11353B02C4481EA030621EA4C5123EA4C5350EA77
S11353C0013518BF52EA033541F4801143F48013C8
S11353D038D0A0FB02CE4FF00005E1FB02E506F059
S11353E00042E0FB03E54FF00006E1FB03569CF0AE
S11353F0000F18BF4EF0010EA4F1FF04B6F5007FB4
S113540064F5407404D25FEA4E0E6D4146EB060625
S113541042EAC62141EA55514FEAC52040EA5E50AE
S11354204FEACE2EB4F1FD0C88BFBCF5E06F1ED858
S1135430BEF1004F08BF5FEA500E50F1000041EB8F
S1135440045170BD06F0004646EA010140EA02003C
S113545081EA0301B4EB5C04C2BFD4EB0C0541EA5E
S1135460045170BD41F480114FF0000E013C00F373
S1135470AB8014F1360FDEBF002001F0004170BD97
S1135480C4F10004203C35DA0C341BDC04F11404B0
S1135490C4F1200500FA05F320FA04F001FA05F23C
S11354A040EA020001F0004221F0004110EBD37009
S11354B021FA04F642EB06015EEA430E08BF20EA35
S11354C0D37070BDC4F10C04C4F1200500FA04F3D8
S11354D020FA05F001FA04F240EA020001F000416A
S11354E010EBD37041F100015EEA430E08BF20EADD
S11354F0D37070BDC4F1200500FA05F24EEA020E25
S113550020FA04F301FA05F243EA020321FA04F053
S113551001F0004121FA04F220EA020000EBD3700A
S11355205EEA430E08BF20EAD37070BD94F0000F0A
S11355300FD101F00046400041EB010111F4801F3E
S113554008BF013CF7D041EA060195F0000F18BFEF
S1135550704703F00046520043EB030313F4801F2B
S113556008BF013DF7D043EA0603704794EA0C0FE5
S11355700CEA135518BF95EA0C0F0CD050EA4106FB
S113558018BF52EA4306D1D181EA030101F0004178
S11355904FF0000070BD50EA410606BF10461946A0
S11355A052EA430619D094EA0C0F02D150EA0136AC
S11355B013D195EA0C0F05D152EA03361CBF1046ED
S11355C019460AD181EA030101F0004141F0FE418C
S11355D041F470014FF0000070BD41F0FE4141F410
S11355E0780170BD70B54FF0FF0C4CF4E06C1CEA10
S11355F011541DBF1CEA135594EA0C0F95EA0C0FC5
S113560000F0A7F8A4EB050481EA030E52EA03357F
S11356104FEA013100F088804FEA03334FF08055A0
S113562045EA131343EA12634FEA022245EA1115CD
S113563045EA10654FEA00260EF000419D4208BF7E
S1135640964244F1FD0404F5407402D25B084FEA2B
S11356503202B61A65EB03055B084FEA32024FF4D7
S113566080104FF4002CB6EB020E75EB030E22BF34
S1135670B61A754640EA0C005B084FEA3202B6EBF4
S1135680020E75EB030E22BFB61A754640EA5C00A3
S11356905B084FEA3202B6EB020E75EB030E22BF33
S11356A0B61A754640EA9C005B084FEA3202B6EB34
S11356B0020E75EB030E22BFB61A754640EADC00F3
S11356C055EA060E18D04FEA051545EA16754FEA55
S11356D006164FEAC30343EA52734FEAC2025FEA73
S11356E01C1CC0D111F4801F0BD141EA00014FF002
S11356F000004FF0004CB6E711F4801F04BF0143D3
S11357000020B4F1FD0C88BFBCF5E06F3FF6AFAEEE
S1135710B5EB030C04BFB6EB020C5FEA500C50F17E
S1135720000041EB045170BD0EF0004E4EEA113101
S113573014EB5C04C2BFD4EB0C0541EA045170BD08
S113574041F480114FF0000E013C90E645EA060E4C
S11357508DE60CEA135594EA0C0F08BF95EA0C0F7A
S11357603FF43BAF94EA0C0F0AD150EA01347FF4C2
S113577034AF95EA0C0F7FF425AF104619462CE799
S113578095EA0C0F06D152EA03353FF4FDAE1046FC
S1135790194622E750EA410618BF52EA43067FF44D
S11357A0C5AE50EA41047FF40DAF52EA43057FF4DD
S11357B0EBAE12E74FF0FF3C06E000BF4FF0010CE8
S11357C002E000BF4FF0010C4DF804CD4FEA410C4C
S11357D07FEA6C5C4FEA430C18BF7FEA6C5C1BD019
S11357E001B050EA410C0CBF52EA430C91EA030F9A
S11357F002BF90EA020F0020704710F1000F91EAF7
S1135800030F58BF994208BF90422CBFD8176FEAC4
S1135810E37040F0010070474FEA410C7FEA6C5C92
S113582002D150EA013C07D14FEA430C7FEA6C5C99
S1135830D6D152EA033CD3D05DF8040B704700BFC5
S11358408446104662468C461946634600E000BF13
S113585001B5FFF7B7FF002848BF10F1000F01BDE5
S11358604DF808EDFFF7F4FF0CBF012000205DF8B0
S113587008FB00BF4DF808EDFFF7EAFF34BF012035
S113588000205DF808FB00BF4DF808EDFFF7E0FFCE
S113589094BF012000205DF808FB00BF4DF808ED1F
S11358A0FFF7CEFF94BF012000205DF808FB00BF86
S11358B04DF808EDFFF7C4FF34BF012000205DF868
S11358C008FB00BF4FEA410212F5001215D211D5B0
S11358D06FF47873B3EB625212D94FEAC12343F0E9
S11358E0004343EA505311F0004F23FA02F018BF6B
S11358F0404270474FF00000704750EA013005D134
S113590011F0004008BF6FF0004070474FF00000F6
S1135910704700BF4A0011D212F5001211D20DD502
S11359206FF47873B3EB62520ED44FEAC12343F0A1
S1135930004343EA505323FA02F070474FF000004B
S1135940704750EA013002D14FF0FF3070474FF0FA
S11359500000704753B94AB9002908BF00281CBF8A
S11359604FF0FF314FF0FF3000F07CB9ADF1080C7F
S11359706DE904CE00F006F8DDF804E0DDE9022369
S113598004B070472DE9F0478C46089D04468A46CA
S1135990002B4AD18A42174662D9B2FA82F64EB136
S11359A0C6F1200E01FA06F3B740B44020FA0EFE09
S11359B04EEA030A4FEA1748230C1FFA87F9BAFB89
S11359C0F8FE08FB1EAA0EFB09F243EA0A439A42B8
S11359D00BD9FB180EF1FF312CBF012000209A4295
S11359E002D9002800F02A818E469A1AA3B2B2FB8B
S11359F0F8F008FB102200FB09F943EA0244A14530
S1135A0007D93C1900F1FF3302D2A14500F21081FD
S1135A101846A4EB090440EA0E4000211DB1F440ED
S1135A200023C5E90043BDE8F0878B4208D9002D67
S1135A3000F0F2800021C5E9000C0846BDE8F087BB
S1135A40B3FA83F100294ED16345C0F0E880824265
S1135A5040F2E5800846002DE5D0C5E9004AE2E7BA
S1135A6002B9FFDEB2FA82F6002E40F099808B1A5A
S1135A704FEA124E1FFA82F801214FEA144CB3FB8D
S1135A80FEF20EFB123008FB02F94CEA004CE14531
S1135A9008D917EB0C0C02F1FF3302D2E14500F2F6
S1135AA0CA801A46ACEB090CA3B2BCFBFEF00EFB99
S1135AB010CC08FB00F843EA0C44A0450ED93C196D
S1135AC000F1FF332CBF4FF0010C4FF0000CA04548
S1135AD003D9BCF1000F00F0A8801846A4EB080419
S1135AE040EA02409AE7C1F120048B4002FA01FE29
S1135AF00CFA01F6E24020FA04F72CFA04FC00FA4E
S1135B0001F813433E431F0C320C1FFA83F9BCFB0C
S1135B10F7F007FB10CC00FB09FA42EA0C4CE24513
S1135B2008D913EB0C0C00F1FF3202D2E24500F26B
S1135B3089801046ACEB0A0CB6B2BCFBF7FA07FB43
S1135B401ACC0AFB09F946EA0C42914506D99A187F
S1135B500AF1FF3601D291457AD8B2464AEA0040AA
S1135B60A2EB0902A0FB0E67BA42B446B94602D3BF
S1135B7007D1B04505D2B6EB0E0C67EB0303013831
S1135B809946002D6BD0B8EB0C0362EB090202FAC4
S1135B9004F4CB40CA4000211C43C5E9004242E75B
S1135BA0B740C6F1200201FA06F3B44021FA02FC20
S1135BB04FEA174E20FA02F21FFA87F8BCFBFEF1F7
S1135BC01A430EFB11CC01FB08F0130C43EA0C4CF6
S1135BD0604507D917EB0C0C01F1FF3301D2604586
S1135BE033D81946ACEB000C92B2BCFBFEF00EFBB2
S1135BF010CC00FB08F342EA0C4C634507D917EBC1
S1135C000C0C00F1FF3201D2634525D81046ACEBF1
S1135C10030340EA014130E72946284603E7841A92
S1135C206CEB030301209A4615E702383C4455E720
S1135C3002383C44EDE6023ABC4433E7AEF1020ECE
S1135C403B44D2E602389C4474E70239BC44C9E7B9
S1135C50AAF1020A1A4481E70238BC44D7E729466C
S1135C60E1E600BF704700BF08B5074B044613B117
S1135C70002100E000BF054B1868836A03B1984710
S1135C802046FDF7CBFD00BF00000000C06300000C
S1135C9070B50D4E00250D4CA41BA410A54209D1CE
S1135CA00B4E00250B4C00F01FF8A41BA410A542BA
S1135CB005D170BD56F8253001359847EEE756F802
S1135CC0253001359847F2E7A4100020A4100020E5
S1135CD0A4100020A810002002440346934200D1DF
S1135CE0704703F8011BF9E7F8B500BFF8BC08BC1E
